{
	"app/Contracts/Kategori.sol": {
		"Kategori": {
			"abi": [
				{
					"anonymous": false,
					"inputs": [
						{
							"indexed": false,
							"internalType": "uint256",
							"name": "id",
							"type": "uint256"
						},
						{
							"indexed": false,
							"internalType": "string",
							"name": "nama",
							"type": "string"
						}
					],
					"name": "AddKategori",
					"type": "event"
				},
				{
					"anonymous": false,
					"inputs": [
						{
							"indexed": false,
							"internalType": "uint256",
							"name": "id",
							"type": "uint256"
						}
					],
					"name": "DeleteKategori",
					"type": "event"
				},
				{
					"anonymous": false,
					"inputs": [
						{
							"indexed": false,
							"internalType": "uint256",
							"name": "id",
							"type": "uint256"
						},
						{
							"indexed": false,
							"internalType": "string",
							"name": "nama",
							"type": "string"
						}
					],
					"name": "UpdateKategori",
					"type": "event"
				},
				{
					"inputs": [
						{
							"internalType": "uint256",
							"name": "_id",
							"type": "uint256"
						}
					],
					"name": "deleteKategori",
					"outputs": [],
					"stateMutability": "nonpayable",
					"type": "function"
				},
				{
					"inputs": [],
					"name": "getAllKategori",
					"outputs": [
						{
							"internalType": "uint256[]",
							"name": "",
							"type": "uint256[]"
						},
						{
							"internalType": "string[]",
							"name": "",
							"type": "string[]"
						}
					],
					"stateMutability": "view",
					"type": "function"
				},
				{
					"inputs": [],
					"name": "getCountKategori",
					"outputs": [
						{
							"internalType": "uint256",
							"name": "jumlahKategori",
							"type": "uint256"
						}
					],
					"stateMutability": "view",
					"type": "function"
				},
				{
					"inputs": [
						{
							"internalType": "uint256",
							"name": "_id",
							"type": "uint256"
						}
					],
					"name": "getKategori",
					"outputs": [
						{
							"internalType": "string",
							"name": "nama",
							"type": "string"
						}
					],
					"stateMutability": "view",
					"type": "function"
				},
				{
					"inputs": [
						{
							"internalType": "uint256",
							"name": "",
							"type": "uint256"
						}
					],
					"name": "idKategori",
					"outputs": [
						{
							"internalType": "uint256",
							"name": "",
							"type": "uint256"
						}
					],
					"stateMutability": "view",
					"type": "function"
				},
				{
					"inputs": [
						{
							"internalType": "uint256",
							"name": "_id",
							"type": "uint256"
						},
						{
							"internalType": "string",
							"name": "_nama",
							"type": "string"
						}
					],
					"name": "tambahKategori",
					"outputs": [],
					"stateMutability": "nonpayable",
					"type": "function"
				},
				{
					"inputs": [
						{
							"internalType": "uint256",
							"name": "_id",
							"type": "uint256"
						},
						{
							"internalType": "string",
							"name": "_nama",
							"type": "string"
						}
					],
					"name": "updateKategori",
					"outputs": [],
					"stateMutability": "nonpayable",
					"type": "function"
				}
			],
			"devdoc": {
				"kind": "dev",
				"methods": {},
				"version": 1
			},
			"evm": {
				"assembly": "    /* \"app/Contracts/Kategori.sol\":57:2077  contract Kategori {... */\n  mstore(0x40, 0x80)\n  callvalue\n  dup1\n  iszero\n  tag_1\n  jumpi\n  0x00\n  dup1\n  revert\ntag_1:\n  pop\n  dataSize(sub_0)\n  dup1\n  dataOffset(sub_0)\n  0x00\n  codecopy\n  0x00\n  return\nstop\n\nsub_0: assembly {\n        /* \"app/Contracts/Kategori.sol\":57:2077  contract Kategori {... */\n      mstore(0x40, 0x80)\n      callvalue\n      dup1\n      iszero\n      tag_1\n      jumpi\n      0x00\n      dup1\n      revert\n    tag_1:\n      pop\n      jumpi(tag_2, lt(calldatasize, 0x04))\n      shr(0xe0, calldataload(0x00))\n      dup1\n      0xcbeec408\n      gt\n      tag_10\n      jumpi\n      dup1\n      0xcbeec408\n      eq\n      tag_6\n      jumpi\n      dup1\n      0xd02a6159\n      eq\n      tag_7\n      jumpi\n      dup1\n      0xd78d7b53\n      eq\n      tag_8\n      jumpi\n      dup1\n      0xe244e23b\n      eq\n      tag_9\n      jumpi\n      jump(tag_2)\n    tag_10:\n      dup1\n      0x3988b27b\n      eq\n      tag_3\n      jumpi\n      dup1\n      0x44c711ae\n      eq\n      tag_4\n      jumpi\n      dup1\n      0x4f1411c1\n      eq\n      tag_5\n      jumpi\n    tag_2:\n      0x00\n      dup1\n      revert\n        /* \"app/Contracts/Kategori.sol\":344:638  function tambahKategori(uint _id, string memory _nama) public {... */\n    tag_3:\n      tag_11\n      0x04\n      dup1\n      calldatasize\n      sub\n      dup2\n      add\n      swap1\n      tag_12\n      swap2\n      swap1\n      tag_13\n      jump\t// in\n    tag_12:\n      tag_14\n      jump\t// in\n    tag_11:\n      stop\n        /* \"app/Contracts/Kategori.sol\":814:1332  function getAllKategori() public view returns (uint[] memory, string[] memory) {... */\n    tag_4:\n      tag_15\n      tag_16\n      jump\t// in\n    tag_15:\n      mload(0x40)\n      tag_17\n      swap3\n      swap2\n      swap1\n      tag_18\n      jump\t// in\n    tag_17:\n      mload(0x40)\n      dup1\n      swap2\n      sub\n      swap1\n      return\n        /* \"app/Contracts/Kategori.sol\":642:810  function getKategori(uint _id) public view returns (string memory nama) {... */\n    tag_5:\n      tag_19\n      0x04\n      dup1\n      calldatasize\n      sub\n      dup2\n      add\n      swap1\n      tag_20\n      swap2\n      swap1\n      tag_21\n      jump\t// in\n    tag_20:\n      tag_22\n      jump\t// in\n    tag_19:\n      mload(0x40)\n      tag_23\n      swap2\n      swap1\n      tag_24\n      jump\t// in\n    tag_23:\n      mload(0x40)\n      dup1\n      swap2\n      sub\n      swap1\n      return\n        /* \"app/Contracts/Kategori.sol\":1799:2075  function deleteKategori(uint _id) public {... */\n    tag_6:\n      tag_25\n      0x04\n      dup1\n      calldatasize\n      sub\n      dup2\n      add\n      swap1\n      tag_26\n      swap2\n      swap1\n      tag_21\n      jump\t// in\n    tag_26:\n      tag_27\n      jump\t// in\n    tag_25:\n      stop\n        /* \"app/Contracts/Kategori.sol\":1336:1480  function getCountKategori() public view returns (uint jumlahKategori) {... */\n    tag_7:\n      tag_28\n      tag_29\n      jump\t// in\n    tag_28:\n      mload(0x40)\n      tag_30\n      swap2\n      swap1\n      tag_31\n      jump\t// in\n    tag_30:\n      mload(0x40)\n      dup1\n      swap2\n      sub\n      swap1\n      return\n        /* \"app/Contracts/Kategori.sol\":190:214  uint[] public idKategori */\n    tag_8:\n      tag_32\n      0x04\n      dup1\n      calldatasize\n      sub\n      dup2\n      add\n      swap1\n      tag_33\n      swap2\n      swap1\n      tag_21\n      jump\t// in\n    tag_33:\n      tag_34\n      jump\t// in\n    tag_32:\n      mload(0x40)\n      tag_35\n      swap2\n      swap1\n      tag_31\n      jump\t// in\n    tag_35:\n      mload(0x40)\n      dup1\n      swap2\n      sub\n      swap1\n      return\n        /* \"app/Contracts/Kategori.sol\":1484:1795  function updateKategori(uint _id, string memory _nama) public {... */\n    tag_9:\n      tag_36\n      0x04\n      dup1\n      calldatasize\n      sub\n      dup2\n      add\n      swap1\n      tag_37\n      swap2\n      swap1\n      tag_13\n      jump\t// in\n    tag_37:\n      tag_38\n      jump\t// in\n    tag_36:\n      stop\n        /* \"app/Contracts/Kategori.sol\":344:638  function tambahKategori(uint _id, string memory _nama) public {... */\n    tag_14:\n        /* \"app/Contracts/Kategori.sol\":442:443  0 */\n      0x00\n        /* \"app/Contracts/Kategori.sol\":426:431  _nama */\n      dup2\n        /* \"app/Contracts/Kategori.sol\":420:439  bytes(_nama).length */\n      mload\n        /* \"app/Contracts/Kategori.sol\":420:443  bytes(_nama).length > 0 */\n      gt\n        /* \"app/Contracts/Kategori.sol\":412:480  require(bytes(_nama).length > 0, \"Nama Kategori tidak boleh kosong\") */\n      tag_40\n      jumpi\n      mload(0x40)\n      0x08c379a000000000000000000000000000000000000000000000000000000000\n      dup2\n      mstore\n      0x04\n      add\n      tag_41\n      swap1\n      tag_42\n      jump\t// in\n    tag_41:\n      mload(0x40)\n      dup1\n      swap2\n      sub\n      swap1\n      revert\n    tag_40:\n        /* \"app/Contracts/Kategori.sol\":487:518  KategoriData memory newKategori */\n      0x00\n        /* \"app/Contracts/Kategori.sol\":521:569  KategoriData({... */\n      mload(0x40)\n      dup1\n      0x20\n      add\n      0x40\n      mstore\n      dup1\n        /* \"app/Contracts/Kategori.sol\":557:562  _nama */\n      dup4\n        /* \"app/Contracts/Kategori.sol\":521:569  KategoriData({... */\n      dup2\n      mstore\n      pop\n        /* \"app/Contracts/Kategori.sol\":487:569  KategoriData memory newKategori = KategoriData({... */\n      swap1\n      pop\n        /* \"app/Contracts/Kategori.sol\":596:607  newKategori */\n      dup1\n        /* \"app/Contracts/Kategori.sol\":576:588  kategoriData */\n      0x00\n        /* \"app/Contracts/Kategori.sol\":576:593  kategoriData[_id] */\n      dup1\n        /* \"app/Contracts/Kategori.sol\":589:592  _id */\n      dup6\n        /* \"app/Contracts/Kategori.sol\":576:593  kategoriData[_id] */\n      dup2\n      mstore\n      0x20\n      add\n      swap1\n      dup2\n      mstore\n      0x20\n      add\n      0x00\n      keccak256\n        /* \"app/Contracts/Kategori.sol\":576:607  kategoriData[_id] = newKategori */\n      0x00\n      dup3\n      add\n      mload\n      dup2\n      0x00\n      add\n      swap1\n      dup2\n      tag_43\n      swap2\n      swap1\n      tag_44\n      jump\t// in\n    tag_43:\n      pop\n      swap1\n      pop\n      pop\n        /* \"app/Contracts/Kategori.sol\":613:623  idKategori */\n      0x01\n        /* \"app/Contracts/Kategori.sol\":629:632  _id */\n      dup4\n        /* \"app/Contracts/Kategori.sol\":613:633  idKategori.push(_id) */\n      swap1\n      dup1\n      0x01\n      dup2\n      sload\n      add\n      dup1\n      dup3\n      sstore\n      dup1\n      swap2\n      pop\n      pop\n      0x01\n      swap1\n      sub\n      swap1\n      0x00\n      mstore\n      keccak256(0x00, 0x20)\n      add\n      0x00\n      swap1\n      swap2\n      swap1\n      swap2\n      swap1\n      swap2\n      pop\n      sstore\n        /* \"app/Contracts/Kategori.sol\":406:638  {... */\n      pop\n        /* \"app/Contracts/Kategori.sol\":344:638  function tambahKategori(uint _id, string memory _nama) public {... */\n      pop\n      pop\n      jump\t// out\n        /* \"app/Contracts/Kategori.sol\":814:1332  function getAllKategori() public view returns (uint[] memory, string[] memory) {... */\n    tag_16:\n        /* \"app/Contracts/Kategori.sol\":861:874  uint[] memory */\n      0x60\n        /* \"app/Contracts/Kategori.sol\":876:891  string[] memory */\n      dup1\n        /* \"app/Contracts/Kategori.sol\":899:917  uint kategoriCount */\n      0x00\n        /* \"app/Contracts/Kategori.sol\":920:930  idKategori */\n      0x01\n        /* \"app/Contracts/Kategori.sol\":920:937  idKategori.length */\n      dup1\n      sload\n      swap1\n      pop\n        /* \"app/Contracts/Kategori.sol\":899:937  uint kategoriCount = idKategori.length */\n      swap1\n      pop\n        /* \"app/Contracts/Kategori.sol\":944:963  uint[] memory index */\n      0x00\n        /* \"app/Contracts/Kategori.sol\":977:990  kategoriCount */\n      dup2\n        /* \"app/Contracts/Kategori.sol\":966:991  new uint[](kategoriCount) */\n      0xffffffffffffffff\n      dup2\n      gt\n      iszero\n      tag_47\n      jumpi\n      tag_48\n      tag_49\n      jump\t// in\n    tag_48:\n    tag_47:\n      mload(0x40)\n      swap1\n      dup1\n      dup3\n      mstore\n      dup1\n      0x20\n      mul\n      0x20\n      add\n      dup3\n      add\n      0x40\n      mstore\n      dup1\n      iszero\n      tag_50\n      jumpi\n      dup2\n      0x20\n      add\n      0x20\n      dup3\n      mul\n      dup1\n      calldatasize\n      dup4\n      calldatacopy\n      dup1\n      dup3\n      add\n      swap2\n      pop\n      pop\n      swap1\n      pop\n    tag_50:\n      pop\n        /* \"app/Contracts/Kategori.sol\":944:991  uint[] memory index = new uint[](kategoriCount) */\n      swap1\n      pop\n        /* \"app/Contracts/Kategori.sol\":997:1025  string[] memory namaKategori */\n      0x00\n        /* \"app/Contracts/Kategori.sol\":1041:1054  kategoriCount */\n      dup3\n        /* \"app/Contracts/Kategori.sol\":1028:1055  new string[](kategoriCount) */\n      0xffffffffffffffff\n      dup2\n      gt\n      iszero\n      tag_51\n      jumpi\n      tag_52\n      tag_49\n      jump\t// in\n    tag_52:\n    tag_51:\n      mload(0x40)\n      swap1\n      dup1\n      dup3\n      mstore\n      dup1\n      0x20\n      mul\n      0x20\n      add\n      dup3\n      add\n      0x40\n      mstore\n      dup1\n      iszero\n      tag_53\n      jumpi\n      dup2\n      0x20\n      add\n    tag_54:\n      0x60\n      dup2\n      mstore\n      0x20\n      add\n      swap1\n      0x01\n      swap1\n      sub\n      swap1\n      dup2\n      tag_54\n      jumpi\n      swap1\n      pop\n    tag_53:\n      pop\n        /* \"app/Contracts/Kategori.sol\":997:1055  string[] memory namaKategori = new string[](kategoriCount) */\n      swap1\n      pop\n        /* \"app/Contracts/Kategori.sol\":1067:1073  uint i */\n      0x00\n        /* \"app/Contracts/Kategori.sol\":1062:1289  for (uint i = 0; i < kategoriCount; i++) {... */\n    tag_55:\n        /* \"app/Contracts/Kategori.sol\":1083:1096  kategoriCount */\n      dup4\n        /* \"app/Contracts/Kategori.sol\":1079:1080  i */\n      dup2\n        /* \"app/Contracts/Kategori.sol\":1079:1096  i < kategoriCount */\n      lt\n        /* \"app/Contracts/Kategori.sol\":1062:1289  for (uint i = 0; i < kategoriCount; i++) {... */\n      iszero\n      tag_56\n      jumpi\n        /* \"app/Contracts/Kategori.sol\":1111:1126  uint kategoriId */\n      0x00\n        /* \"app/Contracts/Kategori.sol\":1129:1139  idKategori */\n      0x01\n        /* \"app/Contracts/Kategori.sol\":1140:1141  i */\n      dup3\n        /* \"app/Contracts/Kategori.sol\":1129:1142  idKategori[i] */\n      dup2\n      sload\n      dup2\n      lt\n      tag_58\n      jumpi\n      tag_59\n      tag_60\n      jump\t// in\n    tag_59:\n    tag_58:\n      swap1\n      0x00\n      mstore\n      keccak256(0x00, 0x20)\n      add\n      sload\n        /* \"app/Contracts/Kategori.sol\":1111:1142  uint kategoriId = idKategori[i] */\n      swap1\n      pop\n        /* \"app/Contracts/Kategori.sol\":1150:1178  KategoriData memory kategori */\n      0x00\n        /* \"app/Contracts/Kategori.sol\":1181:1193  kategoriData */\n      dup1\n        /* \"app/Contracts/Kategori.sol\":1181:1205  kategoriData[kategoriId] */\n      0x00\n        /* \"app/Contracts/Kategori.sol\":1194:1204  kategoriId */\n      dup4\n        /* \"app/Contracts/Kategori.sol\":1181:1205  kategoriData[kategoriId] */\n      dup2\n      mstore\n      0x20\n      add\n      swap1\n      dup2\n      mstore\n      0x20\n      add\n      0x00\n      keccak256\n        /* \"app/Contracts/Kategori.sol\":1150:1205  KategoriData memory kategori = kategoriData[kategoriId] */\n      mload(0x40)\n      dup1\n      0x20\n      add\n      0x40\n      mstore\n      swap1\n      dup2\n      0x00\n      dup3\n      add\n      dup1\n      sload\n      tag_62\n      swap1\n      tag_63\n      jump\t// in\n    tag_62:\n      dup1\n      0x1f\n      add\n      0x20\n      dup1\n      swap2\n      div\n      mul\n      0x20\n      add\n      mload(0x40)\n      swap1\n      dup2\n      add\n      0x40\n      mstore\n      dup1\n      swap3\n      swap2\n      swap1\n      dup2\n      dup2\n      mstore\n      0x20\n      add\n      dup3\n      dup1\n      sload\n      tag_64\n      swap1\n      tag_63\n      jump\t// in\n    tag_64:\n      dup1\n      iszero\n      tag_65\n      jumpi\n      dup1\n      0x1f\n      lt\n      tag_66\n      jumpi\n      0x0100\n      dup1\n      dup4\n      sload\n      div\n      mul\n      dup4\n      mstore\n      swap2\n      0x20\n      add\n      swap2\n      jump(tag_65)\n    tag_66:\n      dup3\n      add\n      swap2\n      swap1\n      0x00\n      mstore\n      keccak256(0x00, 0x20)\n      swap1\n    tag_67:\n      dup2\n      sload\n      dup2\n      mstore\n      swap1\n      0x01\n      add\n      swap1\n      0x20\n      add\n      dup1\n      dup4\n      gt\n      tag_67\n      jumpi\n      dup3\n      swap1\n      sub\n      0x1f\n      and\n      dup3\n      add\n      swap2\n    tag_65:\n      pop\n      pop\n      pop\n      pop\n      pop\n      dup2\n      mstore\n      pop\n      pop\n      swap1\n      pop\n        /* \"app/Contracts/Kategori.sol\":1224:1234  kategoriId */\n      dup2\n        /* \"app/Contracts/Kategori.sol\":1213:1218  index */\n      dup6\n        /* \"app/Contracts/Kategori.sol\":1219:1220  i */\n      dup5\n        /* \"app/Contracts/Kategori.sol\":1213:1221  index[i] */\n      dup2\n      mload\n      dup2\n      lt\n      tag_68\n      jumpi\n      tag_69\n      tag_60\n      jump\t// in\n    tag_69:\n    tag_68:\n      0x20\n      mul\n      0x20\n      add\n      add\n        /* \"app/Contracts/Kategori.sol\":1213:1234  index[i] = kategoriId */\n      dup2\n      dup2\n      mstore\n      pop\n      pop\n        /* \"app/Contracts/Kategori.sol\":1260:1268  kategori */\n      dup1\n        /* \"app/Contracts/Kategori.sol\":1260:1282  kategori.nama_kategori */\n      0x00\n      add\n      mload\n        /* \"app/Contracts/Kategori.sol\":1242:1254  namaKategori */\n      dup5\n        /* \"app/Contracts/Kategori.sol\":1255:1256  i */\n      dup5\n        /* \"app/Contracts/Kategori.sol\":1242:1257  namaKategori[i] */\n      dup2\n      mload\n      dup2\n      lt\n      tag_70\n      jumpi\n      tag_71\n      tag_60\n      jump\t// in\n    tag_71:\n    tag_70:\n      0x20\n      mul\n      0x20\n      add\n      add\n        /* \"app/Contracts/Kategori.sol\":1242:1282  namaKategori[i] = kategori.nama_kategori */\n      dup2\n      swap1\n      mstore\n      pop\n        /* \"app/Contracts/Kategori.sol\":1103:1289  {... */\n      pop\n      pop\n        /* \"app/Contracts/Kategori.sol\":1098:1101  i++ */\n      dup1\n      dup1\n      0x01\n      add\n      swap2\n      pop\n      pop\n        /* \"app/Contracts/Kategori.sol\":1062:1289  for (uint i = 0; i < kategoriCount; i++) {... */\n      jump(tag_55)\n    tag_56:\n      pop\n        /* \"app/Contracts/Kategori.sol\":1307:1312  index */\n      dup2\n        /* \"app/Contracts/Kategori.sol\":1314:1326  namaKategori */\n      dup2\n        /* \"app/Contracts/Kategori.sol\":1299:1327  return (index, namaKategori) */\n      swap5\n      pop\n      swap5\n      pop\n      pop\n      pop\n      pop\n        /* \"app/Contracts/Kategori.sol\":814:1332  function getAllKategori() public view returns (uint[] memory, string[] memory) {... */\n      swap1\n      swap2\n      jump\t// out\n        /* \"app/Contracts/Kategori.sol\":642:810  function getKategori(uint _id) public view returns (string memory nama) {... */\n    tag_22:\n        /* \"app/Contracts/Kategori.sol\":694:712  string memory nama */\n      0x60\n        /* \"app/Contracts/Kategori.sol\":720:748  KategoriData memory kategori */\n      0x00\n        /* \"app/Contracts/Kategori.sol\":751:763  kategoriData */\n      dup1\n        /* \"app/Contracts/Kategori.sol\":751:768  kategoriData[_id] */\n      0x00\n        /* \"app/Contracts/Kategori.sol\":764:767  _id */\n      dup5\n        /* \"app/Contracts/Kategori.sol\":751:768  kategoriData[_id] */\n      dup2\n      mstore\n      0x20\n      add\n      swap1\n      dup2\n      mstore\n      0x20\n      add\n      0x00\n      keccak256\n        /* \"app/Contracts/Kategori.sol\":720:768  KategoriData memory kategori = kategoriData[_id] */\n      mload(0x40)\n      dup1\n      0x20\n      add\n      0x40\n      mstore\n      swap1\n      dup2\n      0x00\n      dup3\n      add\n      dup1\n      sload\n      tag_73\n      swap1\n      tag_63\n      jump\t// in\n    tag_73:\n      dup1\n      0x1f\n      add\n      0x20\n      dup1\n      swap2\n      div\n      mul\n      0x20\n      add\n      mload(0x40)\n      swap1\n      dup2\n      add\n      0x40\n      mstore\n      dup1\n      swap3\n      swap2\n      swap1\n      dup2\n      dup2\n      mstore\n      0x20\n      add\n      dup3\n      dup1\n      sload\n      tag_74\n      swap1\n      tag_63\n      jump\t// in\n    tag_74:\n      dup1\n      iszero\n      tag_75\n      jumpi\n      dup1\n      0x1f\n      lt\n      tag_76\n      jumpi\n      0x0100\n      dup1\n      dup4\n      sload\n      div\n      mul\n      dup4\n      mstore\n      swap2\n      0x20\n      add\n      swap2\n      jump(tag_75)\n    tag_76:\n      dup3\n      add\n      swap2\n      swap1\n      0x00\n      mstore\n      keccak256(0x00, 0x20)\n      swap1\n    tag_77:\n      dup2\n      sload\n      dup2\n      mstore\n      swap1\n      0x01\n      add\n      swap1\n      0x20\n      add\n      dup1\n      dup4\n      gt\n      tag_77\n      jumpi\n      dup3\n      swap1\n      sub\n      0x1f\n      and\n      dup3\n      add\n      swap2\n    tag_75:\n      pop\n      pop\n      pop\n      pop\n      pop\n      dup2\n      mstore\n      pop\n      pop\n      swap1\n      pop\n        /* \"app/Contracts/Kategori.sol\":782:790  kategori */\n      dup1\n        /* \"app/Contracts/Kategori.sol\":782:804  kategori.nama_kategori */\n      0x00\n      add\n      mload\n        /* \"app/Contracts/Kategori.sol\":774:805  return (kategori.nama_kategori) */\n      swap2\n      pop\n      pop\n        /* \"app/Contracts/Kategori.sol\":642:810  function getKategori(uint _id) public view returns (string memory nama) {... */\n      swap2\n      swap1\n      pop\n      jump\t// out\n        /* \"app/Contracts/Kategori.sol\":1799:2075  function deleteKategori(uint _id) public {... */\n    tag_27:\n        /* \"app/Contracts/Kategori.sol\":1853:1865  kategoriData */\n      0x00\n        /* \"app/Contracts/Kategori.sol\":1853:1870  kategoriData[_id] */\n      dup1\n        /* \"app/Contracts/Kategori.sol\":1866:1869  _id */\n      dup3\n        /* \"app/Contracts/Kategori.sol\":1853:1870  kategoriData[_id] */\n      dup2\n      mstore\n      0x20\n      add\n      swap1\n      dup2\n      mstore\n      0x20\n      add\n      0x00\n      keccak256\n      0x00\n        /* \"app/Contracts/Kategori.sol\":1846:1870  delete kategoriData[_id] */\n      dup1\n      dup3\n      add\n      0x00\n      tag_79\n      swap2\n      swap1\n      tag_80\n      jump\t// in\n    tag_79:\n      pop\n      pop\n        /* \"app/Contracts/Kategori.sol\":1882:1888  uint i */\n      0x00\n        /* \"app/Contracts/Kategori.sol\":1877:2071  for (uint i = 0; i < idKategori.length; i++) {... */\n    tag_81:\n        /* \"app/Contracts/Kategori.sol\":1898:1908  idKategori */\n      0x01\n        /* \"app/Contracts/Kategori.sol\":1898:1915  idKategori.length */\n      dup1\n      sload\n      swap1\n      pop\n        /* \"app/Contracts/Kategori.sol\":1894:1895  i */\n      dup2\n        /* \"app/Contracts/Kategori.sol\":1894:1915  i < idKategori.length */\n      lt\n        /* \"app/Contracts/Kategori.sol\":1877:2071  for (uint i = 0; i < idKategori.length; i++) {... */\n      iszero\n      tag_82\n      jumpi\n        /* \"app/Contracts/Kategori.sol\":1951:1954  _id */\n      dup2\n        /* \"app/Contracts/Kategori.sol\":1934:1944  idKategori */\n      0x01\n        /* \"app/Contracts/Kategori.sol\":1945:1946  i */\n      dup3\n        /* \"app/Contracts/Kategori.sol\":1934:1947  idKategori[i] */\n      dup2\n      sload\n      dup2\n      lt\n      tag_84\n      jumpi\n      tag_85\n      tag_60\n      jump\t// in\n    tag_85:\n    tag_84:\n      swap1\n      0x00\n      mstore\n      keccak256(0x00, 0x20)\n      add\n      sload\n        /* \"app/Contracts/Kategori.sol\":1934:1954  idKategori[i] == _id */\n      sub\n        /* \"app/Contracts/Kategori.sol\":1930:2065  if (idKategori[i] == _id) {... */\n      tag_87\n      jumpi\n        /* \"app/Contracts/Kategori.sol\":1982:1992  idKategori */\n      0x01\n        /* \"app/Contracts/Kategori.sol\":2013:2014  1 */\n      dup1\n        /* \"app/Contracts/Kategori.sol\":1993:2003  idKategori */\n      dup1\n        /* \"app/Contracts/Kategori.sol\":1993:2010  idKategori.length */\n      dup1\n      sload\n      swap1\n      pop\n        /* \"app/Contracts/Kategori.sol\":1993:2014  idKategori.length - 1 */\n      tag_88\n      swap2\n      swap1\n      tag_89\n      jump\t// in\n    tag_88:\n        /* \"app/Contracts/Kategori.sol\":1982:2015  idKategori[idKategori.length - 1] */\n      dup2\n      sload\n      dup2\n      lt\n      tag_90\n      jumpi\n      tag_91\n      tag_60\n      jump\t// in\n    tag_91:\n    tag_90:\n      swap1\n      0x00\n      mstore\n      keccak256(0x00, 0x20)\n      add\n      sload\n        /* \"app/Contracts/Kategori.sol\":1966:1976  idKategori */\n      0x01\n        /* \"app/Contracts/Kategori.sol\":1977:1978  i */\n      dup3\n        /* \"app/Contracts/Kategori.sol\":1966:1979  idKategori[i] */\n      dup2\n      sload\n      dup2\n      lt\n      tag_93\n      jumpi\n      tag_94\n      tag_60\n      jump\t// in\n    tag_94:\n    tag_93:\n      swap1\n      0x00\n      mstore\n      keccak256(0x00, 0x20)\n      add\n        /* \"app/Contracts/Kategori.sol\":1966:2015  idKategori[i] = idKategori[idKategori.length - 1] */\n      dup2\n      swap1\n      sstore\n      pop\n        /* \"app/Contracts/Kategori.sol\":2025:2035  idKategori */\n      0x01\n        /* \"app/Contracts/Kategori.sol\":2025:2041  idKategori.pop() */\n      dup1\n      sload\n      dup1\n      tag_96\n      jumpi\n      tag_97\n      tag_98\n      jump\t// in\n    tag_97:\n    tag_96:\n      0x01\n      swap1\n      sub\n      dup2\n      dup2\n      swap1\n      0x00\n      mstore\n      keccak256(0x00, 0x20)\n      add\n      0x00\n      swap1\n      sstore\n      swap1\n      sstore\n        /* \"app/Contracts/Kategori.sol\":2051:2056  break */\n      jump(tag_82)\n        /* \"app/Contracts/Kategori.sol\":1930:2065  if (idKategori[i] == _id) {... */\n    tag_87:\n        /* \"app/Contracts/Kategori.sol\":1917:1920  i++ */\n      dup1\n      dup1\n      0x01\n      add\n      swap2\n      pop\n      pop\n        /* \"app/Contracts/Kategori.sol\":1877:2071  for (uint i = 0; i < idKategori.length; i++) {... */\n      jump(tag_81)\n    tag_82:\n      pop\n        /* \"app/Contracts/Kategori.sol\":1799:2075  function deleteKategori(uint _id) public {... */\n      pop\n      jump\t// out\n        /* \"app/Contracts/Kategori.sol\":1336:1480  function getCountKategori() public view returns (uint jumlahKategori) {... */\n    tag_29:\n        /* \"app/Contracts/Kategori.sol\":1385:1404  uint jumlahKategori */\n      0x00\n        /* \"app/Contracts/Kategori.sol\":1429:1439  idKategori */\n      0x01\n        /* \"app/Contracts/Kategori.sol\":1429:1446  idKategori.length */\n      dup1\n      sload\n      swap1\n      pop\n        /* \"app/Contracts/Kategori.sol\":1412:1446  jumlahKategori = idKategori.length */\n      swap1\n      pop\n        /* \"app/Contracts/Kategori.sol\":1336:1480  function getCountKategori() public view returns (uint jumlahKategori) {... */\n      swap1\n      jump\t// out\n        /* \"app/Contracts/Kategori.sol\":190:214  uint[] public idKategori */\n    tag_34:\n      0x01\n      dup2\n      dup2\n      sload\n      dup2\n      lt\n      tag_101\n      jumpi\n      0x00\n      dup1\n      revert\n    tag_101:\n      swap1\n      0x00\n      mstore\n      keccak256(0x00, 0x20)\n      add\n      0x00\n      swap2\n      pop\n      swap1\n      pop\n      sload\n      dup2\n      jump\t// out\n        /* \"app/Contracts/Kategori.sol\":1484:1795  function updateKategori(uint _id, string memory _nama) public {... */\n    tag_38:\n        /* \"app/Contracts/Kategori.sol\":1582:1583  0 */\n      0x00\n        /* \"app/Contracts/Kategori.sol\":1566:1571  _nama */\n      dup2\n        /* \"app/Contracts/Kategori.sol\":1560:1579  bytes(_nama).length */\n      mload\n        /* \"app/Contracts/Kategori.sol\":1560:1583  bytes(_nama).length > 0 */\n      gt\n        /* \"app/Contracts/Kategori.sol\":1552:1620  require(bytes(_nama).length > 0, \"Nama Kategori tidak boleh kosong\") */\n      tag_104\n      jumpi\n      mload(0x40)\n      0x08c379a000000000000000000000000000000000000000000000000000000000\n      dup2\n      mstore\n      0x04\n      add\n      tag_105\n      swap1\n      tag_42\n      jump\t// in\n    tag_105:\n      mload(0x40)\n      dup1\n      swap2\n      sub\n      swap1\n      revert\n    tag_104:\n        /* \"app/Contracts/Kategori.sol\":1742:1790  KategoriData({... */\n      mload(0x40)\n      dup1\n      0x20\n      add\n      0x40\n      mstore\n      dup1\n        /* \"app/Contracts/Kategori.sol\":1778:1783  _nama */\n      dup3\n        /* \"app/Contracts/Kategori.sol\":1742:1790  KategoriData({... */\n      dup2\n      mstore\n      pop\n        /* \"app/Contracts/Kategori.sol\":1722:1734  kategoriData */\n      0x00\n        /* \"app/Contracts/Kategori.sol\":1722:1739  kategoriData[_id] */\n      dup1\n        /* \"app/Contracts/Kategori.sol\":1735:1738  _id */\n      dup5\n        /* \"app/Contracts/Kategori.sol\":1722:1739  kategoriData[_id] */\n      dup2\n      mstore\n      0x20\n      add\n      swap1\n      dup2\n      mstore\n      0x20\n      add\n      0x00\n      keccak256\n        /* \"app/Contracts/Kategori.sol\":1722:1790  kategoriData[_id] = KategoriData({... */\n      0x00\n      dup3\n      add\n      mload\n      dup2\n      0x00\n      add\n      swap1\n      dup2\n      tag_106\n      swap2\n      swap1\n      tag_44\n      jump\t// in\n    tag_106:\n      pop\n      swap1\n      pop\n      pop\n        /* \"app/Contracts/Kategori.sol\":1484:1795  function updateKategori(uint _id, string memory _nama) public {... */\n      pop\n      pop\n      jump\t// out\n    tag_80:\n      pop\n      dup1\n      sload\n      tag_107\n      swap1\n      tag_63\n      jump\t// in\n    tag_107:\n      0x00\n      dup3\n      sstore\n      dup1\n      0x1f\n      lt\n      tag_109\n      jumpi\n      pop\n      jump(tag_108)\n    tag_109:\n      0x1f\n      add\n      0x20\n      swap1\n      div\n      swap1\n      0x00\n      mstore\n      keccak256(0x00, 0x20)\n      swap1\n      dup2\n      add\n      swap1\n      tag_110\n      swap2\n      swap1\n      tag_111\n      jump\t// in\n    tag_110:\n    tag_108:\n      pop\n      jump\t// out\n    tag_111:\n    tag_112:\n      dup1\n      dup3\n      gt\n      iszero\n      tag_113\n      jumpi\n      0x00\n      dup2\n      0x00\n      swap1\n      sstore\n      pop\n      0x01\n      add\n      jump(tag_112)\n    tag_113:\n      pop\n      swap1\n      jump\t// out\n        /* \"#utility.yul\":7:82   */\n    tag_114:\n        /* \"#utility.yul\":40:46   */\n      0x00\n        /* \"#utility.yul\":73:75   */\n      0x40\n        /* \"#utility.yul\":67:76   */\n      mload\n        /* \"#utility.yul\":57:76   */\n      swap1\n      pop\n        /* \"#utility.yul\":7:82   */\n      swap1\n      jump\t// out\n        /* \"#utility.yul\":88:205   */\n    tag_115:\n        /* \"#utility.yul\":197:198   */\n      0x00\n        /* \"#utility.yul\":194:195   */\n      dup1\n        /* \"#utility.yul\":187:199   */\n      revert\n        /* \"#utility.yul\":211:328   */\n    tag_116:\n        /* \"#utility.yul\":320:321   */\n      0x00\n        /* \"#utility.yul\":317:318   */\n      dup1\n        /* \"#utility.yul\":310:322   */\n      revert\n        /* \"#utility.yul\":334:411   */\n    tag_117:\n        /* \"#utility.yul\":371:378   */\n      0x00\n        /* \"#utility.yul\":400:405   */\n      dup2\n        /* \"#utility.yul\":389:405   */\n      swap1\n      pop\n        /* \"#utility.yul\":334:411   */\n      swap2\n      swap1\n      pop\n      jump\t// out\n        /* \"#utility.yul\":417:539   */\n    tag_118:\n        /* \"#utility.yul\":490:514   */\n      tag_174\n        /* \"#utility.yul\":508:513   */\n      dup2\n        /* \"#utility.yul\":490:514   */\n      tag_117\n      jump\t// in\n    tag_174:\n        /* \"#utility.yul\":483:488   */\n      dup2\n        /* \"#utility.yul\":480:515   */\n      eq\n        /* \"#utility.yul\":470:533   */\n      tag_175\n      jumpi\n        /* \"#utility.yul\":529:530   */\n      0x00\n        /* \"#utility.yul\":526:527   */\n      dup1\n        /* \"#utility.yul\":519:531   */\n      revert\n        /* \"#utility.yul\":470:533   */\n    tag_175:\n        /* \"#utility.yul\":417:539   */\n      pop\n      jump\t// out\n        /* \"#utility.yul\":545:684   */\n    tag_119:\n        /* \"#utility.yul\":591:596   */\n      0x00\n        /* \"#utility.yul\":629:635   */\n      dup2\n        /* \"#utility.yul\":616:636   */\n      calldataload\n        /* \"#utility.yul\":607:636   */\n      swap1\n      pop\n        /* \"#utility.yul\":645:678   */\n      tag_177\n        /* \"#utility.yul\":672:677   */\n      dup2\n        /* \"#utility.yul\":645:678   */\n      tag_118\n      jump\t// in\n    tag_177:\n        /* \"#utility.yul\":545:684   */\n      swap3\n      swap2\n      pop\n      pop\n      jump\t// out\n        /* \"#utility.yul\":690:807   */\n    tag_120:\n        /* \"#utility.yul\":799:800   */\n      0x00\n        /* \"#utility.yul\":796:797   */\n      dup1\n        /* \"#utility.yul\":789:801   */\n      revert\n        /* \"#utility.yul\":813:930   */\n    tag_121:\n        /* \"#utility.yul\":922:923   */\n      0x00\n        /* \"#utility.yul\":919:920   */\n      dup1\n        /* \"#utility.yul\":912:924   */\n      revert\n        /* \"#utility.yul\":936:1038   */\n    tag_122:\n        /* \"#utility.yul\":977:983   */\n      0x00\n        /* \"#utility.yul\":1028:1030   */\n      0x1f\n        /* \"#utility.yul\":1024:1031   */\n      not\n        /* \"#utility.yul\":1019:1021   */\n      0x1f\n        /* \"#utility.yul\":1012:1017   */\n      dup4\n        /* \"#utility.yul\":1008:1022   */\n      add\n        /* \"#utility.yul\":1004:1032   */\n      and\n        /* \"#utility.yul\":994:1032   */\n      swap1\n      pop\n        /* \"#utility.yul\":936:1038   */\n      swap2\n      swap1\n      pop\n      jump\t// out\n        /* \"#utility.yul\":1044:1224   */\n    tag_49:\n        /* \"#utility.yul\":1092:1169   */\n      0x4e487b7100000000000000000000000000000000000000000000000000000000\n        /* \"#utility.yul\":1089:1090   */\n      0x00\n        /* \"#utility.yul\":1082:1170   */\n      mstore\n        /* \"#utility.yul\":1189:1193   */\n      0x41\n        /* \"#utility.yul\":1186:1187   */\n      0x04\n        /* \"#utility.yul\":1179:1194   */\n      mstore\n        /* \"#utility.yul\":1213:1217   */\n      0x24\n        /* \"#utility.yul\":1210:1211   */\n      0x00\n        /* \"#utility.yul\":1203:1218   */\n      revert\n        /* \"#utility.yul\":1230:1511   */\n    tag_123:\n        /* \"#utility.yul\":1313:1340   */\n      tag_183\n        /* \"#utility.yul\":1335:1339   */\n      dup3\n        /* \"#utility.yul\":1313:1340   */\n      tag_122\n      jump\t// in\n    tag_183:\n        /* \"#utility.yul\":1305:1311   */\n      dup2\n        /* \"#utility.yul\":1301:1341   */\n      add\n        /* \"#utility.yul\":1443:1449   */\n      dup2\n        /* \"#utility.yul\":1431:1441   */\n      dup2\n        /* \"#utility.yul\":1428:1450   */\n      lt\n        /* \"#utility.yul\":1407:1425   */\n      0xffffffffffffffff\n        /* \"#utility.yul\":1395:1405   */\n      dup3\n        /* \"#utility.yul\":1392:1426   */\n      gt\n        /* \"#utility.yul\":1389:1451   */\n      or\n        /* \"#utility.yul\":1386:1474   */\n      iszero\n      tag_184\n      jumpi\n        /* \"#utility.yul\":1454:1472   */\n      tag_185\n      tag_49\n      jump\t// in\n    tag_185:\n        /* \"#utility.yul\":1386:1474   */\n    tag_184:\n        /* \"#utility.yul\":1494:1504   */\n      dup1\n        /* \"#utility.yul\":1490:1492   */\n      0x40\n        /* \"#utility.yul\":1483:1505   */\n      mstore\n        /* \"#utility.yul\":1273:1511   */\n      pop\n        /* \"#utility.yul\":1230:1511   */\n      pop\n      pop\n      jump\t// out\n        /* \"#utility.yul\":1517:1646   */\n    tag_124:\n        /* \"#utility.yul\":1551:1557   */\n      0x00\n        /* \"#utility.yul\":1578:1598   */\n      tag_187\n      tag_114\n      jump\t// in\n    tag_187:\n        /* \"#utility.yul\":1568:1598   */\n      swap1\n      pop\n        /* \"#utility.yul\":1607:1640   */\n      tag_188\n        /* \"#utility.yul\":1635:1639   */\n      dup3\n        /* \"#utility.yul\":1627:1633   */\n      dup3\n        /* \"#utility.yul\":1607:1640   */\n      tag_123\n      jump\t// in\n    tag_188:\n        /* \"#utility.yul\":1517:1646   */\n      swap2\n      swap1\n      pop\n      jump\t// out\n        /* \"#utility.yul\":1652:1960   */\n    tag_125:\n        /* \"#utility.yul\":1714:1718   */\n      0x00\n        /* \"#utility.yul\":1804:1822   */\n      0xffffffffffffffff\n        /* \"#utility.yul\":1796:1802   */\n      dup3\n        /* \"#utility.yul\":1793:1823   */\n      gt\n        /* \"#utility.yul\":1790:1846   */\n      iszero\n      tag_190\n      jumpi\n        /* \"#utility.yul\":1826:1844   */\n      tag_191\n      tag_49\n      jump\t// in\n    tag_191:\n        /* \"#utility.yul\":1790:1846   */\n    tag_190:\n        /* \"#utility.yul\":1864:1893   */\n      tag_192\n        /* \"#utility.yul\":1886:1892   */\n      dup3\n        /* \"#utility.yul\":1864:1893   */\n      tag_122\n      jump\t// in\n    tag_192:\n        /* \"#utility.yul\":1856:1893   */\n      swap1\n      pop\n        /* \"#utility.yul\":1948:1952   */\n      0x20\n        /* \"#utility.yul\":1942:1946   */\n      dup2\n        /* \"#utility.yul\":1938:1953   */\n      add\n        /* \"#utility.yul\":1930:1953   */\n      swap1\n      pop\n        /* \"#utility.yul\":1652:1960   */\n      swap2\n      swap1\n      pop\n      jump\t// out\n        /* \"#utility.yul\":1966:2114   */\n    tag_126:\n        /* \"#utility.yul\":2064:2070   */\n      dup3\n        /* \"#utility.yul\":2059:2062   */\n      dup2\n        /* \"#utility.yul\":2054:2057   */\n      dup4\n        /* \"#utility.yul\":2041:2071   */\n      calldatacopy\n        /* \"#utility.yul\":2105:2106   */\n      0x00\n        /* \"#utility.yul\":2096:2102   */\n      dup4\n        /* \"#utility.yul\":2091:2094   */\n      dup4\n        /* \"#utility.yul\":2087:2103   */\n      add\n        /* \"#utility.yul\":2080:2107   */\n      mstore\n        /* \"#utility.yul\":1966:2114   */\n      pop\n      pop\n      pop\n      jump\t// out\n        /* \"#utility.yul\":2120:2545   */\n    tag_127:\n        /* \"#utility.yul\":2198:2203   */\n      0x00\n        /* \"#utility.yul\":2223:2289   */\n      tag_195\n        /* \"#utility.yul\":2239:2288   */\n      tag_196\n        /* \"#utility.yul\":2281:2287   */\n      dup5\n        /* \"#utility.yul\":2239:2288   */\n      tag_125\n      jump\t// in\n    tag_196:\n        /* \"#utility.yul\":2223:2289   */\n      tag_124\n      jump\t// in\n    tag_195:\n        /* \"#utility.yul\":2214:2289   */\n      swap1\n      pop\n        /* \"#utility.yul\":2312:2318   */\n      dup3\n        /* \"#utility.yul\":2305:2310   */\n      dup2\n        /* \"#utility.yul\":2298:2319   */\n      mstore\n        /* \"#utility.yul\":2350:2354   */\n      0x20\n        /* \"#utility.yul\":2343:2348   */\n      dup2\n        /* \"#utility.yul\":2339:2355   */\n      add\n        /* \"#utility.yul\":2388:2391   */\n      dup5\n        /* \"#utility.yul\":2379:2385   */\n      dup5\n        /* \"#utility.yul\":2374:2377   */\n      dup5\n        /* \"#utility.yul\":2370:2386   */\n      add\n        /* \"#utility.yul\":2367:2392   */\n      gt\n        /* \"#utility.yul\":2364:2476   */\n      iszero\n      tag_197\n      jumpi\n        /* \"#utility.yul\":2395:2474   */\n      tag_198\n      tag_121\n      jump\t// in\n    tag_198:\n        /* \"#utility.yul\":2364:2476   */\n    tag_197:\n        /* \"#utility.yul\":2485:2539   */\n      tag_199\n        /* \"#utility.yul\":2532:2538   */\n      dup5\n        /* \"#utility.yul\":2527:2530   */\n      dup3\n        /* \"#utility.yul\":2522:2525   */\n      dup6\n        /* \"#utility.yul\":2485:2539   */\n      tag_126\n      jump\t// in\n    tag_199:\n        /* \"#utility.yul\":2204:2545   */\n      pop\n        /* \"#utility.yul\":2120:2545   */\n      swap4\n      swap3\n      pop\n      pop\n      pop\n      jump\t// out\n        /* \"#utility.yul\":2565:2905   */\n    tag_128:\n        /* \"#utility.yul\":2621:2626   */\n      0x00\n        /* \"#utility.yul\":2670:2673   */\n      dup3\n        /* \"#utility.yul\":2663:2667   */\n      0x1f\n        /* \"#utility.yul\":2655:2661   */\n      dup4\n        /* \"#utility.yul\":2651:2668   */\n      add\n        /* \"#utility.yul\":2647:2674   */\n      slt\n        /* \"#utility.yul\":2637:2759   */\n      tag_201\n      jumpi\n        /* \"#utility.yul\":2678:2757   */\n      tag_202\n      tag_120\n      jump\t// in\n    tag_202:\n        /* \"#utility.yul\":2637:2759   */\n    tag_201:\n        /* \"#utility.yul\":2795:2801   */\n      dup2\n        /* \"#utility.yul\":2782:2802   */\n      calldataload\n        /* \"#utility.yul\":2820:2899   */\n      tag_203\n        /* \"#utility.yul\":2895:2898   */\n      dup5\n        /* \"#utility.yul\":2887:2893   */\n      dup3\n        /* \"#utility.yul\":2880:2884   */\n      0x20\n        /* \"#utility.yul\":2872:2878   */\n      dup7\n        /* \"#utility.yul\":2868:2885   */\n      add\n        /* \"#utility.yul\":2820:2899   */\n      tag_127\n      jump\t// in\n    tag_203:\n        /* \"#utility.yul\":2811:2899   */\n      swap2\n      pop\n        /* \"#utility.yul\":2627:2905   */\n      pop\n        /* \"#utility.yul\":2565:2905   */\n      swap3\n      swap2\n      pop\n      pop\n      jump\t// out\n        /* \"#utility.yul\":2911:3565   */\n    tag_13:\n        /* \"#utility.yul\":2989:2995   */\n      0x00\n        /* \"#utility.yul\":2997:3003   */\n      dup1\n        /* \"#utility.yul\":3046:3048   */\n      0x40\n        /* \"#utility.yul\":3034:3043   */\n      dup4\n        /* \"#utility.yul\":3025:3032   */\n      dup6\n        /* \"#utility.yul\":3021:3044   */\n      sub\n        /* \"#utility.yul\":3017:3049   */\n      slt\n        /* \"#utility.yul\":3014:3133   */\n      iszero\n      tag_205\n      jumpi\n        /* \"#utility.yul\":3052:3131   */\n      tag_206\n      tag_115\n      jump\t// in\n    tag_206:\n        /* \"#utility.yul\":3014:3133   */\n    tag_205:\n        /* \"#utility.yul\":3172:3173   */\n      0x00\n        /* \"#utility.yul\":3197:3250   */\n      tag_207\n        /* \"#utility.yul\":3242:3249   */\n      dup6\n        /* \"#utility.yul\":3233:3239   */\n      dup3\n        /* \"#utility.yul\":3222:3231   */\n      dup7\n        /* \"#utility.yul\":3218:3240   */\n      add\n        /* \"#utility.yul\":3197:3250   */\n      tag_119\n      jump\t// in\n    tag_207:\n        /* \"#utility.yul\":3187:3250   */\n      swap3\n      pop\n        /* \"#utility.yul\":3143:3260   */\n      pop\n        /* \"#utility.yul\":3327:3329   */\n      0x20\n        /* \"#utility.yul\":3316:3325   */\n      dup4\n        /* \"#utility.yul\":3312:3330   */\n      add\n        /* \"#utility.yul\":3299:3331   */\n      calldataload\n        /* \"#utility.yul\":3358:3376   */\n      0xffffffffffffffff\n        /* \"#utility.yul\":3350:3356   */\n      dup2\n        /* \"#utility.yul\":3347:3377   */\n      gt\n        /* \"#utility.yul\":3344:3461   */\n      iszero\n      tag_208\n      jumpi\n        /* \"#utility.yul\":3380:3459   */\n      tag_209\n      tag_116\n      jump\t// in\n    tag_209:\n        /* \"#utility.yul\":3344:3461   */\n    tag_208:\n        /* \"#utility.yul\":3485:3548   */\n      tag_210\n        /* \"#utility.yul\":3540:3547   */\n      dup6\n        /* \"#utility.yul\":3531:3537   */\n      dup3\n        /* \"#utility.yul\":3520:3529   */\n      dup7\n        /* \"#utility.yul\":3516:3538   */\n      add\n        /* \"#utility.yul\":3485:3548   */\n      tag_128\n      jump\t// in\n    tag_210:\n        /* \"#utility.yul\":3475:3548   */\n      swap2\n      pop\n        /* \"#utility.yul\":3270:3558   */\n      pop\n        /* \"#utility.yul\":2911:3565   */\n      swap3\n      pop\n      swap3\n      swap1\n      pop\n      jump\t// out\n        /* \"#utility.yul\":3571:3685   */\n    tag_129:\n        /* \"#utility.yul\":3638:3644   */\n      0x00\n        /* \"#utility.yul\":3672:3677   */\n      dup2\n        /* \"#utility.yul\":3666:3678   */\n      mload\n        /* \"#utility.yul\":3656:3678   */\n      swap1\n      pop\n        /* \"#utility.yul\":3571:3685   */\n      swap2\n      swap1\n      pop\n      jump\t// out\n        /* \"#utility.yul\":3691:3875   */\n    tag_130:\n        /* \"#utility.yul\":3790:3801   */\n      0x00\n        /* \"#utility.yul\":3824:3830   */\n      dup3\n        /* \"#utility.yul\":3819:3822   */\n      dup3\n        /* \"#utility.yul\":3812:3831   */\n      mstore\n        /* \"#utility.yul\":3864:3868   */\n      0x20\n        /* \"#utility.yul\":3859:3862   */\n      dup3\n        /* \"#utility.yul\":3855:3869   */\n      add\n        /* \"#utility.yul\":3840:3869   */\n      swap1\n      pop\n        /* \"#utility.yul\":3691:3875   */\n      swap3\n      swap2\n      pop\n      pop\n      jump\t// out\n        /* \"#utility.yul\":3881:4013   */\n    tag_131:\n        /* \"#utility.yul\":3948:3952   */\n      0x00\n        /* \"#utility.yul\":3971:3974   */\n      dup2\n        /* \"#utility.yul\":3963:3974   */\n      swap1\n      pop\n        /* \"#utility.yul\":4001:4005   */\n      0x20\n        /* \"#utility.yul\":3996:3999   */\n      dup3\n        /* \"#utility.yul\":3992:4006   */\n      add\n        /* \"#utility.yul\":3984:4006   */\n      swap1\n      pop\n        /* \"#utility.yul\":3881:4013   */\n      swap2\n      swap1\n      pop\n      jump\t// out\n        /* \"#utility.yul\":4019:4127   */\n    tag_132:\n        /* \"#utility.yul\":4096:4120   */\n      tag_215\n        /* \"#utility.yul\":4114:4119   */\n      dup2\n        /* \"#utility.yul\":4096:4120   */\n      tag_117\n      jump\t// in\n    tag_215:\n        /* \"#utility.yul\":4091:4094   */\n      dup3\n        /* \"#utility.yul\":4084:4121   */\n      mstore\n        /* \"#utility.yul\":4019:4127   */\n      pop\n      pop\n      jump\t// out\n        /* \"#utility.yul\":4133:4312   */\n    tag_133:\n        /* \"#utility.yul\":4202:4212   */\n      0x00\n        /* \"#utility.yul\":4223:4269   */\n      tag_217\n        /* \"#utility.yul\":4265:4268   */\n      dup4\n        /* \"#utility.yul\":4257:4263   */\n      dup4\n        /* \"#utility.yul\":4223:4269   */\n      tag_132\n      jump\t// in\n    tag_217:\n        /* \"#utility.yul\":4301:4305   */\n      0x20\n        /* \"#utility.yul\":4296:4299   */\n      dup4\n        /* \"#utility.yul\":4292:4306   */\n      add\n        /* \"#utility.yul\":4278:4306   */\n      swap1\n      pop\n        /* \"#utility.yul\":4133:4312   */\n      swap3\n      swap2\n      pop\n      pop\n      jump\t// out\n        /* \"#utility.yul\":4318:4431   */\n    tag_134:\n        /* \"#utility.yul\":4388:4392   */\n      0x00\n        /* \"#utility.yul\":4420:4424   */\n      0x20\n        /* \"#utility.yul\":4415:4418   */\n      dup3\n        /* \"#utility.yul\":4411:4425   */\n      add\n        /* \"#utility.yul\":4403:4425   */\n      swap1\n      pop\n        /* \"#utility.yul\":4318:4431   */\n      swap2\n      swap1\n      pop\n      jump\t// out\n        /* \"#utility.yul\":4467:5199   */\n    tag_135:\n        /* \"#utility.yul\":4586:4589   */\n      0x00\n        /* \"#utility.yul\":4615:4669   */\n      tag_220\n        /* \"#utility.yul\":4663:4668   */\n      dup3\n        /* \"#utility.yul\":4615:4669   */\n      tag_129\n      jump\t// in\n    tag_220:\n        /* \"#utility.yul\":4685:4771   */\n      tag_221\n        /* \"#utility.yul\":4764:4770   */\n      dup2\n        /* \"#utility.yul\":4759:4762   */\n      dup6\n        /* \"#utility.yul\":4685:4771   */\n      tag_130\n      jump\t// in\n    tag_221:\n        /* \"#utility.yul\":4678:4771   */\n      swap4\n      pop\n        /* \"#utility.yul\":4795:4851   */\n      tag_222\n        /* \"#utility.yul\":4845:4850   */\n      dup4\n        /* \"#utility.yul\":4795:4851   */\n      tag_131\n      jump\t// in\n    tag_222:\n        /* \"#utility.yul\":4874:4881   */\n      dup1\n        /* \"#utility.yul\":4905:4906   */\n      0x00\n        /* \"#utility.yul\":4890:5174   */\n    tag_223:\n        /* \"#utility.yul\":4915:4921   */\n      dup4\n        /* \"#utility.yul\":4912:4913   */\n      dup2\n        /* \"#utility.yul\":4909:4922   */\n      lt\n        /* \"#utility.yul\":4890:5174   */\n      iszero\n      tag_225\n      jumpi\n        /* \"#utility.yul\":4991:4997   */\n      dup2\n        /* \"#utility.yul\":4985:4998   */\n      mload\n        /* \"#utility.yul\":5018:5081   */\n      tag_226\n        /* \"#utility.yul\":5077:5080   */\n      dup9\n        /* \"#utility.yul\":5062:5075   */\n      dup3\n        /* \"#utility.yul\":5018:5081   */\n      tag_133\n      jump\t// in\n    tag_226:\n        /* \"#utility.yul\":5011:5081   */\n      swap8\n      pop\n        /* \"#utility.yul\":5104:5164   */\n      tag_227\n        /* \"#utility.yul\":5157:5163   */\n      dup4\n        /* \"#utility.yul\":5104:5164   */\n      tag_134\n      jump\t// in\n    tag_227:\n        /* \"#utility.yul\":5094:5164   */\n      swap3\n      pop\n        /* \"#utility.yul\":4950:5174   */\n      pop\n        /* \"#utility.yul\":4937:4938   */\n      0x01\n        /* \"#utility.yul\":4934:4935   */\n      dup2\n        /* \"#utility.yul\":4930:4939   */\n      add\n        /* \"#utility.yul\":4925:4939   */\n      swap1\n      pop\n        /* \"#utility.yul\":4890:5174   */\n      jump(tag_223)\n    tag_225:\n        /* \"#utility.yul\":4894:4908   */\n      pop\n        /* \"#utility.yul\":5190:5193   */\n      dup6\n        /* \"#utility.yul\":5183:5193   */\n      swap4\n      pop\n        /* \"#utility.yul\":4591:5199   */\n      pop\n      pop\n      pop\n        /* \"#utility.yul\":4467:5199   */\n      swap3\n      swap2\n      pop\n      pop\n      jump\t// out\n        /* \"#utility.yul\":5205:5329   */\n    tag_136:\n        /* \"#utility.yul\":5282:5288   */\n      0x00\n        /* \"#utility.yul\":5316:5321   */\n      dup2\n        /* \"#utility.yul\":5310:5322   */\n      mload\n        /* \"#utility.yul\":5300:5322   */\n      swap1\n      pop\n        /* \"#utility.yul\":5205:5329   */\n      swap2\n      swap1\n      pop\n      jump\t// out\n        /* \"#utility.yul\":5335:5529   */\n    tag_137:\n        /* \"#utility.yul\":5444:5455   */\n      0x00\n        /* \"#utility.yul\":5478:5484   */\n      dup3\n        /* \"#utility.yul\":5473:5476   */\n      dup3\n        /* \"#utility.yul\":5466:5485   */\n      mstore\n        /* \"#utility.yul\":5518:5522   */\n      0x20\n        /* \"#utility.yul\":5513:5516   */\n      dup3\n        /* \"#utility.yul\":5509:5523   */\n      add\n        /* \"#utility.yul\":5494:5523   */\n      swap1\n      pop\n        /* \"#utility.yul\":5335:5529   */\n      swap3\n      swap2\n      pop\n      pop\n      jump\t// out\n        /* \"#utility.yul\":5535:5677   */\n    tag_138:\n        /* \"#utility.yul\":5612:5616   */\n      0x00\n        /* \"#utility.yul\":5635:5638   */\n      dup2\n        /* \"#utility.yul\":5627:5638   */\n      swap1\n      pop\n        /* \"#utility.yul\":5665:5669   */\n      0x20\n        /* \"#utility.yul\":5660:5663   */\n      dup3\n        /* \"#utility.yul\":5656:5670   */\n      add\n        /* \"#utility.yul\":5648:5670   */\n      swap1\n      pop\n        /* \"#utility.yul\":5535:5677   */\n      swap2\n      swap1\n      pop\n      jump\t// out\n        /* \"#utility.yul\":5683:5782   */\n    tag_139:\n        /* \"#utility.yul\":5735:5741   */\n      0x00\n        /* \"#utility.yul\":5769:5774   */\n      dup2\n        /* \"#utility.yul\":5763:5775   */\n      mload\n        /* \"#utility.yul\":5753:5775   */\n      swap1\n      pop\n        /* \"#utility.yul\":5683:5782   */\n      swap2\n      swap1\n      pop\n      jump\t// out\n        /* \"#utility.yul\":5788:5947   */\n    tag_140:\n        /* \"#utility.yul\":5862:5873   */\n      0x00\n        /* \"#utility.yul\":5896:5902   */\n      dup3\n        /* \"#utility.yul\":5891:5894   */\n      dup3\n        /* \"#utility.yul\":5884:5903   */\n      mstore\n        /* \"#utility.yul\":5936:5940   */\n      0x20\n        /* \"#utility.yul\":5931:5934   */\n      dup3\n        /* \"#utility.yul\":5927:5941   */\n      add\n        /* \"#utility.yul\":5912:5941   */\n      swap1\n      pop\n        /* \"#utility.yul\":5788:5947   */\n      swap3\n      swap2\n      pop\n      pop\n      jump\t// out\n        /* \"#utility.yul\":5953:6201   */\n    tag_141:\n        /* \"#utility.yul\":6035:6036   */\n      0x00\n        /* \"#utility.yul\":6045:6158   */\n    tag_234:\n        /* \"#utility.yul\":6059:6065   */\n      dup4\n        /* \"#utility.yul\":6056:6057   */\n      dup2\n        /* \"#utility.yul\":6053:6066   */\n      lt\n        /* \"#utility.yul\":6045:6158   */\n      iszero\n      tag_236\n      jumpi\n        /* \"#utility.yul\":6144:6145   */\n      dup1\n        /* \"#utility.yul\":6139:6142   */\n      dup3\n        /* \"#utility.yul\":6135:6146   */\n      add\n        /* \"#utility.yul\":6129:6147   */\n      mload\n        /* \"#utility.yul\":6125:6126   */\n      dup2\n        /* \"#utility.yul\":6120:6123   */\n      dup5\n        /* \"#utility.yul\":6116:6127   */\n      add\n        /* \"#utility.yul\":6109:6148   */\n      mstore\n        /* \"#utility.yul\":6081:6083   */\n      0x20\n        /* \"#utility.yul\":6078:6079   */\n      dup2\n        /* \"#utility.yul\":6074:6084   */\n      add\n        /* \"#utility.yul\":6069:6084   */\n      swap1\n      pop\n        /* \"#utility.yul\":6045:6158   */\n      jump(tag_234)\n    tag_236:\n        /* \"#utility.yul\":6192:6193   */\n      0x00\n        /* \"#utility.yul\":6183:6189   */\n      dup5\n        /* \"#utility.yul\":6178:6181   */\n      dup5\n        /* \"#utility.yul\":6174:6190   */\n      add\n        /* \"#utility.yul\":6167:6194   */\n      mstore\n        /* \"#utility.yul\":6015:6201   */\n      pop\n        /* \"#utility.yul\":5953:6201   */\n      pop\n      pop\n      pop\n      jump\t// out\n        /* \"#utility.yul\":6207:6564   */\n    tag_142:\n        /* \"#utility.yul\":6285:6288   */\n      0x00\n        /* \"#utility.yul\":6313:6352   */\n      tag_238\n        /* \"#utility.yul\":6346:6351   */\n      dup3\n        /* \"#utility.yul\":6313:6352   */\n      tag_139\n      jump\t// in\n    tag_238:\n        /* \"#utility.yul\":6368:6429   */\n      tag_239\n        /* \"#utility.yul\":6422:6428   */\n      dup2\n        /* \"#utility.yul\":6417:6420   */\n      dup6\n        /* \"#utility.yul\":6368:6429   */\n      tag_140\n      jump\t// in\n    tag_239:\n        /* \"#utility.yul\":6361:6429   */\n      swap4\n      pop\n        /* \"#utility.yul\":6438:6503   */\n      tag_240\n        /* \"#utility.yul\":6496:6502   */\n      dup2\n        /* \"#utility.yul\":6491:6494   */\n      dup6\n        /* \"#utility.yul\":6484:6488   */\n      0x20\n        /* \"#utility.yul\":6477:6482   */\n      dup7\n        /* \"#utility.yul\":6473:6489   */\n      add\n        /* \"#utility.yul\":6438:6503   */\n      tag_141\n      jump\t// in\n    tag_240:\n        /* \"#utility.yul\":6528:6557   */\n      tag_241\n        /* \"#utility.yul\":6550:6556   */\n      dup2\n        /* \"#utility.yul\":6528:6557   */\n      tag_122\n      jump\t// in\n    tag_241:\n        /* \"#utility.yul\":6523:6526   */\n      dup5\n        /* \"#utility.yul\":6519:6558   */\n      add\n        /* \"#utility.yul\":6512:6558   */\n      swap2\n      pop\n        /* \"#utility.yul\":6289:6564   */\n      pop\n        /* \"#utility.yul\":6207:6564   */\n      swap3\n      swap2\n      pop\n      pop\n      jump\t// out\n        /* \"#utility.yul\":6570:6766   */\n    tag_143:\n        /* \"#utility.yul\":6659:6669   */\n      0x00\n        /* \"#utility.yul\":6694:6760   */\n      tag_243\n        /* \"#utility.yul\":6756:6759   */\n      dup4\n        /* \"#utility.yul\":6748:6754   */\n      dup4\n        /* \"#utility.yul\":6694:6760   */\n      tag_142\n      jump\t// in\n    tag_243:\n        /* \"#utility.yul\":6680:6760   */\n      swap1\n      pop\n        /* \"#utility.yul\":6570:6766   */\n      swap3\n      swap2\n      pop\n      pop\n      jump\t// out\n        /* \"#utility.yul\":6772:6895   */\n    tag_144:\n        /* \"#utility.yul\":6852:6856   */\n      0x00\n        /* \"#utility.yul\":6884:6888   */\n      0x20\n        /* \"#utility.yul\":6879:6882   */\n      dup3\n        /* \"#utility.yul\":6875:6889   */\n      add\n        /* \"#utility.yul\":6867:6889   */\n      swap1\n      pop\n        /* \"#utility.yul\":6772:6895   */\n      swap2\n      swap1\n      pop\n      jump\t// out\n        /* \"#utility.yul\":6929:7920   */\n    tag_145:\n        /* \"#utility.yul\":7068:7071   */\n      0x00\n        /* \"#utility.yul\":7097:7161   */\n      tag_246\n        /* \"#utility.yul\":7155:7160   */\n      dup3\n        /* \"#utility.yul\":7097:7161   */\n      tag_136\n      jump\t// in\n    tag_246:\n        /* \"#utility.yul\":7177:7273   */\n      tag_247\n        /* \"#utility.yul\":7266:7272   */\n      dup2\n        /* \"#utility.yul\":7261:7264   */\n      dup6\n        /* \"#utility.yul\":7177:7273   */\n      tag_137\n      jump\t// in\n    tag_247:\n        /* \"#utility.yul\":7170:7273   */\n      swap4\n      pop\n        /* \"#utility.yul\":7299:7302   */\n      dup4\n        /* \"#utility.yul\":7344:7348   */\n      0x20\n        /* \"#utility.yul\":7336:7342   */\n      dup3\n        /* \"#utility.yul\":7332:7349   */\n      mul\n        /* \"#utility.yul\":7327:7330   */\n      dup6\n        /* \"#utility.yul\":7323:7350   */\n      add\n        /* \"#utility.yul\":7374:7440   */\n      tag_248\n        /* \"#utility.yul\":7434:7439   */\n      dup6\n        /* \"#utility.yul\":7374:7440   */\n      tag_138\n      jump\t// in\n    tag_248:\n        /* \"#utility.yul\":7463:7470   */\n      dup1\n        /* \"#utility.yul\":7494:7495   */\n      0x00\n        /* \"#utility.yul\":7479:7875   */\n    tag_249:\n        /* \"#utility.yul\":7504:7510   */\n      dup6\n        /* \"#utility.yul\":7501:7502   */\n      dup2\n        /* \"#utility.yul\":7498:7511   */\n      lt\n        /* \"#utility.yul\":7479:7875   */\n      iszero\n      tag_251\n      jumpi\n        /* \"#utility.yul\":7575:7584   */\n      dup5\n        /* \"#utility.yul\":7569:7573   */\n      dup5\n        /* \"#utility.yul\":7565:7585   */\n      sub\n        /* \"#utility.yul\":7560:7563   */\n      dup10\n        /* \"#utility.yul\":7553:7586   */\n      mstore\n        /* \"#utility.yul\":7626:7632   */\n      dup2\n        /* \"#utility.yul\":7620:7633   */\n      mload\n        /* \"#utility.yul\":7654:7738   */\n      tag_252\n        /* \"#utility.yul\":7733:7737   */\n      dup6\n        /* \"#utility.yul\":7718:7731   */\n      dup3\n        /* \"#utility.yul\":7654:7738   */\n      tag_143\n      jump\t// in\n    tag_252:\n        /* \"#utility.yul\":7646:7738   */\n      swap5\n      pop\n        /* \"#utility.yul\":7761:7831   */\n      tag_253\n        /* \"#utility.yul\":7824:7830   */\n      dup4\n        /* \"#utility.yul\":7761:7831   */\n      tag_144\n      jump\t// in\n    tag_253:\n        /* \"#utility.yul\":7751:7831   */\n      swap3\n      pop\n        /* \"#utility.yul\":7860:7864   */\n      0x20\n        /* \"#utility.yul\":7855:7858   */\n      dup11\n        /* \"#utility.yul\":7851:7865   */\n      add\n        /* \"#utility.yul\":7844:7865   */\n      swap10\n      pop\n        /* \"#utility.yul\":7539:7875   */\n      pop\n        /* \"#utility.yul\":7526:7527   */\n      0x01\n        /* \"#utility.yul\":7523:7524   */\n      dup2\n        /* \"#utility.yul\":7519:7528   */\n      add\n        /* \"#utility.yul\":7514:7528   */\n      swap1\n      pop\n        /* \"#utility.yul\":7479:7875   */\n      jump(tag_249)\n    tag_251:\n        /* \"#utility.yul\":7483:7497   */\n      pop\n        /* \"#utility.yul\":7891:7895   */\n      dup3\n        /* \"#utility.yul\":7884:7895   */\n      swap8\n      pop\n        /* \"#utility.yul\":7911:7914   */\n      dup8\n        /* \"#utility.yul\":7904:7914   */\n      swap6\n      pop\n        /* \"#utility.yul\":7073:7920   */\n      pop\n      pop\n      pop\n      pop\n      pop\n        /* \"#utility.yul\":6929:7920   */\n      swap3\n      swap2\n      pop\n      pop\n      jump\t// out\n        /* \"#utility.yul\":7926:8600   */\n    tag_18:\n        /* \"#utility.yul\":8167:8171   */\n      0x00\n        /* \"#utility.yul\":8205:8207   */\n      0x40\n        /* \"#utility.yul\":8194:8203   */\n      dup3\n        /* \"#utility.yul\":8190:8208   */\n      add\n        /* \"#utility.yul\":8182:8208   */\n      swap1\n      pop\n        /* \"#utility.yul\":8254:8263   */\n      dup2\n        /* \"#utility.yul\":8248:8252   */\n      dup2\n        /* \"#utility.yul\":8244:8264   */\n      sub\n        /* \"#utility.yul\":8240:8241   */\n      0x00\n        /* \"#utility.yul\":8229:8238   */\n      dup4\n        /* \"#utility.yul\":8225:8242   */\n      add\n        /* \"#utility.yul\":8218:8265   */\n      mstore\n        /* \"#utility.yul\":8282:8390   */\n      tag_255\n        /* \"#utility.yul\":8385:8389   */\n      dup2\n        /* \"#utility.yul\":8376:8382   */\n      dup6\n        /* \"#utility.yul\":8282:8390   */\n      tag_135\n      jump\t// in\n    tag_255:\n        /* \"#utility.yul\":8274:8390   */\n      swap1\n      pop\n        /* \"#utility.yul\":8437:8446   */\n      dup2\n        /* \"#utility.yul\":8431:8435   */\n      dup2\n        /* \"#utility.yul\":8427:8447   */\n      sub\n        /* \"#utility.yul\":8422:8424   */\n      0x20\n        /* \"#utility.yul\":8411:8420   */\n      dup4\n        /* \"#utility.yul\":8407:8425   */\n      add\n        /* \"#utility.yul\":8400:8448   */\n      mstore\n        /* \"#utility.yul\":8465:8593   */\n      tag_256\n        /* \"#utility.yul\":8588:8592   */\n      dup2\n        /* \"#utility.yul\":8579:8585   */\n      dup5\n        /* \"#utility.yul\":8465:8593   */\n      tag_145\n      jump\t// in\n    tag_256:\n        /* \"#utility.yul\":8457:8593   */\n      swap1\n      pop\n        /* \"#utility.yul\":7926:8600   */\n      swap4\n      swap3\n      pop\n      pop\n      pop\n      jump\t// out\n        /* \"#utility.yul\":8606:8935   */\n    tag_21:\n        /* \"#utility.yul\":8665:8671   */\n      0x00\n        /* \"#utility.yul\":8714:8716   */\n      0x20\n        /* \"#utility.yul\":8702:8711   */\n      dup3\n        /* \"#utility.yul\":8693:8700   */\n      dup5\n        /* \"#utility.yul\":8689:8712   */\n      sub\n        /* \"#utility.yul\":8685:8717   */\n      slt\n        /* \"#utility.yul\":8682:8801   */\n      iszero\n      tag_258\n      jumpi\n        /* \"#utility.yul\":8720:8799   */\n      tag_259\n      tag_115\n      jump\t// in\n    tag_259:\n        /* \"#utility.yul\":8682:8801   */\n    tag_258:\n        /* \"#utility.yul\":8840:8841   */\n      0x00\n        /* \"#utility.yul\":8865:8918   */\n      tag_260\n        /* \"#utility.yul\":8910:8917   */\n      dup5\n        /* \"#utility.yul\":8901:8907   */\n      dup3\n        /* \"#utility.yul\":8890:8899   */\n      dup6\n        /* \"#utility.yul\":8886:8908   */\n      add\n        /* \"#utility.yul\":8865:8918   */\n      tag_119\n      jump\t// in\n    tag_260:\n        /* \"#utility.yul\":8855:8918   */\n      swap2\n      pop\n        /* \"#utility.yul\":8811:8928   */\n      pop\n        /* \"#utility.yul\":8606:8935   */\n      swap3\n      swap2\n      pop\n      pop\n      jump\t// out\n        /* \"#utility.yul\":8941:9110   */\n    tag_146:\n        /* \"#utility.yul\":9025:9036   */\n      0x00\n        /* \"#utility.yul\":9059:9065   */\n      dup3\n        /* \"#utility.yul\":9054:9057   */\n      dup3\n        /* \"#utility.yul\":9047:9066   */\n      mstore\n        /* \"#utility.yul\":9099:9103   */\n      0x20\n        /* \"#utility.yul\":9094:9097   */\n      dup3\n        /* \"#utility.yul\":9090:9104   */\n      add\n        /* \"#utility.yul\":9075:9104   */\n      swap1\n      pop\n        /* \"#utility.yul\":8941:9110   */\n      swap3\n      swap2\n      pop\n      pop\n      jump\t// out\n        /* \"#utility.yul\":9116:9493   */\n    tag_147:\n        /* \"#utility.yul\":9204:9207   */\n      0x00\n        /* \"#utility.yul\":9232:9271   */\n      tag_263\n        /* \"#utility.yul\":9265:9270   */\n      dup3\n        /* \"#utility.yul\":9232:9271   */\n      tag_139\n      jump\t// in\n    tag_263:\n        /* \"#utility.yul\":9287:9358   */\n      tag_264\n        /* \"#utility.yul\":9351:9357   */\n      dup2\n        /* \"#utility.yul\":9346:9349   */\n      dup6\n        /* \"#utility.yul\":9287:9358   */\n      tag_146\n      jump\t// in\n    tag_264:\n        /* \"#utility.yul\":9280:9358   */\n      swap4\n      pop\n        /* \"#utility.yul\":9367:9432   */\n      tag_265\n        /* \"#utility.yul\":9425:9431   */\n      dup2\n        /* \"#utility.yul\":9420:9423   */\n      dup6\n        /* \"#utility.yul\":9413:9417   */\n      0x20\n        /* \"#utility.yul\":9406:9411   */\n      dup7\n        /* \"#utility.yul\":9402:9418   */\n      add\n        /* \"#utility.yul\":9367:9432   */\n      tag_141\n      jump\t// in\n    tag_265:\n        /* \"#utility.yul\":9457:9486   */\n      tag_266\n        /* \"#utility.yul\":9479:9485   */\n      dup2\n        /* \"#utility.yul\":9457:9486   */\n      tag_122\n      jump\t// in\n    tag_266:\n        /* \"#utility.yul\":9452:9455   */\n      dup5\n        /* \"#utility.yul\":9448:9487   */\n      add\n        /* \"#utility.yul\":9441:9487   */\n      swap2\n      pop\n        /* \"#utility.yul\":9208:9493   */\n      pop\n        /* \"#utility.yul\":9116:9493   */\n      swap3\n      swap2\n      pop\n      pop\n      jump\t// out\n        /* \"#utility.yul\":9499:9812   */\n    tag_24:\n        /* \"#utility.yul\":9612:9616   */\n      0x00\n        /* \"#utility.yul\":9650:9652   */\n      0x20\n        /* \"#utility.yul\":9639:9648   */\n      dup3\n        /* \"#utility.yul\":9635:9653   */\n      add\n        /* \"#utility.yul\":9627:9653   */\n      swap1\n      pop\n        /* \"#utility.yul\":9699:9708   */\n      dup2\n        /* \"#utility.yul\":9693:9697   */\n      dup2\n        /* \"#utility.yul\":9689:9709   */\n      sub\n        /* \"#utility.yul\":9685:9686   */\n      0x00\n        /* \"#utility.yul\":9674:9683   */\n      dup4\n        /* \"#utility.yul\":9670:9687   */\n      add\n        /* \"#utility.yul\":9663:9710   */\n      mstore\n        /* \"#utility.yul\":9727:9805   */\n      tag_268\n        /* \"#utility.yul\":9800:9804   */\n      dup2\n        /* \"#utility.yul\":9791:9797   */\n      dup5\n        /* \"#utility.yul\":9727:9805   */\n      tag_147\n      jump\t// in\n    tag_268:\n        /* \"#utility.yul\":9719:9805   */\n      swap1\n      pop\n        /* \"#utility.yul\":9499:9812   */\n      swap3\n      swap2\n      pop\n      pop\n      jump\t// out\n        /* \"#utility.yul\":9818:9936   */\n    tag_148:\n        /* \"#utility.yul\":9905:9929   */\n      tag_270\n        /* \"#utility.yul\":9923:9928   */\n      dup2\n        /* \"#utility.yul\":9905:9929   */\n      tag_117\n      jump\t// in\n    tag_270:\n        /* \"#utility.yul\":9900:9903   */\n      dup3\n        /* \"#utility.yul\":9893:9930   */\n      mstore\n        /* \"#utility.yul\":9818:9936   */\n      pop\n      pop\n      jump\t// out\n        /* \"#utility.yul\":9942:10164   */\n    tag_31:\n        /* \"#utility.yul\":10035:10039   */\n      0x00\n        /* \"#utility.yul\":10073:10075   */\n      0x20\n        /* \"#utility.yul\":10062:10071   */\n      dup3\n        /* \"#utility.yul\":10058:10076   */\n      add\n        /* \"#utility.yul\":10050:10076   */\n      swap1\n      pop\n        /* \"#utility.yul\":10086:10157   */\n      tag_272\n        /* \"#utility.yul\":10154:10155   */\n      0x00\n        /* \"#utility.yul\":10143:10152   */\n      dup4\n        /* \"#utility.yul\":10139:10156   */\n      add\n        /* \"#utility.yul\":10130:10136   */\n      dup5\n        /* \"#utility.yul\":10086:10157   */\n      tag_148\n      jump\t// in\n    tag_272:\n        /* \"#utility.yul\":9942:10164   */\n      swap3\n      swap2\n      pop\n      pop\n      jump\t// out\n        /* \"#utility.yul\":10170:10352   */\n    tag_149:\n        /* \"#utility.yul\":10310:10344   */\n      0x4e616d61204b617465676f726920746964616b20626f6c6568206b6f736f6e67\n        /* \"#utility.yul\":10306:10307   */\n      0x00\n        /* \"#utility.yul\":10298:10304   */\n      dup3\n        /* \"#utility.yul\":10294:10308   */\n      add\n        /* \"#utility.yul\":10287:10345   */\n      mstore\n        /* \"#utility.yul\":10170:10352   */\n      pop\n      jump\t// out\n        /* \"#utility.yul\":10358:10724   */\n    tag_150:\n        /* \"#utility.yul\":10500:10503   */\n      0x00\n        /* \"#utility.yul\":10521:10588   */\n      tag_275\n        /* \"#utility.yul\":10585:10587   */\n      0x20\n        /* \"#utility.yul\":10580:10583   */\n      dup4\n        /* \"#utility.yul\":10521:10588   */\n      tag_146\n      jump\t// in\n    tag_275:\n        /* \"#utility.yul\":10514:10588   */\n      swap2\n      pop\n        /* \"#utility.yul\":10597:10690   */\n      tag_276\n        /* \"#utility.yul\":10686:10689   */\n      dup3\n        /* \"#utility.yul\":10597:10690   */\n      tag_149\n      jump\t// in\n    tag_276:\n        /* \"#utility.yul\":10715:10717   */\n      0x20\n        /* \"#utility.yul\":10710:10713   */\n      dup3\n        /* \"#utility.yul\":10706:10718   */\n      add\n        /* \"#utility.yul\":10699:10718   */\n      swap1\n      pop\n        /* \"#utility.yul\":10358:10724   */\n      swap2\n      swap1\n      pop\n      jump\t// out\n        /* \"#utility.yul\":10730:11149   */\n    tag_42:\n        /* \"#utility.yul\":10896:10900   */\n      0x00\n        /* \"#utility.yul\":10934:10936   */\n      0x20\n        /* \"#utility.yul\":10923:10932   */\n      dup3\n        /* \"#utility.yul\":10919:10937   */\n      add\n        /* \"#utility.yul\":10911:10937   */\n      swap1\n      pop\n        /* \"#utility.yul\":10983:10992   */\n      dup2\n        /* \"#utility.yul\":10977:10981   */\n      dup2\n        /* \"#utility.yul\":10973:10993   */\n      sub\n        /* \"#utility.yul\":10969:10970   */\n      0x00\n        /* \"#utility.yul\":10958:10967   */\n      dup4\n        /* \"#utility.yul\":10954:10971   */\n      add\n        /* \"#utility.yul\":10947:10994   */\n      mstore\n        /* \"#utility.yul\":11011:11142   */\n      tag_278\n        /* \"#utility.yul\":11137:11141   */\n      dup2\n        /* \"#utility.yul\":11011:11142   */\n      tag_150\n      jump\t// in\n    tag_278:\n        /* \"#utility.yul\":11003:11142   */\n      swap1\n      pop\n        /* \"#utility.yul\":10730:11149   */\n      swap2\n      swap1\n      pop\n      jump\t// out\n        /* \"#utility.yul\":11155:11335   */\n    tag_151:\n        /* \"#utility.yul\":11203:11280   */\n      0x4e487b7100000000000000000000000000000000000000000000000000000000\n        /* \"#utility.yul\":11200:11201   */\n      0x00\n        /* \"#utility.yul\":11193:11281   */\n      mstore\n        /* \"#utility.yul\":11300:11304   */\n      0x22\n        /* \"#utility.yul\":11297:11298   */\n      0x04\n        /* \"#utility.yul\":11290:11305   */\n      mstore\n        /* \"#utility.yul\":11324:11328   */\n      0x24\n        /* \"#utility.yul\":11321:11322   */\n      0x00\n        /* \"#utility.yul\":11314:11329   */\n      revert\n        /* \"#utility.yul\":11341:11661   */\n    tag_63:\n        /* \"#utility.yul\":11385:11391   */\n      0x00\n        /* \"#utility.yul\":11422:11423   */\n      0x02\n        /* \"#utility.yul\":11416:11420   */\n      dup3\n        /* \"#utility.yul\":11412:11424   */\n      div\n        /* \"#utility.yul\":11402:11424   */\n      swap1\n      pop\n        /* \"#utility.yul\":11469:11470   */\n      0x01\n        /* \"#utility.yul\":11463:11467   */\n      dup3\n        /* \"#utility.yul\":11459:11471   */\n      and\n        /* \"#utility.yul\":11490:11508   */\n      dup1\n        /* \"#utility.yul\":11480:11561   */\n      tag_281\n      jumpi\n        /* \"#utility.yul\":11546:11550   */\n      0x7f\n        /* \"#utility.yul\":11538:11544   */\n      dup3\n        /* \"#utility.yul\":11534:11551   */\n      and\n        /* \"#utility.yul\":11524:11551   */\n      swap2\n      pop\n        /* \"#utility.yul\":11480:11561   */\n    tag_281:\n        /* \"#utility.yul\":11608:11610   */\n      0x20\n        /* \"#utility.yul\":11600:11606   */\n      dup3\n        /* \"#utility.yul\":11597:11611   */\n      lt\n        /* \"#utility.yul\":11577:11595   */\n      dup2\n        /* \"#utility.yul\":11574:11612   */\n      sub\n        /* \"#utility.yul\":11571:11655   */\n      tag_282\n      jumpi\n        /* \"#utility.yul\":11627:11645   */\n      tag_283\n      tag_151\n      jump\t// in\n    tag_283:\n        /* \"#utility.yul\":11571:11655   */\n    tag_282:\n        /* \"#utility.yul\":11392:11661   */\n      pop\n        /* \"#utility.yul\":11341:11661   */\n      swap2\n      swap1\n      pop\n      jump\t// out\n        /* \"#utility.yul\":11667:11808   */\n    tag_152:\n        /* \"#utility.yul\":11716:11720   */\n      0x00\n        /* \"#utility.yul\":11739:11742   */\n      dup2\n        /* \"#utility.yul\":11731:11742   */\n      swap1\n      pop\n        /* \"#utility.yul\":11762:11765   */\n      dup2\n        /* \"#utility.yul\":11759:11760   */\n      0x00\n        /* \"#utility.yul\":11752:11766   */\n      mstore\n        /* \"#utility.yul\":11796:11800   */\n      0x20\n        /* \"#utility.yul\":11793:11794   */\n      0x00\n        /* \"#utility.yul\":11783:11801   */\n      keccak256\n        /* \"#utility.yul\":11775:11801   */\n      swap1\n      pop\n        /* \"#utility.yul\":11667:11808   */\n      swap2\n      swap1\n      pop\n      jump\t// out\n        /* \"#utility.yul\":11814:11907   */\n    tag_153:\n        /* \"#utility.yul\":11851:11857   */\n      0x00\n        /* \"#utility.yul\":11898:11900   */\n      0x20\n        /* \"#utility.yul\":11893:11895   */\n      0x1f\n        /* \"#utility.yul\":11886:11891   */\n      dup4\n        /* \"#utility.yul\":11882:11896   */\n      add\n        /* \"#utility.yul\":11878:11901   */\n      div\n        /* \"#utility.yul\":11868:11901   */\n      swap1\n      pop\n        /* \"#utility.yul\":11814:11907   */\n      swap2\n      swap1\n      pop\n      jump\t// out\n        /* \"#utility.yul\":11913:12020   */\n    tag_154:\n        /* \"#utility.yul\":11957:11965   */\n      0x00\n        /* \"#utility.yul\":12007:12012   */\n      dup3\n        /* \"#utility.yul\":12001:12005   */\n      dup3\n        /* \"#utility.yul\":11997:12013   */\n      shl\n        /* \"#utility.yul\":11976:12013   */\n      swap1\n      pop\n        /* \"#utility.yul\":11913:12020   */\n      swap3\n      swap2\n      pop\n      pop\n      jump\t// out\n        /* \"#utility.yul\":12026:12419   */\n    tag_155:\n        /* \"#utility.yul\":12095:12101   */\n      0x00\n        /* \"#utility.yul\":12145:12146   */\n      0x08\n        /* \"#utility.yul\":12133:12143   */\n      dup4\n        /* \"#utility.yul\":12129:12147   */\n      mul\n        /* \"#utility.yul\":12168:12265   */\n      tag_288\n        /* \"#utility.yul\":12198:12264   */\n      0xffffffffffffffffffffffffffffffffffffffffffffffffffffffffffffffff\n        /* \"#utility.yul\":12187:12196   */\n      dup3\n        /* \"#utility.yul\":12168:12265   */\n      tag_154\n      jump\t// in\n    tag_288:\n        /* \"#utility.yul\":12286:12325   */\n      tag_289\n        /* \"#utility.yul\":12316:12324   */\n      dup7\n        /* \"#utility.yul\":12305:12314   */\n      dup4\n        /* \"#utility.yul\":12286:12325   */\n      tag_154\n      jump\t// in\n    tag_289:\n        /* \"#utility.yul\":12274:12325   */\n      swap6\n      pop\n        /* \"#utility.yul\":12358:12362   */\n      dup1\n        /* \"#utility.yul\":12354:12363   */\n      not\n        /* \"#utility.yul\":12347:12352   */\n      dup5\n        /* \"#utility.yul\":12343:12364   */\n      and\n        /* \"#utility.yul\":12334:12364   */\n      swap4\n      pop\n        /* \"#utility.yul\":12407:12411   */\n      dup1\n        /* \"#utility.yul\":12397:12405   */\n      dup7\n        /* \"#utility.yul\":12393:12412   */\n      and\n        /* \"#utility.yul\":12386:12391   */\n      dup5\n        /* \"#utility.yul\":12383:12413   */\n      or\n        /* \"#utility.yul\":12373:12413   */\n      swap3\n      pop\n        /* \"#utility.yul\":12102:12419   */\n      pop\n      pop\n        /* \"#utility.yul\":12026:12419   */\n      swap4\n      swap3\n      pop\n      pop\n      pop\n      jump\t// out\n        /* \"#utility.yul\":12425:12485   */\n    tag_156:\n        /* \"#utility.yul\":12453:12456   */\n      0x00\n        /* \"#utility.yul\":12474:12479   */\n      dup2\n        /* \"#utility.yul\":12467:12479   */\n      swap1\n      pop\n        /* \"#utility.yul\":12425:12485   */\n      swap2\n      swap1\n      pop\n      jump\t// out\n        /* \"#utility.yul\":12491:12633   */\n    tag_157:\n        /* \"#utility.yul\":12541:12550   */\n      0x00\n        /* \"#utility.yul\":12574:12627   */\n      tag_292\n        /* \"#utility.yul\":12592:12626   */\n      tag_293\n        /* \"#utility.yul\":12601:12625   */\n      tag_294\n        /* \"#utility.yul\":12619:12624   */\n      dup5\n        /* \"#utility.yul\":12601:12625   */\n      tag_117\n      jump\t// in\n    tag_294:\n        /* \"#utility.yul\":12592:12626   */\n      tag_156\n      jump\t// in\n    tag_293:\n        /* \"#utility.yul\":12574:12627   */\n      tag_117\n      jump\t// in\n    tag_292:\n        /* \"#utility.yul\":12561:12627   */\n      swap1\n      pop\n        /* \"#utility.yul\":12491:12633   */\n      swap2\n      swap1\n      pop\n      jump\t// out\n        /* \"#utility.yul\":12639:12714   */\n    tag_158:\n        /* \"#utility.yul\":12682:12685   */\n      0x00\n        /* \"#utility.yul\":12703:12708   */\n      dup2\n        /* \"#utility.yul\":12696:12708   */\n      swap1\n      pop\n        /* \"#utility.yul\":12639:12714   */\n      swap2\n      swap1\n      pop\n      jump\t// out\n        /* \"#utility.yul\":12720:12989   */\n    tag_159:\n        /* \"#utility.yul\":12830:12869   */\n      tag_297\n        /* \"#utility.yul\":12861:12868   */\n      dup4\n        /* \"#utility.yul\":12830:12869   */\n      tag_157\n      jump\t// in\n    tag_297:\n        /* \"#utility.yul\":12891:12982   */\n      tag_298\n        /* \"#utility.yul\":12940:12981   */\n      tag_299\n        /* \"#utility.yul\":12964:12980   */\n      dup3\n        /* \"#utility.yul\":12940:12981   */\n      tag_158\n      jump\t// in\n    tag_299:\n        /* \"#utility.yul\":12932:12938   */\n      dup5\n        /* \"#utility.yul\":12925:12929   */\n      dup5\n        /* \"#utility.yul\":12919:12930   */\n      sload\n        /* \"#utility.yul\":12891:12982   */\n      tag_155\n      jump\t// in\n    tag_298:\n        /* \"#utility.yul\":12885:12889   */\n      dup3\n        /* \"#utility.yul\":12878:12983   */\n      sstore\n        /* \"#utility.yul\":12796:12989   */\n      pop\n        /* \"#utility.yul\":12720:12989   */\n      pop\n      pop\n      pop\n      jump\t// out\n        /* \"#utility.yul\":12995:13068   */\n    tag_160:\n        /* \"#utility.yul\":13040:13043   */\n      0x00\n        /* \"#utility.yul\":12995:13068   */\n      swap1\n      jump\t// out\n        /* \"#utility.yul\":13074:13263   */\n    tag_161:\n        /* \"#utility.yul\":13151:13183   */\n      tag_302\n      tag_160\n      jump\t// in\n    tag_302:\n        /* \"#utility.yul\":13192:13257   */\n      tag_303\n        /* \"#utility.yul\":13250:13256   */\n      dup2\n        /* \"#utility.yul\":13242:13248   */\n      dup5\n        /* \"#utility.yul\":13236:13240   */\n      dup5\n        /* \"#utility.yul\":13192:13257   */\n      tag_159\n      jump\t// in\n    tag_303:\n        /* \"#utility.yul\":13127:13263   */\n      pop\n        /* \"#utility.yul\":13074:13263   */\n      pop\n      pop\n      jump\t// out\n        /* \"#utility.yul\":13269:13455   */\n    tag_162:\n        /* \"#utility.yul\":13329:13449   */\n    tag_305:\n        /* \"#utility.yul\":13346:13349   */\n      dup2\n        /* \"#utility.yul\":13339:13344   */\n      dup2\n        /* \"#utility.yul\":13336:13350   */\n      lt\n        /* \"#utility.yul\":13329:13449   */\n      iszero\n      tag_307\n      jumpi\n        /* \"#utility.yul\":13400:13439   */\n      tag_308\n        /* \"#utility.yul\":13437:13438   */\n      0x00\n        /* \"#utility.yul\":13430:13435   */\n      dup3\n        /* \"#utility.yul\":13400:13439   */\n      tag_161\n      jump\t// in\n    tag_308:\n        /* \"#utility.yul\":13373:13374   */\n      0x01\n        /* \"#utility.yul\":13366:13371   */\n      dup2\n        /* \"#utility.yul\":13362:13375   */\n      add\n        /* \"#utility.yul\":13353:13375   */\n      swap1\n      pop\n        /* \"#utility.yul\":13329:13449   */\n      jump(tag_305)\n    tag_307:\n        /* \"#utility.yul\":13269:13455   */\n      pop\n      pop\n      jump\t// out\n        /* \"#utility.yul\":13461:14004   */\n    tag_163:\n        /* \"#utility.yul\":13562:13564   */\n      0x1f\n        /* \"#utility.yul\":13557:13560   */\n      dup3\n        /* \"#utility.yul\":13554:13565   */\n      gt\n        /* \"#utility.yul\":13551:13997   */\n      iszero\n      tag_310\n      jumpi\n        /* \"#utility.yul\":13596:13634   */\n      tag_311\n        /* \"#utility.yul\":13628:13633   */\n      dup2\n        /* \"#utility.yul\":13596:13634   */\n      tag_152\n      jump\t// in\n    tag_311:\n        /* \"#utility.yul\":13680:13709   */\n      tag_312\n        /* \"#utility.yul\":13698:13708   */\n      dup5\n        /* \"#utility.yul\":13680:13709   */\n      tag_153\n      jump\t// in\n    tag_312:\n        /* \"#utility.yul\":13670:13678   */\n      dup2\n        /* \"#utility.yul\":13666:13710   */\n      add\n        /* \"#utility.yul\":13863:13865   */\n      0x20\n        /* \"#utility.yul\":13851:13861   */\n      dup6\n        /* \"#utility.yul\":13848:13866   */\n      lt\n        /* \"#utility.yul\":13845:13894   */\n      iszero\n      tag_313\n      jumpi\n        /* \"#utility.yul\":13884:13892   */\n      dup2\n        /* \"#utility.yul\":13869:13892   */\n      swap1\n      pop\n        /* \"#utility.yul\":13845:13894   */\n    tag_313:\n        /* \"#utility.yul\":13907:13987   */\n      tag_314\n        /* \"#utility.yul\":13963:13985   */\n      tag_315\n        /* \"#utility.yul\":13981:13984   */\n      dup6\n        /* \"#utility.yul\":13963:13985   */\n      tag_153\n      jump\t// in\n    tag_315:\n        /* \"#utility.yul\":13953:13961   */\n      dup4\n        /* \"#utility.yul\":13949:13986   */\n      add\n        /* \"#utility.yul\":13936:13947   */\n      dup3\n        /* \"#utility.yul\":13907:13987   */\n      tag_162\n      jump\t// in\n    tag_314:\n        /* \"#utility.yul\":13566:13997   */\n      pop\n      pop\n        /* \"#utility.yul\":13551:13997   */\n    tag_310:\n        /* \"#utility.yul\":13461:14004   */\n      pop\n      pop\n      pop\n      jump\t// out\n        /* \"#utility.yul\":14010:14127   */\n    tag_164:\n        /* \"#utility.yul\":14064:14072   */\n      0x00\n        /* \"#utility.yul\":14114:14119   */\n      dup3\n        /* \"#utility.yul\":14108:14112   */\n      dup3\n        /* \"#utility.yul\":14104:14120   */\n      shr\n        /* \"#utility.yul\":14083:14120   */\n      swap1\n      pop\n        /* \"#utility.yul\":14010:14127   */\n      swap3\n      swap2\n      pop\n      pop\n      jump\t// out\n        /* \"#utility.yul\":14133:14302   */\n    tag_165:\n        /* \"#utility.yul\":14177:14183   */\n      0x00\n        /* \"#utility.yul\":14210:14261   */\n      tag_318\n        /* \"#utility.yul\":14258:14259   */\n      0x00\n        /* \"#utility.yul\":14254:14260   */\n      not\n        /* \"#utility.yul\":14246:14251   */\n      dup5\n        /* \"#utility.yul\":14243:14244   */\n      0x08\n        /* \"#utility.yul\":14239:14252   */\n      mul\n        /* \"#utility.yul\":14210:14261   */\n      tag_164\n      jump\t// in\n    tag_318:\n        /* \"#utility.yul\":14206:14262   */\n      not\n        /* \"#utility.yul\":14291:14295   */\n      dup1\n        /* \"#utility.yul\":14285:14289   */\n      dup4\n        /* \"#utility.yul\":14281:14296   */\n      and\n        /* \"#utility.yul\":14271:14296   */\n      swap2\n      pop\n        /* \"#utility.yul\":14184:14302   */\n      pop\n        /* \"#utility.yul\":14133:14302   */\n      swap3\n      swap2\n      pop\n      pop\n      jump\t// out\n        /* \"#utility.yul\":14307:14602   */\n    tag_166:\n        /* \"#utility.yul\":14383:14387   */\n      0x00\n        /* \"#utility.yul\":14529:14558   */\n      tag_320\n        /* \"#utility.yul\":14554:14557   */\n      dup4\n        /* \"#utility.yul\":14548:14552   */\n      dup4\n        /* \"#utility.yul\":14529:14558   */\n      tag_165\n      jump\t// in\n    tag_320:\n        /* \"#utility.yul\":14521:14558   */\n      swap2\n      pop\n        /* \"#utility.yul\":14591:14594   */\n      dup3\n        /* \"#utility.yul\":14588:14589   */\n      0x02\n        /* \"#utility.yul\":14584:14595   */\n      mul\n        /* \"#utility.yul\":14578:14582   */\n      dup3\n        /* \"#utility.yul\":14575:14596   */\n      or\n        /* \"#utility.yul\":14567:14596   */\n      swap1\n      pop\n        /* \"#utility.yul\":14307:14602   */\n      swap3\n      swap2\n      pop\n      pop\n      jump\t// out\n        /* \"#utility.yul\":14607:16002   */\n    tag_44:\n        /* \"#utility.yul\":14724:14761   */\n      tag_322\n        /* \"#utility.yul\":14757:14760   */\n      dup3\n        /* \"#utility.yul\":14724:14761   */\n      tag_139\n      jump\t// in\n    tag_322:\n        /* \"#utility.yul\":14826:14844   */\n      0xffffffffffffffff\n        /* \"#utility.yul\":14818:14824   */\n      dup2\n        /* \"#utility.yul\":14815:14845   */\n      gt\n        /* \"#utility.yul\":14812:14868   */\n      iszero\n      tag_323\n      jumpi\n        /* \"#utility.yul\":14848:14866   */\n      tag_324\n      tag_49\n      jump\t// in\n    tag_324:\n        /* \"#utility.yul\":14812:14868   */\n    tag_323:\n        /* \"#utility.yul\":14892:14930   */\n      tag_325\n        /* \"#utility.yul\":14924:14928   */\n      dup3\n        /* \"#utility.yul\":14918:14929   */\n      sload\n        /* \"#utility.yul\":14892:14930   */\n      tag_63\n      jump\t// in\n    tag_325:\n        /* \"#utility.yul\":14977:15044   */\n      tag_326\n        /* \"#utility.yul\":15037:15043   */\n      dup3\n        /* \"#utility.yul\":15029:15035   */\n      dup3\n        /* \"#utility.yul\":15023:15027   */\n      dup6\n        /* \"#utility.yul\":14977:15044   */\n      tag_163\n      jump\t// in\n    tag_326:\n        /* \"#utility.yul\":15071:15072   */\n      0x00\n        /* \"#utility.yul\":15095:15099   */\n      0x20\n        /* \"#utility.yul\":15082:15099   */\n      swap1\n      pop\n        /* \"#utility.yul\":15127:15129   */\n      0x1f\n        /* \"#utility.yul\":15119:15125   */\n      dup4\n        /* \"#utility.yul\":15116:15130   */\n      gt\n        /* \"#utility.yul\":15144:15145   */\n      0x01\n        /* \"#utility.yul\":15139:15757   */\n      dup2\n      eq\n      tag_328\n      jumpi\n        /* \"#utility.yul\":15801:15802   */\n      0x00\n        /* \"#utility.yul\":15818:15824   */\n      dup5\n        /* \"#utility.yul\":15815:15892   */\n      iszero\n      tag_329\n      jumpi\n        /* \"#utility.yul\":15867:15876   */\n      dup3\n        /* \"#utility.yul\":15862:15865   */\n      dup8\n        /* \"#utility.yul\":15858:15877   */\n      add\n        /* \"#utility.yul\":15852:15878   */\n      mload\n        /* \"#utility.yul\":15843:15878   */\n      swap1\n      pop\n        /* \"#utility.yul\":15815:15892   */\n    tag_329:\n        /* \"#utility.yul\":15918:15985   */\n      tag_330\n        /* \"#utility.yul\":15978:15984   */\n      dup6\n        /* \"#utility.yul\":15971:15976   */\n      dup3\n        /* \"#utility.yul\":15918:15985   */\n      tag_166\n      jump\t// in\n    tag_330:\n        /* \"#utility.yul\":15912:15916   */\n      dup7\n        /* \"#utility.yul\":15905:15986   */\n      sstore\n        /* \"#utility.yul\":15774:15996   */\n      pop\n        /* \"#utility.yul\":15109:15996   */\n      jump(tag_327)\n        /* \"#utility.yul\":15139:15757   */\n    tag_328:\n        /* \"#utility.yul\":15191:15195   */\n      0x1f\n        /* \"#utility.yul\":15187:15196   */\n      not\n        /* \"#utility.yul\":15179:15185   */\n      dup5\n        /* \"#utility.yul\":15175:15197   */\n      and\n        /* \"#utility.yul\":15225:15262   */\n      tag_331\n        /* \"#utility.yul\":15257:15261   */\n      dup7\n        /* \"#utility.yul\":15225:15262   */\n      tag_152\n      jump\t// in\n    tag_331:\n        /* \"#utility.yul\":15284:15285   */\n      0x00\n        /* \"#utility.yul\":15298:15506   */\n    tag_332:\n        /* \"#utility.yul\":15312:15319   */\n      dup3\n        /* \"#utility.yul\":15309:15310   */\n      dup2\n        /* \"#utility.yul\":15306:15320   */\n      lt\n        /* \"#utility.yul\":15298:15506   */\n      iszero\n      tag_334\n      jumpi\n        /* \"#utility.yul\":15391:15400   */\n      dup5\n        /* \"#utility.yul\":15386:15389   */\n      dup10\n        /* \"#utility.yul\":15382:15401   */\n      add\n        /* \"#utility.yul\":15376:15402   */\n      mload\n        /* \"#utility.yul\":15368:15374   */\n      dup3\n        /* \"#utility.yul\":15361:15403   */\n      sstore\n        /* \"#utility.yul\":15442:15443   */\n      0x01\n        /* \"#utility.yul\":15434:15440   */\n      dup3\n        /* \"#utility.yul\":15430:15444   */\n      add\n        /* \"#utility.yul\":15420:15444   */\n      swap2\n      pop\n        /* \"#utility.yul\":15489:15491   */\n      0x20\n        /* \"#utility.yul\":15478:15487   */\n      dup6\n        /* \"#utility.yul\":15474:15492   */\n      add\n        /* \"#utility.yul\":15461:15492   */\n      swap5\n      pop\n        /* \"#utility.yul\":15335:15339   */\n      0x20\n        /* \"#utility.yul\":15332:15333   */\n      dup2\n        /* \"#utility.yul\":15328:15340   */\n      add\n        /* \"#utility.yul\":15323:15340   */\n      swap1\n      pop\n        /* \"#utility.yul\":15298:15506   */\n      jump(tag_332)\n    tag_334:\n        /* \"#utility.yul\":15534:15540   */\n      dup7\n        /* \"#utility.yul\":15525:15532   */\n      dup4\n        /* \"#utility.yul\":15522:15541   */\n      lt\n        /* \"#utility.yul\":15519:15698   */\n      iszero\n      tag_335\n      jumpi\n        /* \"#utility.yul\":15592:15601   */\n      dup5\n        /* \"#utility.yul\":15587:15590   */\n      dup10\n        /* \"#utility.yul\":15583:15602   */\n      add\n        /* \"#utility.yul\":15577:15603   */\n      mload\n        /* \"#utility.yul\":15635:15683   */\n      tag_336\n        /* \"#utility.yul\":15677:15681   */\n      0x1f\n        /* \"#utility.yul\":15669:15675   */\n      dup10\n        /* \"#utility.yul\":15665:15682   */\n      and\n        /* \"#utility.yul\":15654:15663   */\n      dup3\n        /* \"#utility.yul\":15635:15683   */\n      tag_165\n      jump\t// in\n    tag_336:\n        /* \"#utility.yul\":15627:15633   */\n      dup4\n        /* \"#utility.yul\":15620:15684   */\n      sstore\n        /* \"#utility.yul\":15542:15698   */\n      pop\n        /* \"#utility.yul\":15519:15698   */\n    tag_335:\n        /* \"#utility.yul\":15744:15745   */\n      0x01\n        /* \"#utility.yul\":15740:15741   */\n      0x02\n        /* \"#utility.yul\":15732:15738   */\n      dup9\n        /* \"#utility.yul\":15728:15742   */\n      mul\n        /* \"#utility.yul\":15724:15746   */\n      add\n        /* \"#utility.yul\":15718:15722   */\n      dup9\n        /* \"#utility.yul\":15711:15747   */\n      sstore\n        /* \"#utility.yul\":15146:15757   */\n      pop\n      pop\n      pop\n        /* \"#utility.yul\":15109:15996   */\n    tag_327:\n      pop\n        /* \"#utility.yul\":14699:16002   */\n      pop\n      pop\n      pop\n        /* \"#utility.yul\":14607:16002   */\n      pop\n      pop\n      jump\t// out\n        /* \"#utility.yul\":16008:16188   */\n    tag_60:\n        /* \"#utility.yul\":16056:16133   */\n      0x4e487b7100000000000000000000000000000000000000000000000000000000\n        /* \"#utility.yul\":16053:16054   */\n      0x00\n        /* \"#utility.yul\":16046:16134   */\n      mstore\n        /* \"#utility.yul\":16153:16157   */\n      0x32\n        /* \"#utility.yul\":16150:16151   */\n      0x04\n        /* \"#utility.yul\":16143:16158   */\n      mstore\n        /* \"#utility.yul\":16177:16181   */\n      0x24\n        /* \"#utility.yul\":16174:16175   */\n      0x00\n        /* \"#utility.yul\":16167:16182   */\n      revert\n        /* \"#utility.yul\":16194:16374   */\n    tag_167:\n        /* \"#utility.yul\":16242:16319   */\n      0x4e487b7100000000000000000000000000000000000000000000000000000000\n        /* \"#utility.yul\":16239:16240   */\n      0x00\n        /* \"#utility.yul\":16232:16320   */\n      mstore\n        /* \"#utility.yul\":16339:16343   */\n      0x11\n        /* \"#utility.yul\":16336:16337   */\n      0x04\n        /* \"#utility.yul\":16329:16344   */\n      mstore\n        /* \"#utility.yul\":16363:16367   */\n      0x24\n        /* \"#utility.yul\":16360:16361   */\n      0x00\n        /* \"#utility.yul\":16353:16368   */\n      revert\n        /* \"#utility.yul\":16380:16574   */\n    tag_89:\n        /* \"#utility.yul\":16420:16424   */\n      0x00\n        /* \"#utility.yul\":16440:16460   */\n      tag_340\n        /* \"#utility.yul\":16458:16459   */\n      dup3\n        /* \"#utility.yul\":16440:16460   */\n      tag_117\n      jump\t// in\n    tag_340:\n        /* \"#utility.yul\":16435:16460   */\n      swap2\n      pop\n        /* \"#utility.yul\":16474:16494   */\n      tag_341\n        /* \"#utility.yul\":16492:16493   */\n      dup4\n        /* \"#utility.yul\":16474:16494   */\n      tag_117\n      jump\t// in\n    tag_341:\n        /* \"#utility.yul\":16469:16494   */\n      swap3\n      pop\n        /* \"#utility.yul\":16518:16519   */\n      dup3\n        /* \"#utility.yul\":16515:16516   */\n      dup3\n        /* \"#utility.yul\":16511:16520   */\n      sub\n        /* \"#utility.yul\":16503:16520   */\n      swap1\n      pop\n        /* \"#utility.yul\":16542:16543   */\n      dup2\n        /* \"#utility.yul\":16536:16540   */\n      dup2\n        /* \"#utility.yul\":16533:16544   */\n      gt\n        /* \"#utility.yul\":16530:16567   */\n      iszero\n      tag_342\n      jumpi\n        /* \"#utility.yul\":16547:16565   */\n      tag_343\n      tag_167\n      jump\t// in\n    tag_343:\n        /* \"#utility.yul\":16530:16567   */\n    tag_342:\n        /* \"#utility.yul\":16380:16574   */\n      swap3\n      swap2\n      pop\n      pop\n      jump\t// out\n        /* \"#utility.yul\":16580:16760   */\n    tag_98:\n        /* \"#utility.yul\":16628:16705   */\n      0x4e487b7100000000000000000000000000000000000000000000000000000000\n        /* \"#utility.yul\":16625:16626   */\n      0x00\n        /* \"#utility.yul\":16618:16706   */\n      mstore\n        /* \"#utility.yul\":16725:16729   */\n      0x31\n        /* \"#utility.yul\":16722:16723   */\n      0x04\n        /* \"#utility.yul\":16715:16730   */\n      mstore\n        /* \"#utility.yul\":16749:16753   */\n      0x24\n        /* \"#utility.yul\":16746:16747   */\n      0x00\n        /* \"#utility.yul\":16739:16754   */\n      revert\n\n    auxdata: 0xa2646970667358221220ad139b68d125987bbfc945a1ce254c878084384abe0b89cf07002022a897aecd64736f6c634300081c0033\n}\n",
				"bytecode": {
					"linkReferences": {},
					"object": "6080604052348015600f57600080fd5b50610ff18061001f6000396000f3fe608060405234801561001057600080fd5b506004361061007d5760003560e01c8063cbeec4081161005b578063cbeec408146100ed578063d02a615914610109578063d78d7b5314610127578063e244e23b146101575761007d565b80633988b27b1461008257806344c711ae1461009e5780634f1411c1146100bd575b600080fd5b61009c6004803603810190610097919061085b565b610173565b005b6100a6610224565b6040516100b4929190610ab6565b60405180910390f35b6100d760048036038101906100d29190610aed565b610411565b6040516100e49190610b64565b60405180910390f35b61010760048036038101906101029190610aed565b6104d3565b005b6101116105bb565b60405161011e9190610b95565b60405180910390f35b610141600480360381019061013c9190610aed565b6105c8565b60405161014e9190610b95565b60405180910390f35b610171600480360381019061016c919061085b565b6105ec565b005b60008151116101b7576040517f08c379a00000000000000000000000000000000000000000000000000000000081526004016101ae90610bfc565b60405180910390fd5b600060405180602001604052808381525090508060008085815260200190815260200160002060008201518160000190816101f29190610e28565b509050506001839080600181540180825580915050600190039060005260206000200160009091909190915055505050565b6060806000600180549050905060008167ffffffffffffffff81111561024d5761024c610730565b5b60405190808252806020026020018201604052801561027b5781602001602082028036833780820191505090505b50905060008267ffffffffffffffff81111561029a57610299610730565b5b6040519080825280602002602001820160405280156102cd57816020015b60608152602001906001900390816102b85790505b50905060005b83811015610403576000600182815481106102f1576102f0610efa565b5b90600052602060002001549050600080600083815260200190815260200160002060405180602001604052908160008201805461032d90610c4b565b80601f016020809104026020016040519081016040528092919081815260200182805461035990610c4b565b80156103a65780601f1061037b576101008083540402835291602001916103a6565b820191906000526020600020905b81548152906001019060200180831161038957829003601f168201915b5050505050815250509050818584815181106103c5576103c4610efa565b5b60200260200101818152505080600001518484815181106103e9576103e8610efa565b5b6020026020010181905250505080806001019150506102d3565b508181945094505050509091565b6060600080600084815260200190815260200160002060405180602001604052908160008201805461044290610c4b565b80601f016020809104026020016040519081016040528092919081815260200182805461046e90610c4b565b80156104bb5780601f10610490576101008083540402835291602001916104bb565b820191906000526020600020905b81548152906001019060200180831161049e57829003601f168201915b50505050508152505090508060000151915050919050565b600080828152602001908152602001600020600080820160006104f6919061066e565b505060005b6001805490508110156105b757816001828154811061051d5761051c610efa565b5b9060005260206000200154036105aa57600180808054905061053f9190610f58565b815481106105505761054f610efa565b5b90600052602060002001546001828154811061056f5761056e610efa565b5b9060005260206000200181905550600180548061058f5761058e610f8c565b5b600190038181906000526020600020016000905590556105b7565b80806001019150506104fb565b5050565b6000600180549050905090565b600181815481106105d857600080fd5b906000526020600020016000915090505481565b6000815111610630576040517f08c379a000000000000000000000000000000000000000000000000000000000815260040161062790610bfc565b60405180910390fd5b60405180602001604052808281525060008084815260200190815260200160002060008201518160000190816106669190610e28565b509050505050565b50805461067a90610c4b565b6000825580601f1061068c57506106ab565b601f0160209004906000526020600020908101906106aa91906106ae565b5b50565b5b808211156106c75760008160009055506001016106af565b5090565b6000604051905090565b600080fd5b600080fd5b6000819050919050565b6106f2816106df565b81146106fd57600080fd5b50565b60008135905061070f816106e9565b92915050565b600080fd5b600080fd5b6000601f19601f8301169050919050565b7f4e487b7100000000000000000000000000000000000000000000000000000000600052604160045260246000fd5b6107688261071f565b810181811067ffffffffffffffff8211171561078757610786610730565b5b80604052505050565b600061079a6106cb565b90506107a6828261075f565b919050565b600067ffffffffffffffff8211156107c6576107c5610730565b5b6107cf8261071f565b9050602081019050919050565b82818337600083830152505050565b60006107fe6107f9846107ab565b610790565b90508281526020810184848401111561081a5761081961071a565b5b6108258482856107dc565b509392505050565b600082601f83011261084257610841610715565b5b81356108528482602086016107eb565b91505092915050565b60008060408385031215610872576108716106d5565b5b600061088085828601610700565b925050602083013567ffffffffffffffff8111156108a1576108a06106da565b5b6108ad8582860161082d565b9150509250929050565b600081519050919050565b600082825260208201905092915050565b6000819050602082019050919050565b6108ec816106df565b82525050565b60006108fe83836108e3565b60208301905092915050565b6000602082019050919050565b6000610922826108b7565b61092c81856108c2565b9350610937836108d3565b8060005b8381101561096857815161094f88826108f2565b975061095a8361090a565b92505060018101905061093b565b5085935050505092915050565b600081519050919050565b600082825260208201905092915050565b6000819050602082019050919050565b600081519050919050565b600082825260208201905092915050565b60005b838110156109db5780820151818401526020810190506109c0565b60008484015250505050565b60006109f2826109a1565b6109fc81856109ac565b9350610a0c8185602086016109bd565b610a158161071f565b840191505092915050565b6000610a2c83836109e7565b905092915050565b6000602082019050919050565b6000610a4c82610975565b610a568185610980565b935083602082028501610a6885610991565b8060005b85811015610aa45784840389528151610a858582610a20565b9450610a9083610a34565b925060208a01995050600181019050610a6c565b50829750879550505050505092915050565b60006040820190508181036000830152610ad08185610917565b90508181036020830152610ae48184610a41565b90509392505050565b600060208284031215610b0357610b026106d5565b5b6000610b1184828501610700565b91505092915050565b600082825260208201905092915050565b6000610b36826109a1565b610b408185610b1a565b9350610b508185602086016109bd565b610b598161071f565b840191505092915050565b60006020820190508181036000830152610b7e8184610b2b565b905092915050565b610b8f816106df565b82525050565b6000602082019050610baa6000830184610b86565b92915050565b7f4e616d61204b617465676f726920746964616b20626f6c6568206b6f736f6e67600082015250565b6000610be6602083610b1a565b9150610bf182610bb0565b602082019050919050565b60006020820190508181036000830152610c1581610bd9565b9050919050565b7f4e487b7100000000000000000000000000000000000000000000000000000000600052602260045260246000fd5b60006002820490506001821680610c6357607f821691505b602082108103610c7657610c75610c1c565b5b50919050565b60008190508160005260206000209050919050565b60006020601f8301049050919050565b600082821b905092915050565b600060088302610cde7fffffffffffffffffffffffffffffffffffffffffffffffffffffffffffffffff82610ca1565b610ce88683610ca1565b95508019841693508086168417925050509392505050565b6000819050919050565b6000610d25610d20610d1b846106df565b610d00565b6106df565b9050919050565b6000819050919050565b610d3f83610d0a565b610d53610d4b82610d2c565b848454610cae565b825550505050565b600090565b610d68610d5b565b610d73818484610d36565b505050565b5b81811015610d9757610d8c600082610d60565b600181019050610d79565b5050565b601f821115610ddc57610dad81610c7c565b610db684610c91565b81016020851015610dc5578190505b610dd9610dd185610c91565b830182610d78565b50505b505050565b600082821c905092915050565b6000610dff60001984600802610de1565b1980831691505092915050565b6000610e188383610dee565b9150826002028217905092915050565b610e31826109a1565b67ffffffffffffffff811115610e4a57610e49610730565b5b610e548254610c4b565b610e5f828285610d9b565b600060209050601f831160018114610e925760008415610e80578287015190505b610e8a8582610e0c565b865550610ef2565b601f198416610ea086610c7c565b60005b82811015610ec857848901518255600182019150602085019450602081019050610ea3565b86831015610ee55784890151610ee1601f891682610dee565b8355505b6001600288020188555050505b505050505050565b7f4e487b7100000000000000000000000000000000000000000000000000000000600052603260045260246000fd5b7f4e487b7100000000000000000000000000000000000000000000000000000000600052601160045260246000fd5b6000610f63826106df565b9150610f6e836106df565b9250828203905081811115610f8657610f85610f29565b5b92915050565b7f4e487b7100000000000000000000000000000000000000000000000000000000600052603160045260246000fdfea2646970667358221220ad139b68d125987bbfc945a1ce254c878084384abe0b89cf07002022a897aecd64736f6c634300081c0033",
					"opcodes": "PUSH1 0x80 PUSH1 0x40 MSTORE CALLVALUE DUP1 ISZERO PUSH1 0xF JUMPI PUSH1 0x0 DUP1 REVERT JUMPDEST POP PUSH2 0xFF1 DUP1 PUSH2 0x1F PUSH1 0x0 CODECOPY PUSH1 0x0 RETURN INVALID PUSH1 0x80 PUSH1 0x40 MSTORE CALLVALUE DUP1 ISZERO PUSH2 0x10 JUMPI PUSH1 0x0 DUP1 REVERT JUMPDEST POP PUSH1 0x4 CALLDATASIZE LT PUSH2 0x7D JUMPI PUSH1 0x0 CALLDATALOAD PUSH1 0xE0 SHR DUP1 PUSH4 0xCBEEC408 GT PUSH2 0x5B JUMPI DUP1 PUSH4 0xCBEEC408 EQ PUSH2 0xED JUMPI DUP1 PUSH4 0xD02A6159 EQ PUSH2 0x109 JUMPI DUP1 PUSH4 0xD78D7B53 EQ PUSH2 0x127 JUMPI DUP1 PUSH4 0xE244E23B EQ PUSH2 0x157 JUMPI PUSH2 0x7D JUMP JUMPDEST DUP1 PUSH4 0x3988B27B EQ PUSH2 0x82 JUMPI DUP1 PUSH4 0x44C711AE EQ PUSH2 0x9E JUMPI DUP1 PUSH4 0x4F1411C1 EQ PUSH2 0xBD JUMPI JUMPDEST PUSH1 0x0 DUP1 REVERT JUMPDEST PUSH2 0x9C PUSH1 0x4 DUP1 CALLDATASIZE SUB DUP2 ADD SWAP1 PUSH2 0x97 SWAP2 SWAP1 PUSH2 0x85B JUMP JUMPDEST PUSH2 0x173 JUMP JUMPDEST STOP JUMPDEST PUSH2 0xA6 PUSH2 0x224 JUMP JUMPDEST PUSH1 0x40 MLOAD PUSH2 0xB4 SWAP3 SWAP2 SWAP1 PUSH2 0xAB6 JUMP JUMPDEST PUSH1 0x40 MLOAD DUP1 SWAP2 SUB SWAP1 RETURN JUMPDEST PUSH2 0xD7 PUSH1 0x4 DUP1 CALLDATASIZE SUB DUP2 ADD SWAP1 PUSH2 0xD2 SWAP2 SWAP1 PUSH2 0xAED JUMP JUMPDEST PUSH2 0x411 JUMP JUMPDEST PUSH1 0x40 MLOAD PUSH2 0xE4 SWAP2 SWAP1 PUSH2 0xB64 JUMP JUMPDEST PUSH1 0x40 MLOAD DUP1 SWAP2 SUB SWAP1 RETURN JUMPDEST PUSH2 0x107 PUSH1 0x4 DUP1 CALLDATASIZE SUB DUP2 ADD SWAP1 PUSH2 0x102 SWAP2 SWAP1 PUSH2 0xAED JUMP JUMPDEST PUSH2 0x4D3 JUMP JUMPDEST STOP JUMPDEST PUSH2 0x111 PUSH2 0x5BB JUMP JUMPDEST PUSH1 0x40 MLOAD PUSH2 0x11E SWAP2 SWAP1 PUSH2 0xB95 JUMP JUMPDEST PUSH1 0x40 MLOAD DUP1 SWAP2 SUB SWAP1 RETURN JUMPDEST PUSH2 0x141 PUSH1 0x4 DUP1 CALLDATASIZE SUB DUP2 ADD SWAP1 PUSH2 0x13C SWAP2 SWAP1 PUSH2 0xAED JUMP JUMPDEST PUSH2 0x5C8 JUMP JUMPDEST PUSH1 0x40 MLOAD PUSH2 0x14E SWAP2 SWAP1 PUSH2 0xB95 JUMP JUMPDEST PUSH1 0x40 MLOAD DUP1 SWAP2 SUB SWAP1 RETURN JUMPDEST PUSH2 0x171 PUSH1 0x4 DUP1 CALLDATASIZE SUB DUP2 ADD SWAP1 PUSH2 0x16C SWAP2 SWAP1 PUSH2 0x85B JUMP JUMPDEST PUSH2 0x5EC JUMP JUMPDEST STOP JUMPDEST PUSH1 0x0 DUP2 MLOAD GT PUSH2 0x1B7 JUMPI PUSH1 0x40 MLOAD PUSH32 0x8C379A000000000000000000000000000000000000000000000000000000000 DUP2 MSTORE PUSH1 0x4 ADD PUSH2 0x1AE SWAP1 PUSH2 0xBFC JUMP JUMPDEST PUSH1 0x40 MLOAD DUP1 SWAP2 SUB SWAP1 REVERT JUMPDEST PUSH1 0x0 PUSH1 0x40 MLOAD DUP1 PUSH1 0x20 ADD PUSH1 0x40 MSTORE DUP1 DUP4 DUP2 MSTORE POP SWAP1 POP DUP1 PUSH1 0x0 DUP1 DUP6 DUP2 MSTORE PUSH1 0x20 ADD SWAP1 DUP2 MSTORE PUSH1 0x20 ADD PUSH1 0x0 KECCAK256 PUSH1 0x0 DUP3 ADD MLOAD DUP2 PUSH1 0x0 ADD SWAP1 DUP2 PUSH2 0x1F2 SWAP2 SWAP1 PUSH2 0xE28 JUMP JUMPDEST POP SWAP1 POP POP PUSH1 0x1 DUP4 SWAP1 DUP1 PUSH1 0x1 DUP2 SLOAD ADD DUP1 DUP3 SSTORE DUP1 SWAP2 POP POP PUSH1 0x1 SWAP1 SUB SWAP1 PUSH1 0x0 MSTORE PUSH1 0x20 PUSH1 0x0 KECCAK256 ADD PUSH1 0x0 SWAP1 SWAP2 SWAP1 SWAP2 SWAP1 SWAP2 POP SSTORE POP POP POP JUMP JUMPDEST PUSH1 0x60 DUP1 PUSH1 0x0 PUSH1 0x1 DUP1 SLOAD SWAP1 POP SWAP1 POP PUSH1 0x0 DUP2 PUSH8 0xFFFFFFFFFFFFFFFF DUP2 GT ISZERO PUSH2 0x24D JUMPI PUSH2 0x24C PUSH2 0x730 JUMP JUMPDEST JUMPDEST PUSH1 0x40 MLOAD SWAP1 DUP1 DUP3 MSTORE DUP1 PUSH1 0x20 MUL PUSH1 0x20 ADD DUP3 ADD PUSH1 0x40 MSTORE DUP1 ISZERO PUSH2 0x27B JUMPI DUP2 PUSH1 0x20 ADD PUSH1 0x20 DUP3 MUL DUP1 CALLDATASIZE DUP4 CALLDATACOPY DUP1 DUP3 ADD SWAP2 POP POP SWAP1 POP JUMPDEST POP SWAP1 POP PUSH1 0x0 DUP3 PUSH8 0xFFFFFFFFFFFFFFFF DUP2 GT ISZERO PUSH2 0x29A JUMPI PUSH2 0x299 PUSH2 0x730 JUMP JUMPDEST JUMPDEST PUSH1 0x40 MLOAD SWAP1 DUP1 DUP3 MSTORE DUP1 PUSH1 0x20 MUL PUSH1 0x20 ADD DUP3 ADD PUSH1 0x40 MSTORE DUP1 ISZERO PUSH2 0x2CD JUMPI DUP2 PUSH1 0x20 ADD JUMPDEST PUSH1 0x60 DUP2 MSTORE PUSH1 0x20 ADD SWAP1 PUSH1 0x1 SWAP1 SUB SWAP1 DUP2 PUSH2 0x2B8 JUMPI SWAP1 POP JUMPDEST POP SWAP1 POP PUSH1 0x0 JUMPDEST DUP4 DUP2 LT ISZERO PUSH2 0x403 JUMPI PUSH1 0x0 PUSH1 0x1 DUP3 DUP2 SLOAD DUP2 LT PUSH2 0x2F1 JUMPI PUSH2 0x2F0 PUSH2 0xEFA JUMP JUMPDEST JUMPDEST SWAP1 PUSH1 0x0 MSTORE PUSH1 0x20 PUSH1 0x0 KECCAK256 ADD SLOAD SWAP1 POP PUSH1 0x0 DUP1 PUSH1 0x0 DUP4 DUP2 MSTORE PUSH1 0x20 ADD SWAP1 DUP2 MSTORE PUSH1 0x20 ADD PUSH1 0x0 KECCAK256 PUSH1 0x40 MLOAD DUP1 PUSH1 0x20 ADD PUSH1 0x40 MSTORE SWAP1 DUP2 PUSH1 0x0 DUP3 ADD DUP1 SLOAD PUSH2 0x32D SWAP1 PUSH2 0xC4B JUMP JUMPDEST DUP1 PUSH1 0x1F ADD PUSH1 0x20 DUP1 SWAP2 DIV MUL PUSH1 0x20 ADD PUSH1 0x40 MLOAD SWAP1 DUP2 ADD PUSH1 0x40 MSTORE DUP1 SWAP3 SWAP2 SWAP1 DUP2 DUP2 MSTORE PUSH1 0x20 ADD DUP3 DUP1 SLOAD PUSH2 0x359 SWAP1 PUSH2 0xC4B JUMP JUMPDEST DUP1 ISZERO PUSH2 0x3A6 JUMPI DUP1 PUSH1 0x1F LT PUSH2 0x37B JUMPI PUSH2 0x100 DUP1 DUP4 SLOAD DIV MUL DUP4 MSTORE SWAP2 PUSH1 0x20 ADD SWAP2 PUSH2 0x3A6 JUMP JUMPDEST DUP3 ADD SWAP2 SWAP1 PUSH1 0x0 MSTORE PUSH1 0x20 PUSH1 0x0 KECCAK256 SWAP1 JUMPDEST DUP2 SLOAD DUP2 MSTORE SWAP1 PUSH1 0x1 ADD SWAP1 PUSH1 0x20 ADD DUP1 DUP4 GT PUSH2 0x389 JUMPI DUP3 SWAP1 SUB PUSH1 0x1F AND DUP3 ADD SWAP2 JUMPDEST POP POP POP POP POP DUP2 MSTORE POP POP SWAP1 POP DUP2 DUP6 DUP5 DUP2 MLOAD DUP2 LT PUSH2 0x3C5 JUMPI PUSH2 0x3C4 PUSH2 0xEFA JUMP JUMPDEST JUMPDEST PUSH1 0x20 MUL PUSH1 0x20 ADD ADD DUP2 DUP2 MSTORE POP POP DUP1 PUSH1 0x0 ADD MLOAD DUP5 DUP5 DUP2 MLOAD DUP2 LT PUSH2 0x3E9 JUMPI PUSH2 0x3E8 PUSH2 0xEFA JUMP JUMPDEST JUMPDEST PUSH1 0x20 MUL PUSH1 0x20 ADD ADD DUP2 SWAP1 MSTORE POP POP POP DUP1 DUP1 PUSH1 0x1 ADD SWAP2 POP POP PUSH2 0x2D3 JUMP JUMPDEST POP DUP2 DUP2 SWAP5 POP SWAP5 POP POP POP POP SWAP1 SWAP2 JUMP JUMPDEST PUSH1 0x60 PUSH1 0x0 DUP1 PUSH1 0x0 DUP5 DUP2 MSTORE PUSH1 0x20 ADD SWAP1 DUP2 MSTORE PUSH1 0x20 ADD PUSH1 0x0 KECCAK256 PUSH1 0x40 MLOAD DUP1 PUSH1 0x20 ADD PUSH1 0x40 MSTORE SWAP1 DUP2 PUSH1 0x0 DUP3 ADD DUP1 SLOAD PUSH2 0x442 SWAP1 PUSH2 0xC4B JUMP JUMPDEST DUP1 PUSH1 0x1F ADD PUSH1 0x20 DUP1 SWAP2 DIV MUL PUSH1 0x20 ADD PUSH1 0x40 MLOAD SWAP1 DUP2 ADD PUSH1 0x40 MSTORE DUP1 SWAP3 SWAP2 SWAP1 DUP2 DUP2 MSTORE PUSH1 0x20 ADD DUP3 DUP1 SLOAD PUSH2 0x46E SWAP1 PUSH2 0xC4B JUMP JUMPDEST DUP1 ISZERO PUSH2 0x4BB JUMPI DUP1 PUSH1 0x1F LT PUSH2 0x490 JUMPI PUSH2 0x100 DUP1 DUP4 SLOAD DIV MUL DUP4 MSTORE SWAP2 PUSH1 0x20 ADD SWAP2 PUSH2 0x4BB JUMP JUMPDEST DUP3 ADD SWAP2 SWAP1 PUSH1 0x0 MSTORE PUSH1 0x20 PUSH1 0x0 KECCAK256 SWAP1 JUMPDEST DUP2 SLOAD DUP2 MSTORE SWAP1 PUSH1 0x1 ADD SWAP1 PUSH1 0x20 ADD DUP1 DUP4 GT PUSH2 0x49E JUMPI DUP3 SWAP1 SUB PUSH1 0x1F AND DUP3 ADD SWAP2 JUMPDEST POP POP POP POP POP DUP2 MSTORE POP POP SWAP1 POP DUP1 PUSH1 0x0 ADD MLOAD SWAP2 POP POP SWAP2 SWAP1 POP JUMP JUMPDEST PUSH1 0x0 DUP1 DUP3 DUP2 MSTORE PUSH1 0x20 ADD SWAP1 DUP2 MSTORE PUSH1 0x20 ADD PUSH1 0x0 KECCAK256 PUSH1 0x0 DUP1 DUP3 ADD PUSH1 0x0 PUSH2 0x4F6 SWAP2 SWAP1 PUSH2 0x66E JUMP JUMPDEST POP POP PUSH1 0x0 JUMPDEST PUSH1 0x1 DUP1 SLOAD SWAP1 POP DUP2 LT ISZERO PUSH2 0x5B7 JUMPI DUP2 PUSH1 0x1 DUP3 DUP2 SLOAD DUP2 LT PUSH2 0x51D JUMPI PUSH2 0x51C PUSH2 0xEFA JUMP JUMPDEST JUMPDEST SWAP1 PUSH1 0x0 MSTORE PUSH1 0x20 PUSH1 0x0 KECCAK256 ADD SLOAD SUB PUSH2 0x5AA JUMPI PUSH1 0x1 DUP1 DUP1 DUP1 SLOAD SWAP1 POP PUSH2 0x53F SWAP2 SWAP1 PUSH2 0xF58 JUMP JUMPDEST DUP2 SLOAD DUP2 LT PUSH2 0x550 JUMPI PUSH2 0x54F PUSH2 0xEFA JUMP JUMPDEST JUMPDEST SWAP1 PUSH1 0x0 MSTORE PUSH1 0x20 PUSH1 0x0 KECCAK256 ADD SLOAD PUSH1 0x1 DUP3 DUP2 SLOAD DUP2 LT PUSH2 0x56F JUMPI PUSH2 0x56E PUSH2 0xEFA JUMP JUMPDEST JUMPDEST SWAP1 PUSH1 0x0 MSTORE PUSH1 0x20 PUSH1 0x0 KECCAK256 ADD DUP2 SWAP1 SSTORE POP PUSH1 0x1 DUP1 SLOAD DUP1 PUSH2 0x58F JUMPI PUSH2 0x58E PUSH2 0xF8C JUMP JUMPDEST JUMPDEST PUSH1 0x1 SWAP1 SUB DUP2 DUP2 SWAP1 PUSH1 0x0 MSTORE PUSH1 0x20 PUSH1 0x0 KECCAK256 ADD PUSH1 0x0 SWAP1 SSTORE SWAP1 SSTORE PUSH2 0x5B7 JUMP JUMPDEST DUP1 DUP1 PUSH1 0x1 ADD SWAP2 POP POP PUSH2 0x4FB JUMP JUMPDEST POP POP JUMP JUMPDEST PUSH1 0x0 PUSH1 0x1 DUP1 SLOAD SWAP1 POP SWAP1 POP SWAP1 JUMP JUMPDEST PUSH1 0x1 DUP2 DUP2 SLOAD DUP2 LT PUSH2 0x5D8 JUMPI PUSH1 0x0 DUP1 REVERT JUMPDEST SWAP1 PUSH1 0x0 MSTORE PUSH1 0x20 PUSH1 0x0 KECCAK256 ADD PUSH1 0x0 SWAP2 POP SWAP1 POP SLOAD DUP2 JUMP JUMPDEST PUSH1 0x0 DUP2 MLOAD GT PUSH2 0x630 JUMPI PUSH1 0x40 MLOAD PUSH32 0x8C379A000000000000000000000000000000000000000000000000000000000 DUP2 MSTORE PUSH1 0x4 ADD PUSH2 0x627 SWAP1 PUSH2 0xBFC JUMP JUMPDEST PUSH1 0x40 MLOAD DUP1 SWAP2 SUB SWAP1 REVERT JUMPDEST PUSH1 0x40 MLOAD DUP1 PUSH1 0x20 ADD PUSH1 0x40 MSTORE DUP1 DUP3 DUP2 MSTORE POP PUSH1 0x0 DUP1 DUP5 DUP2 MSTORE PUSH1 0x20 ADD SWAP1 DUP2 MSTORE PUSH1 0x20 ADD PUSH1 0x0 KECCAK256 PUSH1 0x0 DUP3 ADD MLOAD DUP2 PUSH1 0x0 ADD SWAP1 DUP2 PUSH2 0x666 SWAP2 SWAP1 PUSH2 0xE28 JUMP JUMPDEST POP SWAP1 POP POP POP POP JUMP JUMPDEST POP DUP1 SLOAD PUSH2 0x67A SWAP1 PUSH2 0xC4B JUMP JUMPDEST PUSH1 0x0 DUP3 SSTORE DUP1 PUSH1 0x1F LT PUSH2 0x68C JUMPI POP PUSH2 0x6AB JUMP JUMPDEST PUSH1 0x1F ADD PUSH1 0x20 SWAP1 DIV SWAP1 PUSH1 0x0 MSTORE PUSH1 0x20 PUSH1 0x0 KECCAK256 SWAP1 DUP2 ADD SWAP1 PUSH2 0x6AA SWAP2 SWAP1 PUSH2 0x6AE JUMP JUMPDEST JUMPDEST POP JUMP JUMPDEST JUMPDEST DUP1 DUP3 GT ISZERO PUSH2 0x6C7 JUMPI PUSH1 0x0 DUP2 PUSH1 0x0 SWAP1 SSTORE POP PUSH1 0x1 ADD PUSH2 0x6AF JUMP JUMPDEST POP SWAP1 JUMP JUMPDEST PUSH1 0x0 PUSH1 0x40 MLOAD SWAP1 POP SWAP1 JUMP JUMPDEST PUSH1 0x0 DUP1 REVERT JUMPDEST PUSH1 0x0 DUP1 REVERT JUMPDEST PUSH1 0x0 DUP2 SWAP1 POP SWAP2 SWAP1 POP JUMP JUMPDEST PUSH2 0x6F2 DUP2 PUSH2 0x6DF JUMP JUMPDEST DUP2 EQ PUSH2 0x6FD JUMPI PUSH1 0x0 DUP1 REVERT JUMPDEST POP JUMP JUMPDEST PUSH1 0x0 DUP2 CALLDATALOAD SWAP1 POP PUSH2 0x70F DUP2 PUSH2 0x6E9 JUMP JUMPDEST SWAP3 SWAP2 POP POP JUMP JUMPDEST PUSH1 0x0 DUP1 REVERT JUMPDEST PUSH1 0x0 DUP1 REVERT JUMPDEST PUSH1 0x0 PUSH1 0x1F NOT PUSH1 0x1F DUP4 ADD AND SWAP1 POP SWAP2 SWAP1 POP JUMP JUMPDEST PUSH32 0x4E487B7100000000000000000000000000000000000000000000000000000000 PUSH1 0x0 MSTORE PUSH1 0x41 PUSH1 0x4 MSTORE PUSH1 0x24 PUSH1 0x0 REVERT JUMPDEST PUSH2 0x768 DUP3 PUSH2 0x71F JUMP JUMPDEST DUP2 ADD DUP2 DUP2 LT PUSH8 0xFFFFFFFFFFFFFFFF DUP3 GT OR ISZERO PUSH2 0x787 JUMPI PUSH2 0x786 PUSH2 0x730 JUMP JUMPDEST JUMPDEST DUP1 PUSH1 0x40 MSTORE POP POP POP JUMP JUMPDEST PUSH1 0x0 PUSH2 0x79A PUSH2 0x6CB JUMP JUMPDEST SWAP1 POP PUSH2 0x7A6 DUP3 DUP3 PUSH2 0x75F JUMP JUMPDEST SWAP2 SWAP1 POP JUMP JUMPDEST PUSH1 0x0 PUSH8 0xFFFFFFFFFFFFFFFF DUP3 GT ISZERO PUSH2 0x7C6 JUMPI PUSH2 0x7C5 PUSH2 0x730 JUMP JUMPDEST JUMPDEST PUSH2 0x7CF DUP3 PUSH2 0x71F JUMP JUMPDEST SWAP1 POP PUSH1 0x20 DUP2 ADD SWAP1 POP SWAP2 SWAP1 POP JUMP JUMPDEST DUP3 DUP2 DUP4 CALLDATACOPY PUSH1 0x0 DUP4 DUP4 ADD MSTORE POP POP POP JUMP JUMPDEST PUSH1 0x0 PUSH2 0x7FE PUSH2 0x7F9 DUP5 PUSH2 0x7AB JUMP JUMPDEST PUSH2 0x790 JUMP JUMPDEST SWAP1 POP DUP3 DUP2 MSTORE PUSH1 0x20 DUP2 ADD DUP5 DUP5 DUP5 ADD GT ISZERO PUSH2 0x81A JUMPI PUSH2 0x819 PUSH2 0x71A JUMP JUMPDEST JUMPDEST PUSH2 0x825 DUP5 DUP3 DUP6 PUSH2 0x7DC JUMP JUMPDEST POP SWAP4 SWAP3 POP POP POP JUMP JUMPDEST PUSH1 0x0 DUP3 PUSH1 0x1F DUP4 ADD SLT PUSH2 0x842 JUMPI PUSH2 0x841 PUSH2 0x715 JUMP JUMPDEST JUMPDEST DUP2 CALLDATALOAD PUSH2 0x852 DUP5 DUP3 PUSH1 0x20 DUP7 ADD PUSH2 0x7EB JUMP JUMPDEST SWAP2 POP POP SWAP3 SWAP2 POP POP JUMP JUMPDEST PUSH1 0x0 DUP1 PUSH1 0x40 DUP4 DUP6 SUB SLT ISZERO PUSH2 0x872 JUMPI PUSH2 0x871 PUSH2 0x6D5 JUMP JUMPDEST JUMPDEST PUSH1 0x0 PUSH2 0x880 DUP6 DUP3 DUP7 ADD PUSH2 0x700 JUMP JUMPDEST SWAP3 POP POP PUSH1 0x20 DUP4 ADD CALLDATALOAD PUSH8 0xFFFFFFFFFFFFFFFF DUP2 GT ISZERO PUSH2 0x8A1 JUMPI PUSH2 0x8A0 PUSH2 0x6DA JUMP JUMPDEST JUMPDEST PUSH2 0x8AD DUP6 DUP3 DUP7 ADD PUSH2 0x82D JUMP JUMPDEST SWAP2 POP POP SWAP3 POP SWAP3 SWAP1 POP JUMP JUMPDEST PUSH1 0x0 DUP2 MLOAD SWAP1 POP SWAP2 SWAP1 POP JUMP JUMPDEST PUSH1 0x0 DUP3 DUP3 MSTORE PUSH1 0x20 DUP3 ADD SWAP1 POP SWAP3 SWAP2 POP POP JUMP JUMPDEST PUSH1 0x0 DUP2 SWAP1 POP PUSH1 0x20 DUP3 ADD SWAP1 POP SWAP2 SWAP1 POP JUMP JUMPDEST PUSH2 0x8EC DUP2 PUSH2 0x6DF JUMP JUMPDEST DUP3 MSTORE POP POP JUMP JUMPDEST PUSH1 0x0 PUSH2 0x8FE DUP4 DUP4 PUSH2 0x8E3 JUMP JUMPDEST PUSH1 0x20 DUP4 ADD SWAP1 POP SWAP3 SWAP2 POP POP JUMP JUMPDEST PUSH1 0x0 PUSH1 0x20 DUP3 ADD SWAP1 POP SWAP2 SWAP1 POP JUMP JUMPDEST PUSH1 0x0 PUSH2 0x922 DUP3 PUSH2 0x8B7 JUMP JUMPDEST PUSH2 0x92C DUP2 DUP6 PUSH2 0x8C2 JUMP JUMPDEST SWAP4 POP PUSH2 0x937 DUP4 PUSH2 0x8D3 JUMP JUMPDEST DUP1 PUSH1 0x0 JUMPDEST DUP4 DUP2 LT ISZERO PUSH2 0x968 JUMPI DUP2 MLOAD PUSH2 0x94F DUP9 DUP3 PUSH2 0x8F2 JUMP JUMPDEST SWAP8 POP PUSH2 0x95A DUP4 PUSH2 0x90A JUMP JUMPDEST SWAP3 POP POP PUSH1 0x1 DUP2 ADD SWAP1 POP PUSH2 0x93B JUMP JUMPDEST POP DUP6 SWAP4 POP POP POP POP SWAP3 SWAP2 POP POP JUMP JUMPDEST PUSH1 0x0 DUP2 MLOAD SWAP1 POP SWAP2 SWAP1 POP JUMP JUMPDEST PUSH1 0x0 DUP3 DUP3 MSTORE PUSH1 0x20 DUP3 ADD SWAP1 POP SWAP3 SWAP2 POP POP JUMP JUMPDEST PUSH1 0x0 DUP2 SWAP1 POP PUSH1 0x20 DUP3 ADD SWAP1 POP SWAP2 SWAP1 POP JUMP JUMPDEST PUSH1 0x0 DUP2 MLOAD SWAP1 POP SWAP2 SWAP1 POP JUMP JUMPDEST PUSH1 0x0 DUP3 DUP3 MSTORE PUSH1 0x20 DUP3 ADD SWAP1 POP SWAP3 SWAP2 POP POP JUMP JUMPDEST PUSH1 0x0 JUMPDEST DUP4 DUP2 LT ISZERO PUSH2 0x9DB JUMPI DUP1 DUP3 ADD MLOAD DUP2 DUP5 ADD MSTORE PUSH1 0x20 DUP2 ADD SWAP1 POP PUSH2 0x9C0 JUMP JUMPDEST PUSH1 0x0 DUP5 DUP5 ADD MSTORE POP POP POP POP JUMP JUMPDEST PUSH1 0x0 PUSH2 0x9F2 DUP3 PUSH2 0x9A1 JUMP JUMPDEST PUSH2 0x9FC DUP2 DUP6 PUSH2 0x9AC JUMP JUMPDEST SWAP4 POP PUSH2 0xA0C DUP2 DUP6 PUSH1 0x20 DUP7 ADD PUSH2 0x9BD JUMP JUMPDEST PUSH2 0xA15 DUP2 PUSH2 0x71F JUMP JUMPDEST DUP5 ADD SWAP2 POP POP SWAP3 SWAP2 POP POP JUMP JUMPDEST PUSH1 0x0 PUSH2 0xA2C DUP4 DUP4 PUSH2 0x9E7 JUMP JUMPDEST SWAP1 POP SWAP3 SWAP2 POP POP JUMP JUMPDEST PUSH1 0x0 PUSH1 0x20 DUP3 ADD SWAP1 POP SWAP2 SWAP1 POP JUMP JUMPDEST PUSH1 0x0 PUSH2 0xA4C DUP3 PUSH2 0x975 JUMP JUMPDEST PUSH2 0xA56 DUP2 DUP6 PUSH2 0x980 JUMP JUMPDEST SWAP4 POP DUP4 PUSH1 0x20 DUP3 MUL DUP6 ADD PUSH2 0xA68 DUP6 PUSH2 0x991 JUMP JUMPDEST DUP1 PUSH1 0x0 JUMPDEST DUP6 DUP2 LT ISZERO PUSH2 0xAA4 JUMPI DUP5 DUP5 SUB DUP10 MSTORE DUP2 MLOAD PUSH2 0xA85 DUP6 DUP3 PUSH2 0xA20 JUMP JUMPDEST SWAP5 POP PUSH2 0xA90 DUP4 PUSH2 0xA34 JUMP JUMPDEST SWAP3 POP PUSH1 0x20 DUP11 ADD SWAP10 POP POP PUSH1 0x1 DUP2 ADD SWAP1 POP PUSH2 0xA6C JUMP JUMPDEST POP DUP3 SWAP8 POP DUP8 SWAP6 POP POP POP POP POP POP SWAP3 SWAP2 POP POP JUMP JUMPDEST PUSH1 0x0 PUSH1 0x40 DUP3 ADD SWAP1 POP DUP2 DUP2 SUB PUSH1 0x0 DUP4 ADD MSTORE PUSH2 0xAD0 DUP2 DUP6 PUSH2 0x917 JUMP JUMPDEST SWAP1 POP DUP2 DUP2 SUB PUSH1 0x20 DUP4 ADD MSTORE PUSH2 0xAE4 DUP2 DUP5 PUSH2 0xA41 JUMP JUMPDEST SWAP1 POP SWAP4 SWAP3 POP POP POP JUMP JUMPDEST PUSH1 0x0 PUSH1 0x20 DUP3 DUP5 SUB SLT ISZERO PUSH2 0xB03 JUMPI PUSH2 0xB02 PUSH2 0x6D5 JUMP JUMPDEST JUMPDEST PUSH1 0x0 PUSH2 0xB11 DUP5 DUP3 DUP6 ADD PUSH2 0x700 JUMP JUMPDEST SWAP2 POP POP SWAP3 SWAP2 POP POP JUMP JUMPDEST PUSH1 0x0 DUP3 DUP3 MSTORE PUSH1 0x20 DUP3 ADD SWAP1 POP SWAP3 SWAP2 POP POP JUMP JUMPDEST PUSH1 0x0 PUSH2 0xB36 DUP3 PUSH2 0x9A1 JUMP JUMPDEST PUSH2 0xB40 DUP2 DUP6 PUSH2 0xB1A JUMP JUMPDEST SWAP4 POP PUSH2 0xB50 DUP2 DUP6 PUSH1 0x20 DUP7 ADD PUSH2 0x9BD JUMP JUMPDEST PUSH2 0xB59 DUP2 PUSH2 0x71F JUMP JUMPDEST DUP5 ADD SWAP2 POP POP SWAP3 SWAP2 POP POP JUMP JUMPDEST PUSH1 0x0 PUSH1 0x20 DUP3 ADD SWAP1 POP DUP2 DUP2 SUB PUSH1 0x0 DUP4 ADD MSTORE PUSH2 0xB7E DUP2 DUP5 PUSH2 0xB2B JUMP JUMPDEST SWAP1 POP SWAP3 SWAP2 POP POP JUMP JUMPDEST PUSH2 0xB8F DUP2 PUSH2 0x6DF JUMP JUMPDEST DUP3 MSTORE POP POP JUMP JUMPDEST PUSH1 0x0 PUSH1 0x20 DUP3 ADD SWAP1 POP PUSH2 0xBAA PUSH1 0x0 DUP4 ADD DUP5 PUSH2 0xB86 JUMP JUMPDEST SWAP3 SWAP2 POP POP JUMP JUMPDEST PUSH32 0x4E616D61204B617465676F726920746964616B20626F6C6568206B6F736F6E67 PUSH1 0x0 DUP3 ADD MSTORE POP JUMP JUMPDEST PUSH1 0x0 PUSH2 0xBE6 PUSH1 0x20 DUP4 PUSH2 0xB1A JUMP JUMPDEST SWAP2 POP PUSH2 0xBF1 DUP3 PUSH2 0xBB0 JUMP JUMPDEST PUSH1 0x20 DUP3 ADD SWAP1 POP SWAP2 SWAP1 POP JUMP JUMPDEST PUSH1 0x0 PUSH1 0x20 DUP3 ADD SWAP1 POP DUP2 DUP2 SUB PUSH1 0x0 DUP4 ADD MSTORE PUSH2 0xC15 DUP2 PUSH2 0xBD9 JUMP JUMPDEST SWAP1 POP SWAP2 SWAP1 POP JUMP JUMPDEST PUSH32 0x4E487B7100000000000000000000000000000000000000000000000000000000 PUSH1 0x0 MSTORE PUSH1 0x22 PUSH1 0x4 MSTORE PUSH1 0x24 PUSH1 0x0 REVERT JUMPDEST PUSH1 0x0 PUSH1 0x2 DUP3 DIV SWAP1 POP PUSH1 0x1 DUP3 AND DUP1 PUSH2 0xC63 JUMPI PUSH1 0x7F DUP3 AND SWAP2 POP JUMPDEST PUSH1 0x20 DUP3 LT DUP2 SUB PUSH2 0xC76 JUMPI PUSH2 0xC75 PUSH2 0xC1C JUMP JUMPDEST JUMPDEST POP SWAP2 SWAP1 POP JUMP JUMPDEST PUSH1 0x0 DUP2 SWAP1 POP DUP2 PUSH1 0x0 MSTORE PUSH1 0x20 PUSH1 0x0 KECCAK256 SWAP1 POP SWAP2 SWAP1 POP JUMP JUMPDEST PUSH1 0x0 PUSH1 0x20 PUSH1 0x1F DUP4 ADD DIV SWAP1 POP SWAP2 SWAP1 POP JUMP JUMPDEST PUSH1 0x0 DUP3 DUP3 SHL SWAP1 POP SWAP3 SWAP2 POP POP JUMP JUMPDEST PUSH1 0x0 PUSH1 0x8 DUP4 MUL PUSH2 0xCDE PUSH32 0xFFFFFFFFFFFFFFFFFFFFFFFFFFFFFFFFFFFFFFFFFFFFFFFFFFFFFFFFFFFFFFFF DUP3 PUSH2 0xCA1 JUMP JUMPDEST PUSH2 0xCE8 DUP7 DUP4 PUSH2 0xCA1 JUMP JUMPDEST SWAP6 POP DUP1 NOT DUP5 AND SWAP4 POP DUP1 DUP7 AND DUP5 OR SWAP3 POP POP POP SWAP4 SWAP3 POP POP POP JUMP JUMPDEST PUSH1 0x0 DUP2 SWAP1 POP SWAP2 SWAP1 POP JUMP JUMPDEST PUSH1 0x0 PUSH2 0xD25 PUSH2 0xD20 PUSH2 0xD1B DUP5 PUSH2 0x6DF JUMP JUMPDEST PUSH2 0xD00 JUMP JUMPDEST PUSH2 0x6DF JUMP JUMPDEST SWAP1 POP SWAP2 SWAP1 POP JUMP JUMPDEST PUSH1 0x0 DUP2 SWAP1 POP SWAP2 SWAP1 POP JUMP JUMPDEST PUSH2 0xD3F DUP4 PUSH2 0xD0A JUMP JUMPDEST PUSH2 0xD53 PUSH2 0xD4B DUP3 PUSH2 0xD2C JUMP JUMPDEST DUP5 DUP5 SLOAD PUSH2 0xCAE JUMP JUMPDEST DUP3 SSTORE POP POP POP POP JUMP JUMPDEST PUSH1 0x0 SWAP1 JUMP JUMPDEST PUSH2 0xD68 PUSH2 0xD5B JUMP JUMPDEST PUSH2 0xD73 DUP2 DUP5 DUP5 PUSH2 0xD36 JUMP JUMPDEST POP POP POP JUMP JUMPDEST JUMPDEST DUP2 DUP2 LT ISZERO PUSH2 0xD97 JUMPI PUSH2 0xD8C PUSH1 0x0 DUP3 PUSH2 0xD60 JUMP JUMPDEST PUSH1 0x1 DUP2 ADD SWAP1 POP PUSH2 0xD79 JUMP JUMPDEST POP POP JUMP JUMPDEST PUSH1 0x1F DUP3 GT ISZERO PUSH2 0xDDC JUMPI PUSH2 0xDAD DUP2 PUSH2 0xC7C JUMP JUMPDEST PUSH2 0xDB6 DUP5 PUSH2 0xC91 JUMP JUMPDEST DUP2 ADD PUSH1 0x20 DUP6 LT ISZERO PUSH2 0xDC5 JUMPI DUP2 SWAP1 POP JUMPDEST PUSH2 0xDD9 PUSH2 0xDD1 DUP6 PUSH2 0xC91 JUMP JUMPDEST DUP4 ADD DUP3 PUSH2 0xD78 JUMP JUMPDEST POP POP JUMPDEST POP POP POP JUMP JUMPDEST PUSH1 0x0 DUP3 DUP3 SHR SWAP1 POP SWAP3 SWAP2 POP POP JUMP JUMPDEST PUSH1 0x0 PUSH2 0xDFF PUSH1 0x0 NOT DUP5 PUSH1 0x8 MUL PUSH2 0xDE1 JUMP JUMPDEST NOT DUP1 DUP4 AND SWAP2 POP POP SWAP3 SWAP2 POP POP JUMP JUMPDEST PUSH1 0x0 PUSH2 0xE18 DUP4 DUP4 PUSH2 0xDEE JUMP JUMPDEST SWAP2 POP DUP3 PUSH1 0x2 MUL DUP3 OR SWAP1 POP SWAP3 SWAP2 POP POP JUMP JUMPDEST PUSH2 0xE31 DUP3 PUSH2 0x9A1 JUMP JUMPDEST PUSH8 0xFFFFFFFFFFFFFFFF DUP2 GT ISZERO PUSH2 0xE4A JUMPI PUSH2 0xE49 PUSH2 0x730 JUMP JUMPDEST JUMPDEST PUSH2 0xE54 DUP3 SLOAD PUSH2 0xC4B JUMP JUMPDEST PUSH2 0xE5F DUP3 DUP3 DUP6 PUSH2 0xD9B JUMP JUMPDEST PUSH1 0x0 PUSH1 0x20 SWAP1 POP PUSH1 0x1F DUP4 GT PUSH1 0x1 DUP2 EQ PUSH2 0xE92 JUMPI PUSH1 0x0 DUP5 ISZERO PUSH2 0xE80 JUMPI DUP3 DUP8 ADD MLOAD SWAP1 POP JUMPDEST PUSH2 0xE8A DUP6 DUP3 PUSH2 0xE0C JUMP JUMPDEST DUP7 SSTORE POP PUSH2 0xEF2 JUMP JUMPDEST PUSH1 0x1F NOT DUP5 AND PUSH2 0xEA0 DUP7 PUSH2 0xC7C JUMP JUMPDEST PUSH1 0x0 JUMPDEST DUP3 DUP2 LT ISZERO PUSH2 0xEC8 JUMPI DUP5 DUP10 ADD MLOAD DUP3 SSTORE PUSH1 0x1 DUP3 ADD SWAP2 POP PUSH1 0x20 DUP6 ADD SWAP5 POP PUSH1 0x20 DUP2 ADD SWAP1 POP PUSH2 0xEA3 JUMP JUMPDEST DUP7 DUP4 LT ISZERO PUSH2 0xEE5 JUMPI DUP5 DUP10 ADD MLOAD PUSH2 0xEE1 PUSH1 0x1F DUP10 AND DUP3 PUSH2 0xDEE JUMP JUMPDEST DUP4 SSTORE POP JUMPDEST PUSH1 0x1 PUSH1 0x2 DUP9 MUL ADD DUP9 SSTORE POP POP POP JUMPDEST POP POP POP POP POP POP JUMP JUMPDEST PUSH32 0x4E487B7100000000000000000000000000000000000000000000000000000000 PUSH1 0x0 MSTORE PUSH1 0x32 PUSH1 0x4 MSTORE PUSH1 0x24 PUSH1 0x0 REVERT JUMPDEST PUSH32 0x4E487B7100000000000000000000000000000000000000000000000000000000 PUSH1 0x0 MSTORE PUSH1 0x11 PUSH1 0x4 MSTORE PUSH1 0x24 PUSH1 0x0 REVERT JUMPDEST PUSH1 0x0 PUSH2 0xF63 DUP3 PUSH2 0x6DF JUMP JUMPDEST SWAP2 POP PUSH2 0xF6E DUP4 PUSH2 0x6DF JUMP JUMPDEST SWAP3 POP DUP3 DUP3 SUB SWAP1 POP DUP2 DUP2 GT ISZERO PUSH2 0xF86 JUMPI PUSH2 0xF85 PUSH2 0xF29 JUMP JUMPDEST JUMPDEST SWAP3 SWAP2 POP POP JUMP JUMPDEST PUSH32 0x4E487B7100000000000000000000000000000000000000000000000000000000 PUSH1 0x0 MSTORE PUSH1 0x31 PUSH1 0x4 MSTORE PUSH1 0x24 PUSH1 0x0 REVERT INVALID LOG2 PUSH5 0x6970667358 0x22 SLT KECCAK256 0xAD SGT SWAP12 PUSH9 0xD125987BBFC945A1CE 0x25 0x4C DUP8 DUP1 DUP5 CODESIZE BLOBBASEFEE 0xBE SIGNEXTEND DUP10 0xCF SMOD STOP KECCAK256 0x22 0xA8 SWAP8 0xAE 0xCD PUSH5 0x736F6C6343 STOP ADDMOD SHR STOP CALLER "
				},
				"gasEstimates": {
					"creation": {
						"codeDepositCost": "816200",
						"executionCost": "851",
						"totalCost": "817051"
					},
					"external": {
						"deleteKategori(uint256)": "infinite",
						"getAllKategori()": "infinite",
						"getCountKategori()": "2467",
						"getKategori(uint256)": "infinite",
						"idKategori(uint256)": "infinite",
						"tambahKategori(uint256,string)": "infinite",
						"updateKategori(uint256,string)": "infinite"
					}
				},
				"methodIdentifiers": {
					"deleteKategori(uint256)": "cbeec408",
					"getAllKategori()": "44c711ae",
					"getCountKategori()": "d02a6159",
					"getKategori(uint256)": "4f1411c1",
					"idKategori(uint256)": "d78d7b53",
					"tambahKategori(uint256,string)": "3988b27b",
					"updateKategori(uint256,string)": "e244e23b"
				}
			},
			"storageLayout": {
				"storage": [
					{
						"astId": 9,
						"contract": "app/Contracts/Kategori.sol:Kategori",
						"label": "kategoriData",
						"offset": 0,
						"slot": "0",
						"type": "t_mapping(t_uint256,t_struct(KategoriData)4_storage)"
					},
					{
						"astId": 12,
						"contract": "app/Contracts/Kategori.sol:Kategori",
						"label": "idKategori",
						"offset": 0,
						"slot": "1",
						"type": "t_array(t_uint256)dyn_storage"
					}
				],
				"types": {
					"t_array(t_uint256)dyn_storage": {
						"base": "t_uint256",
						"encoding": "dynamic_array",
						"label": "uint256[]",
						"numberOfBytes": "32"
					},
					"t_mapping(t_uint256,t_struct(KategoriData)4_storage)": {
						"encoding": "mapping",
						"key": "t_uint256",
						"label": "mapping(uint256 => struct Kategori.KategoriData)",
						"numberOfBytes": "32",
						"value": "t_struct(KategoriData)4_storage"
					},
					"t_string_storage": {
						"encoding": "bytes",
						"label": "string",
						"numberOfBytes": "32"
					},
					"t_struct(KategoriData)4_storage": {
						"encoding": "inplace",
						"label": "struct Kategori.KategoriData",
						"members": [
							{
								"astId": 3,
								"contract": "app/Contracts/Kategori.sol:Kategori",
								"label": "nama_kategori",
								"offset": 0,
								"slot": "0",
								"type": "t_string_storage"
							}
						],
						"numberOfBytes": "32"
					},
					"t_uint256": {
						"encoding": "inplace",
						"label": "uint256",
						"numberOfBytes": "32"
					}
				}
			},
			"userdoc": {
				"kind": "user",
				"methods": {},
				"version": 1
			}
		}
	}
}