{
	"app/Contracts/PetaniCRUD.sol": {
		"Petani": {
			"abi": [
				{
					"inputs": [
						{
							"internalType": "uint256",
							"name": "_id",
							"type": "uint256"
						},
						{
							"internalType": "string",
							"name": "_nama",
							"type": "string"
						},
						{
							"internalType": "uint256",
							"name": "_usia",
							"type": "uint256"
						},
						{
							"internalType": "string",
							"name": "_lokasi",
							"type": "string"
						}
					],
					"name": "addPetani",
					"outputs": [],
					"stateMutability": "nonpayable",
					"type": "function"
				},
				{
					"inputs": [],
					"name": "getAllPetani",
					"outputs": [
						{
							"internalType": "string[]",
							"name": "",
							"type": "string[]"
						},
						{
							"internalType": "uint256[]",
							"name": "",
							"type": "uint256[]"
						},
						{
							"internalType": "string[]",
							"name": "",
							"type": "string[]"
						}
					],
					"stateMutability": "view",
					"type": "function"
				},
				{
					"inputs": [
						{
							"internalType": "uint256",
							"name": "_id",
							"type": "uint256"
						}
					],
					"name": "getPetani",
					"outputs": [
						{
							"internalType": "string",
							"name": "",
							"type": "string"
						},
						{
							"internalType": "uint256",
							"name": "",
							"type": "uint256"
						},
						{
							"internalType": "string",
							"name": "",
							"type": "string"
						}
					],
					"stateMutability": "view",
					"type": "function"
				},
				{
					"inputs": [
						{
							"internalType": "uint256",
							"name": "",
							"type": "uint256"
						}
					],
					"name": "petani",
					"outputs": [
						{
							"internalType": "string",
							"name": "nama",
							"type": "string"
						},
						{
							"internalType": "uint256",
							"name": "usia",
							"type": "uint256"
						},
						{
							"internalType": "string",
							"name": "lokasi",
							"type": "string"
						}
					],
					"stateMutability": "view",
					"type": "function"
				},
				{
					"inputs": [
						{
							"internalType": "uint256",
							"name": "",
							"type": "uint256"
						}
					],
					"name": "petaniIds",
					"outputs": [
						{
							"internalType": "uint256",
							"name": "",
							"type": "uint256"
						}
					],
					"stateMutability": "view",
					"type": "function"
				}
			],
			"devdoc": {
				"kind": "dev",
				"methods": {},
				"version": 1
			},
			"evm": {
				"assembly": "    /* \"app/Contracts/PetaniCRUD.sol\":57:1732  contract Petani {... */\n  mstore(0x40, 0x80)\n  callvalue\n  dup1\n  iszero\n  tag_1\n  jumpi\n  0x00\n  dup1\n  revert\ntag_1:\n  pop\n  dataSize(sub_0)\n  dup1\n  dataOffset(sub_0)\n  0x00\n  codecopy\n  0x00\n  return\nstop\n\nsub_0: assembly {\n        /* \"app/Contracts/PetaniCRUD.sol\":57:1732  contract Petani {... */\n      mstore(0x40, 0x80)\n      callvalue\n      dup1\n      iszero\n      tag_1\n      jumpi\n      0x00\n      dup1\n      revert\n    tag_1:\n      pop\n      jumpi(tag_2, lt(calldatasize, 0x04))\n      shr(0xe0, calldataload(0x00))\n      dup1\n      0x7c84040c\n      eq\n      tag_3\n      jumpi\n      dup1\n      0x87d636de\n      eq\n      tag_4\n      jumpi\n      dup1\n      0x90d9d40a\n      eq\n      tag_5\n      jumpi\n      dup1\n      0xea51dee0\n      eq\n      tag_6\n      jumpi\n      dup1\n      0xf6042d93\n      eq\n      tag_7\n      jumpi\n    tag_2:\n      0x00\n      dup1\n      revert\n        /* \"app/Contracts/PetaniCRUD.sol\":235:279  mapping(uint256 => PetaniData) public petani */\n    tag_3:\n      tag_8\n      0x04\n      dup1\n      calldatasize\n      sub\n      dup2\n      add\n      swap1\n      tag_9\n      swap2\n      swap1\n      tag_10\n      jump\t// in\n    tag_9:\n      tag_11\n      jump\t// in\n    tag_8:\n      mload(0x40)\n      tag_12\n      swap4\n      swap3\n      swap2\n      swap1\n      tag_13\n      jump\t// in\n    tag_12:\n      mload(0x40)\n      dup1\n      swap2\n      sub\n      swap1\n      return\n        /* \"app/Contracts/PetaniCRUD.sol\":335:361  uint256[] public petaniIds */\n    tag_4:\n      tag_14\n      0x04\n      dup1\n      calldatasize\n      sub\n      dup2\n      add\n      swap1\n      tag_15\n      swap2\n      swap1\n      tag_10\n      jump\t// in\n    tag_15:\n      tag_16\n      jump\t// in\n    tag_14:\n      mload(0x40)\n      tag_17\n      swap2\n      swap1\n      tag_18\n      jump\t// in\n    tag_17:\n      mload(0x40)\n      dup1\n      swap2\n      sub\n      swap1\n      return\n        /* \"app/Contracts/PetaniCRUD.sol\":412:756  function addPetani(uint256 _id, string memory _nama, uint256 _usia, string memory _lokasi) public {... */\n    tag_5:\n      tag_19\n      0x04\n      dup1\n      calldatasize\n      sub\n      dup2\n      add\n      swap1\n      tag_20\n      swap2\n      swap1\n      tag_21\n      jump\t// in\n    tag_20:\n      tag_22\n      jump\t// in\n    tag_19:\n      stop\n        /* \"app/Contracts/PetaniCRUD.sol\":1053:1730  function getAllPetani() public view returns (string[] memory, uint256[] memory, string[] memory) {... */\n    tag_6:\n      tag_23\n      tag_24\n      jump\t// in\n    tag_23:\n      mload(0x40)\n      tag_25\n      swap4\n      swap3\n      swap2\n      swap1\n      tag_26\n      jump\t// in\n    tag_25:\n      mload(0x40)\n      dup1\n      swap2\n      sub\n      swap1\n      return\n        /* \"app/Contracts/PetaniCRUD.sol\":819:1004  function getPetani(uint256 _id) public view returns (string memory, uint256, string memory) {... */\n    tag_7:\n      tag_27\n      0x04\n      dup1\n      calldatasize\n      sub\n      dup2\n      add\n      swap1\n      tag_28\n      swap2\n      swap1\n      tag_10\n      jump\t// in\n    tag_28:\n      tag_29\n      jump\t// in\n    tag_27:\n      mload(0x40)\n      tag_30\n      swap4\n      swap3\n      swap2\n      swap1\n      tag_13\n      jump\t// in\n    tag_30:\n      mload(0x40)\n      dup1\n      swap2\n      sub\n      swap1\n      return\n        /* \"app/Contracts/PetaniCRUD.sol\":235:279  mapping(uint256 => PetaniData) public petani */\n    tag_11:\n      mstore(0x20, 0x00)\n      dup1\n      0x00\n      mstore\n      keccak256(0x00, 0x40)\n      0x00\n      swap2\n      pop\n      swap1\n      pop\n      dup1\n      0x00\n      add\n      dup1\n      sload\n      tag_31\n      swap1\n      tag_32\n      jump\t// in\n    tag_31:\n      dup1\n      0x1f\n      add\n      0x20\n      dup1\n      swap2\n      div\n      mul\n      0x20\n      add\n      mload(0x40)\n      swap1\n      dup2\n      add\n      0x40\n      mstore\n      dup1\n      swap3\n      swap2\n      swap1\n      dup2\n      dup2\n      mstore\n      0x20\n      add\n      dup3\n      dup1\n      sload\n      tag_33\n      swap1\n      tag_32\n      jump\t// in\n    tag_33:\n      dup1\n      iszero\n      tag_34\n      jumpi\n      dup1\n      0x1f\n      lt\n      tag_35\n      jumpi\n      0x0100\n      dup1\n      dup4\n      sload\n      div\n      mul\n      dup4\n      mstore\n      swap2\n      0x20\n      add\n      swap2\n      jump(tag_34)\n    tag_35:\n      dup3\n      add\n      swap2\n      swap1\n      0x00\n      mstore\n      keccak256(0x00, 0x20)\n      swap1\n    tag_36:\n      dup2\n      sload\n      dup2\n      mstore\n      swap1\n      0x01\n      add\n      swap1\n      0x20\n      add\n      dup1\n      dup4\n      gt\n      tag_36\n      jumpi\n      dup3\n      swap1\n      sub\n      0x1f\n      and\n      dup3\n      add\n      swap2\n    tag_34:\n      pop\n      pop\n      pop\n      pop\n      pop\n      swap1\n      dup1\n      0x01\n      add\n      sload\n      swap1\n      dup1\n      0x02\n      add\n      dup1\n      sload\n      tag_37\n      swap1\n      tag_32\n      jump\t// in\n    tag_37:\n      dup1\n      0x1f\n      add\n      0x20\n      dup1\n      swap2\n      div\n      mul\n      0x20\n      add\n      mload(0x40)\n      swap1\n      dup2\n      add\n      0x40\n      mstore\n      dup1\n      swap3\n      swap2\n      swap1\n      dup2\n      dup2\n      mstore\n      0x20\n      add\n      dup3\n      dup1\n      sload\n      tag_38\n      swap1\n      tag_32\n      jump\t// in\n    tag_38:\n      dup1\n      iszero\n      tag_39\n      jumpi\n      dup1\n      0x1f\n      lt\n      tag_40\n      jumpi\n      0x0100\n      dup1\n      dup4\n      sload\n      div\n      mul\n      dup4\n      mstore\n      swap2\n      0x20\n      add\n      swap2\n      jump(tag_39)\n    tag_40:\n      dup3\n      add\n      swap2\n      swap1\n      0x00\n      mstore\n      keccak256(0x00, 0x20)\n      swap1\n    tag_41:\n      dup2\n      sload\n      dup2\n      mstore\n      swap1\n      0x01\n      add\n      swap1\n      0x20\n      add\n      dup1\n      dup4\n      gt\n      tag_41\n      jumpi\n      dup3\n      swap1\n      sub\n      0x1f\n      and\n      dup3\n      add\n      swap2\n    tag_39:\n      pop\n      pop\n      pop\n      pop\n      pop\n      swap1\n      pop\n      dup4\n      jump\t// out\n        /* \"app/Contracts/PetaniCRUD.sol\":335:361  uint256[] public petaniIds */\n    tag_16:\n      0x01\n      dup2\n      dup2\n      sload\n      dup2\n      lt\n      tag_42\n      jumpi\n      0x00\n      dup1\n      revert\n    tag_42:\n      swap1\n      0x00\n      mstore\n      keccak256(0x00, 0x20)\n      add\n      0x00\n      swap2\n      pop\n      swap1\n      pop\n      sload\n      dup2\n      jump\t// out\n        /* \"app/Contracts/PetaniCRUD.sol\":412:756  function addPetani(uint256 _id, string memory _nama, uint256 _usia, string memory _lokasi) public {... */\n    tag_22:\n        /* \"app/Contracts/PetaniCRUD.sol\":520:547  PetaniData memory newPetani */\n      0x00\n        /* \"app/Contracts/PetaniCRUD.sol\":550:651  PetaniData({... */\n      mload(0x40)\n      dup1\n      0x60\n      add\n      0x40\n      mstore\n      dup1\n        /* \"app/Contracts/PetaniCRUD.sol\":581:586  _nama */\n      dup6\n        /* \"app/Contracts/PetaniCRUD.sol\":550:651  PetaniData({... */\n      dup2\n      mstore\n      0x20\n      add\n        /* \"app/Contracts/PetaniCRUD.sol\":606:611  _usia */\n      dup5\n        /* \"app/Contracts/PetaniCRUD.sol\":550:651  PetaniData({... */\n      dup2\n      mstore\n      0x20\n      add\n        /* \"app/Contracts/PetaniCRUD.sol\":633:640  _lokasi */\n      dup4\n        /* \"app/Contracts/PetaniCRUD.sol\":550:651  PetaniData({... */\n      dup2\n      mstore\n      pop\n        /* \"app/Contracts/PetaniCRUD.sol\":520:651  PetaniData memory newPetani = PetaniData({... */\n      swap1\n      pop\n        /* \"app/Contracts/PetaniCRUD.sol\":676:685  newPetani */\n      dup1\n        /* \"app/Contracts/PetaniCRUD.sol\":662:668  petani */\n      0x00\n        /* \"app/Contracts/PetaniCRUD.sol\":662:673  petani[_id] */\n      dup1\n        /* \"app/Contracts/PetaniCRUD.sol\":669:672  _id */\n      dup8\n        /* \"app/Contracts/PetaniCRUD.sol\":662:673  petani[_id] */\n      dup2\n      mstore\n      0x20\n      add\n      swap1\n      dup2\n      mstore\n      0x20\n      add\n      0x00\n      keccak256\n        /* \"app/Contracts/PetaniCRUD.sol\":662:685  petani[_id] = newPetani */\n      0x00\n      dup3\n      add\n      mload\n      dup2\n      0x00\n      add\n      swap1\n      dup2\n      tag_45\n      swap2\n      swap1\n      tag_46\n      jump\t// in\n    tag_45:\n      pop\n      0x20\n      dup3\n      add\n      mload\n      dup2\n      0x01\n      add\n      sstore\n      0x40\n      dup3\n      add\n      mload\n      dup2\n      0x02\n      add\n      swap1\n      dup2\n      tag_47\n      swap2\n      swap1\n      tag_46\n      jump\t// in\n    tag_47:\n      pop\n      swap1\n      pop\n      pop\n        /* \"app/Contracts/PetaniCRUD.sol\":695:704  petaniIds */\n      0x01\n        /* \"app/Contracts/PetaniCRUD.sol\":710:713  _id */\n      dup6\n        /* \"app/Contracts/PetaniCRUD.sol\":695:714  petaniIds.push(_id) */\n      swap1\n      dup1\n      0x01\n      dup2\n      sload\n      add\n      dup1\n      dup3\n      sstore\n      dup1\n      swap2\n      pop\n      pop\n      0x01\n      swap1\n      sub\n      swap1\n      0x00\n      mstore\n      keccak256(0x00, 0x20)\n      add\n      0x00\n      swap1\n      swap2\n      swap1\n      swap2\n      swap1\n      swap2\n      pop\n      sstore\n        /* \"app/Contracts/PetaniCRUD.sol\":510:756  {... */\n      pop\n        /* \"app/Contracts/PetaniCRUD.sol\":412:756  function addPetani(uint256 _id, string memory _nama, uint256 _usia, string memory _lokasi) public {... */\n      pop\n      pop\n      pop\n      pop\n      jump\t// out\n        /* \"app/Contracts/PetaniCRUD.sol\":1053:1730  function getAllPetani() public view returns (string[] memory, uint256[] memory, string[] memory) {... */\n    tag_24:\n        /* \"app/Contracts/PetaniCRUD.sol\":1098:1113  string[] memory */\n      0x60\n        /* \"app/Contracts/PetaniCRUD.sol\":1115:1131  uint256[] memory */\n      dup1\n        /* \"app/Contracts/PetaniCRUD.sol\":1133:1148  string[] memory */\n      0x60\n        /* \"app/Contracts/PetaniCRUD.sol\":1160:1179  uint256 petaniCount */\n      0x00\n        /* \"app/Contracts/PetaniCRUD.sol\":1182:1191  petaniIds */\n      0x01\n        /* \"app/Contracts/PetaniCRUD.sol\":1182:1198  petaniIds.length */\n      dup1\n      sload\n      swap1\n      pop\n        /* \"app/Contracts/PetaniCRUD.sol\":1160:1198  uint256 petaniCount = petaniIds.length */\n      swap1\n      pop\n        /* \"app/Contracts/PetaniCRUD.sol\":1209:1235  string[] memory namaPetani */\n      0x00\n        /* \"app/Contracts/PetaniCRUD.sol\":1251:1262  petaniCount */\n      dup2\n        /* \"app/Contracts/PetaniCRUD.sol\":1238:1263  new string[](petaniCount) */\n      0xffffffffffffffff\n      dup2\n      gt\n      iszero\n      tag_50\n      jumpi\n      tag_51\n      tag_52\n      jump\t// in\n    tag_51:\n    tag_50:\n      mload(0x40)\n      swap1\n      dup1\n      dup3\n      mstore\n      dup1\n      0x20\n      mul\n      0x20\n      add\n      dup3\n      add\n      0x40\n      mstore\n      dup1\n      iszero\n      tag_53\n      jumpi\n      dup2\n      0x20\n      add\n    tag_54:\n      0x60\n      dup2\n      mstore\n      0x20\n      add\n      swap1\n      0x01\n      swap1\n      sub\n      swap1\n      dup2\n      tag_54\n      jumpi\n      swap1\n      pop\n    tag_53:\n      pop\n        /* \"app/Contracts/PetaniCRUD.sol\":1209:1263  string[] memory namaPetani = new string[](petaniCount) */\n      swap1\n      pop\n        /* \"app/Contracts/PetaniCRUD.sol\":1273:1300  uint256[] memory usiaPetani */\n      0x00\n        /* \"app/Contracts/PetaniCRUD.sol\":1317:1328  petaniCount */\n      dup3\n        /* \"app/Contracts/PetaniCRUD.sol\":1303:1329  new uint256[](petaniCount) */\n      0xffffffffffffffff\n      dup2\n      gt\n      iszero\n      tag_55\n      jumpi\n      tag_56\n      tag_52\n      jump\t// in\n    tag_56:\n    tag_55:\n      mload(0x40)\n      swap1\n      dup1\n      dup3\n      mstore\n      dup1\n      0x20\n      mul\n      0x20\n      add\n      dup3\n      add\n      0x40\n      mstore\n      dup1\n      iszero\n      tag_57\n      jumpi\n      dup2\n      0x20\n      add\n      0x20\n      dup3\n      mul\n      dup1\n      calldatasize\n      dup4\n      calldatacopy\n      dup1\n      dup3\n      add\n      swap2\n      pop\n      pop\n      swap1\n      pop\n    tag_57:\n      pop\n        /* \"app/Contracts/PetaniCRUD.sol\":1273:1329  uint256[] memory usiaPetani = new uint256[](petaniCount) */\n      swap1\n      pop\n        /* \"app/Contracts/PetaniCRUD.sol\":1339:1367  string[] memory lokasiPetani */\n      0x00\n        /* \"app/Contracts/PetaniCRUD.sol\":1383:1394  petaniCount */\n      dup4\n        /* \"app/Contracts/PetaniCRUD.sol\":1370:1395  new string[](petaniCount) */\n      0xffffffffffffffff\n      dup2\n      gt\n      iszero\n      tag_58\n      jumpi\n      tag_59\n      tag_52\n      jump\t// in\n    tag_59:\n    tag_58:\n      mload(0x40)\n      swap1\n      dup1\n      dup3\n      mstore\n      dup1\n      0x20\n      mul\n      0x20\n      add\n      dup3\n      add\n      0x40\n      mstore\n      dup1\n      iszero\n      tag_60\n      jumpi\n      dup2\n      0x20\n      add\n    tag_61:\n      0x60\n      dup2\n      mstore\n      0x20\n      add\n      swap1\n      0x01\n      swap1\n      sub\n      swap1\n      dup2\n      tag_61\n      jumpi\n      swap1\n      pop\n    tag_60:\n      pop\n        /* \"app/Contracts/PetaniCRUD.sol\":1339:1395  string[] memory lokasiPetani = new string[](petaniCount) */\n      swap1\n      pop\n        /* \"app/Contracts/PetaniCRUD.sol\":1411:1420  uint256 i */\n      0x00\n        /* \"app/Contracts/PetaniCRUD.sol\":1406:1668  for (uint256 i = 0; i < petaniCount; i++) {... */\n    tag_62:\n        /* \"app/Contracts/PetaniCRUD.sol\":1430:1441  petaniCount */\n      dup5\n        /* \"app/Contracts/PetaniCRUD.sol\":1426:1427  i */\n      dup2\n        /* \"app/Contracts/PetaniCRUD.sol\":1426:1441  i < petaniCount */\n      lt\n        /* \"app/Contracts/PetaniCRUD.sol\":1406:1668  for (uint256 i = 0; i < petaniCount; i++) {... */\n      iszero\n      tag_63\n      jumpi\n        /* \"app/Contracts/PetaniCRUD.sol\":1462:1478  uint256 petaniId */\n      0x00\n        /* \"app/Contracts/PetaniCRUD.sol\":1481:1490  petaniIds */\n      0x01\n        /* \"app/Contracts/PetaniCRUD.sol\":1491:1492  i */\n      dup3\n        /* \"app/Contracts/PetaniCRUD.sol\":1481:1493  petaniIds[i] */\n      dup2\n      sload\n      dup2\n      lt\n      tag_65\n      jumpi\n      tag_66\n      tag_67\n      jump\t// in\n    tag_66:\n    tag_65:\n      swap1\n      0x00\n      mstore\n      keccak256(0x00, 0x20)\n      add\n      sload\n        /* \"app/Contracts/PetaniCRUD.sol\":1462:1493  uint256 petaniId = petaniIds[i] */\n      swap1\n      pop\n        /* \"app/Contracts/PetaniCRUD.sol\":1507:1526  PetaniData memory p */\n      0x00\n        /* \"app/Contracts/PetaniCRUD.sol\":1529:1535  petani */\n      dup1\n        /* \"app/Contracts/PetaniCRUD.sol\":1529:1545  petani[petaniId] */\n      0x00\n        /* \"app/Contracts/PetaniCRUD.sol\":1536:1544  petaniId */\n      dup4\n        /* \"app/Contracts/PetaniCRUD.sol\":1529:1545  petani[petaniId] */\n      dup2\n      mstore\n      0x20\n      add\n      swap1\n      dup2\n      mstore\n      0x20\n      add\n      0x00\n      keccak256\n        /* \"app/Contracts/PetaniCRUD.sol\":1507:1545  PetaniData memory p = petani[petaniId] */\n      mload(0x40)\n      dup1\n      0x60\n      add\n      0x40\n      mstore\n      swap1\n      dup2\n      0x00\n      dup3\n      add\n      dup1\n      sload\n      tag_69\n      swap1\n      tag_32\n      jump\t// in\n    tag_69:\n      dup1\n      0x1f\n      add\n      0x20\n      dup1\n      swap2\n      div\n      mul\n      0x20\n      add\n      mload(0x40)\n      swap1\n      dup2\n      add\n      0x40\n      mstore\n      dup1\n      swap3\n      swap2\n      swap1\n      dup2\n      dup2\n      mstore\n      0x20\n      add\n      dup3\n      dup1\n      sload\n      tag_70\n      swap1\n      tag_32\n      jump\t// in\n    tag_70:\n      dup1\n      iszero\n      tag_71\n      jumpi\n      dup1\n      0x1f\n      lt\n      tag_72\n      jumpi\n      0x0100\n      dup1\n      dup4\n      sload\n      div\n      mul\n      dup4\n      mstore\n      swap2\n      0x20\n      add\n      swap2\n      jump(tag_71)\n    tag_72:\n      dup3\n      add\n      swap2\n      swap1\n      0x00\n      mstore\n      keccak256(0x00, 0x20)\n      swap1\n    tag_73:\n      dup2\n      sload\n      dup2\n      mstore\n      swap1\n      0x01\n      add\n      swap1\n      0x20\n      add\n      dup1\n      dup4\n      gt\n      tag_73\n      jumpi\n      dup3\n      swap1\n      sub\n      0x1f\n      and\n      dup3\n      add\n      swap2\n    tag_71:\n      pop\n      pop\n      pop\n      pop\n      pop\n      dup2\n      mstore\n      0x20\n      add\n      0x01\n      dup3\n      add\n      sload\n      dup2\n      mstore\n      0x20\n      add\n      0x02\n      dup3\n      add\n      dup1\n      sload\n      tag_74\n      swap1\n      tag_32\n      jump\t// in\n    tag_74:\n      dup1\n      0x1f\n      add\n      0x20\n      dup1\n      swap2\n      div\n      mul\n      0x20\n      add\n      mload(0x40)\n      swap1\n      dup2\n      add\n      0x40\n      mstore\n      dup1\n      swap3\n      swap2\n      swap1\n      dup2\n      dup2\n      mstore\n      0x20\n      add\n      dup3\n      dup1\n      sload\n      tag_75\n      swap1\n      tag_32\n      jump\t// in\n    tag_75:\n      dup1\n      iszero\n      tag_76\n      jumpi\n      dup1\n      0x1f\n      lt\n      tag_77\n      jumpi\n      0x0100\n      dup1\n      dup4\n      sload\n      div\n      mul\n      dup4\n      mstore\n      swap2\n      0x20\n      add\n      swap2\n      jump(tag_76)\n    tag_77:\n      dup3\n      add\n      swap2\n      swap1\n      0x00\n      mstore\n      keccak256(0x00, 0x20)\n      swap1\n    tag_78:\n      dup2\n      sload\n      dup2\n      mstore\n      swap1\n      0x01\n      add\n      swap1\n      0x20\n      add\n      dup1\n      dup4\n      gt\n      tag_78\n      jumpi\n      dup3\n      swap1\n      sub\n      0x1f\n      and\n      dup3\n      add\n      swap2\n    tag_76:\n      pop\n      pop\n      pop\n      pop\n      pop\n      dup2\n      mstore\n      pop\n      pop\n      swap1\n      pop\n        /* \"app/Contracts/PetaniCRUD.sol\":1575:1576  p */\n      dup1\n        /* \"app/Contracts/PetaniCRUD.sol\":1575:1581  p.nama */\n      0x00\n      add\n      mload\n        /* \"app/Contracts/PetaniCRUD.sol\":1559:1569  namaPetani */\n      dup7\n        /* \"app/Contracts/PetaniCRUD.sol\":1570:1571  i */\n      dup5\n        /* \"app/Contracts/PetaniCRUD.sol\":1559:1572  namaPetani[i] */\n      dup2\n      mload\n      dup2\n      lt\n      tag_79\n      jumpi\n      tag_80\n      tag_67\n      jump\t// in\n    tag_80:\n    tag_79:\n      0x20\n      mul\n      0x20\n      add\n      add\n        /* \"app/Contracts/PetaniCRUD.sol\":1559:1581  namaPetani[i] = p.nama */\n      dup2\n      swap1\n      mstore\n      pop\n        /* \"app/Contracts/PetaniCRUD.sol\":1611:1612  p */\n      dup1\n        /* \"app/Contracts/PetaniCRUD.sol\":1611:1617  p.usia */\n      0x20\n      add\n      mload\n        /* \"app/Contracts/PetaniCRUD.sol\":1595:1605  usiaPetani */\n      dup6\n        /* \"app/Contracts/PetaniCRUD.sol\":1606:1607  i */\n      dup5\n        /* \"app/Contracts/PetaniCRUD.sol\":1595:1608  usiaPetani[i] */\n      dup2\n      mload\n      dup2\n      lt\n      tag_81\n      jumpi\n      tag_82\n      tag_67\n      jump\t// in\n    tag_82:\n    tag_81:\n      0x20\n      mul\n      0x20\n      add\n      add\n        /* \"app/Contracts/PetaniCRUD.sol\":1595:1617  usiaPetani[i] = p.usia */\n      dup2\n      dup2\n      mstore\n      pop\n      pop\n        /* \"app/Contracts/PetaniCRUD.sol\":1649:1650  p */\n      dup1\n        /* \"app/Contracts/PetaniCRUD.sol\":1649:1657  p.lokasi */\n      0x40\n      add\n      mload\n        /* \"app/Contracts/PetaniCRUD.sol\":1631:1643  lokasiPetani */\n      dup5\n        /* \"app/Contracts/PetaniCRUD.sol\":1644:1645  i */\n      dup5\n        /* \"app/Contracts/PetaniCRUD.sol\":1631:1646  lokasiPetani[i] */\n      dup2\n      mload\n      dup2\n      lt\n      tag_83\n      jumpi\n      tag_84\n      tag_67\n      jump\t// in\n    tag_84:\n    tag_83:\n      0x20\n      mul\n      0x20\n      add\n      add\n        /* \"app/Contracts/PetaniCRUD.sol\":1631:1657  lokasiPetani[i] = p.lokasi */\n      dup2\n      swap1\n      mstore\n      pop\n        /* \"app/Contracts/PetaniCRUD.sol\":1448:1668  {... */\n      pop\n      pop\n        /* \"app/Contracts/PetaniCRUD.sol\":1443:1446  i++ */\n      dup1\n      dup1\n      0x01\n      add\n      swap2\n      pop\n      pop\n        /* \"app/Contracts/PetaniCRUD.sol\":1406:1668  for (uint256 i = 0; i < petaniCount; i++) {... */\n      jump(tag_62)\n    tag_63:\n      pop\n        /* \"app/Contracts/PetaniCRUD.sol\":1686:1696  namaPetani */\n      dup3\n        /* \"app/Contracts/PetaniCRUD.sol\":1698:1708  usiaPetani */\n      dup3\n        /* \"app/Contracts/PetaniCRUD.sol\":1710:1722  lokasiPetani */\n      dup3\n        /* \"app/Contracts/PetaniCRUD.sol\":1678:1723  return (namaPetani, usiaPetani, lokasiPetani) */\n      swap7\n      pop\n      swap7\n      pop\n      swap7\n      pop\n      pop\n      pop\n      pop\n      pop\n        /* \"app/Contracts/PetaniCRUD.sol\":1053:1730  function getAllPetani() public view returns (string[] memory, uint256[] memory, string[] memory) {... */\n      swap1\n      swap2\n      swap3\n      jump\t// out\n        /* \"app/Contracts/PetaniCRUD.sol\":819:1004  function getPetani(uint256 _id) public view returns (string memory, uint256, string memory) {... */\n    tag_29:\n        /* \"app/Contracts/PetaniCRUD.sol\":872:885  string memory */\n      0x60\n        /* \"app/Contracts/PetaniCRUD.sol\":887:894  uint256 */\n      0x00\n        /* \"app/Contracts/PetaniCRUD.sol\":896:909  string memory */\n      0x60\n        /* \"app/Contracts/PetaniCRUD.sol\":921:940  PetaniData memory p */\n      0x00\n        /* \"app/Contracts/PetaniCRUD.sol\":943:949  petani */\n      dup1\n        /* \"app/Contracts/PetaniCRUD.sol\":943:954  petani[_id] */\n      0x00\n        /* \"app/Contracts/PetaniCRUD.sol\":950:953  _id */\n      dup7\n        /* \"app/Contracts/PetaniCRUD.sol\":943:954  petani[_id] */\n      dup2\n      mstore\n      0x20\n      add\n      swap1\n      dup2\n      mstore\n      0x20\n      add\n      0x00\n      keccak256\n        /* \"app/Contracts/PetaniCRUD.sol\":921:954  PetaniData memory p = petani[_id] */\n      mload(0x40)\n      dup1\n      0x60\n      add\n      0x40\n      mstore\n      swap1\n      dup2\n      0x00\n      dup3\n      add\n      dup1\n      sload\n      tag_86\n      swap1\n      tag_32\n      jump\t// in\n    tag_86:\n      dup1\n      0x1f\n      add\n      0x20\n      dup1\n      swap2\n      div\n      mul\n      0x20\n      add\n      mload(0x40)\n      swap1\n      dup2\n      add\n      0x40\n      mstore\n      dup1\n      swap3\n      swap2\n      swap1\n      dup2\n      dup2\n      mstore\n      0x20\n      add\n      dup3\n      dup1\n      sload\n      tag_87\n      swap1\n      tag_32\n      jump\t// in\n    tag_87:\n      dup1\n      iszero\n      tag_88\n      jumpi\n      dup1\n      0x1f\n      lt\n      tag_89\n      jumpi\n      0x0100\n      dup1\n      dup4\n      sload\n      div\n      mul\n      dup4\n      mstore\n      swap2\n      0x20\n      add\n      swap2\n      jump(tag_88)\n    tag_89:\n      dup3\n      add\n      swap2\n      swap1\n      0x00\n      mstore\n      keccak256(0x00, 0x20)\n      swap1\n    tag_90:\n      dup2\n      sload\n      dup2\n      mstore\n      swap1\n      0x01\n      add\n      swap1\n      0x20\n      add\n      dup1\n      dup4\n      gt\n      tag_90\n      jumpi\n      dup3\n      swap1\n      sub\n      0x1f\n      and\n      dup3\n      add\n      swap2\n    tag_88:\n      pop\n      pop\n      pop\n      pop\n      pop\n      dup2\n      mstore\n      0x20\n      add\n      0x01\n      dup3\n      add\n      sload\n      dup2\n      mstore\n      0x20\n      add\n      0x02\n      dup3\n      add\n      dup1\n      sload\n      tag_91\n      swap1\n      tag_32\n      jump\t// in\n    tag_91:\n      dup1\n      0x1f\n      add\n      0x20\n      dup1\n      swap2\n      div\n      mul\n      0x20\n      add\n      mload(0x40)\n      swap1\n      dup2\n      add\n      0x40\n      mstore\n      dup1\n      swap3\n      swap2\n      swap1\n      dup2\n      dup2\n      mstore\n      0x20\n      add\n      dup3\n      dup1\n      sload\n      tag_92\n      swap1\n      tag_32\n      jump\t// in\n    tag_92:\n      dup1\n      iszero\n      tag_93\n      jumpi\n      dup1\n      0x1f\n      lt\n      tag_94\n      jumpi\n      0x0100\n      dup1\n      dup4\n      sload\n      div\n      mul\n      dup4\n      mstore\n      swap2\n      0x20\n      add\n      swap2\n      jump(tag_93)\n    tag_94:\n      dup3\n      add\n      swap2\n      swap1\n      0x00\n      mstore\n      keccak256(0x00, 0x20)\n      swap1\n    tag_95:\n      dup2\n      sload\n      dup2\n      mstore\n      swap1\n      0x01\n      add\n      swap1\n      0x20\n      add\n      dup1\n      dup4\n      gt\n      tag_95\n      jumpi\n      dup3\n      swap1\n      sub\n      0x1f\n      and\n      dup3\n      add\n      swap2\n    tag_93:\n      pop\n      pop\n      pop\n      pop\n      pop\n      dup2\n      mstore\n      pop\n      pop\n      swap1\n      pop\n        /* \"app/Contracts/PetaniCRUD.sol\":972:973  p */\n      dup1\n        /* \"app/Contracts/PetaniCRUD.sol\":972:978  p.nama */\n      0x00\n      add\n      mload\n        /* \"app/Contracts/PetaniCRUD.sol\":980:981  p */\n      dup2\n        /* \"app/Contracts/PetaniCRUD.sol\":980:986  p.usia */\n      0x20\n      add\n      mload\n        /* \"app/Contracts/PetaniCRUD.sol\":988:989  p */\n      dup3\n        /* \"app/Contracts/PetaniCRUD.sol\":988:996  p.lokasi */\n      0x40\n      add\n      mload\n        /* \"app/Contracts/PetaniCRUD.sol\":964:997  return (p.nama, p.usia, p.lokasi) */\n      swap4\n      pop\n      swap4\n      pop\n      swap4\n      pop\n      pop\n        /* \"app/Contracts/PetaniCRUD.sol\":819:1004  function getPetani(uint256 _id) public view returns (string memory, uint256, string memory) {... */\n      swap2\n      swap4\n      swap1\n      swap3\n      pop\n      jump\t// out\n        /* \"#utility.yul\":7:82   */\n    tag_96:\n        /* \"#utility.yul\":40:46   */\n      0x00\n        /* \"#utility.yul\":73:75   */\n      0x40\n        /* \"#utility.yul\":67:76   */\n      mload\n        /* \"#utility.yul\":57:76   */\n      swap1\n      pop\n        /* \"#utility.yul\":7:82   */\n      swap1\n      jump\t// out\n        /* \"#utility.yul\":88:205   */\n    tag_97:\n        /* \"#utility.yul\":197:198   */\n      0x00\n        /* \"#utility.yul\":194:195   */\n      dup1\n        /* \"#utility.yul\":187:199   */\n      revert\n        /* \"#utility.yul\":211:328   */\n    tag_98:\n        /* \"#utility.yul\":320:321   */\n      0x00\n        /* \"#utility.yul\":317:318   */\n      dup1\n        /* \"#utility.yul\":310:322   */\n      revert\n        /* \"#utility.yul\":334:411   */\n    tag_99:\n        /* \"#utility.yul\":371:378   */\n      0x00\n        /* \"#utility.yul\":400:405   */\n      dup2\n        /* \"#utility.yul\":389:405   */\n      swap1\n      pop\n        /* \"#utility.yul\":334:411   */\n      swap2\n      swap1\n      pop\n      jump\t// out\n        /* \"#utility.yul\":417:539   */\n    tag_100:\n        /* \"#utility.yul\":490:514   */\n      tag_153\n        /* \"#utility.yul\":508:513   */\n      dup2\n        /* \"#utility.yul\":490:514   */\n      tag_99\n      jump\t// in\n    tag_153:\n        /* \"#utility.yul\":483:488   */\n      dup2\n        /* \"#utility.yul\":480:515   */\n      eq\n        /* \"#utility.yul\":470:533   */\n      tag_154\n      jumpi\n        /* \"#utility.yul\":529:530   */\n      0x00\n        /* \"#utility.yul\":526:527   */\n      dup1\n        /* \"#utility.yul\":519:531   */\n      revert\n        /* \"#utility.yul\":470:533   */\n    tag_154:\n        /* \"#utility.yul\":417:539   */\n      pop\n      jump\t// out\n        /* \"#utility.yul\":545:684   */\n    tag_101:\n        /* \"#utility.yul\":591:596   */\n      0x00\n        /* \"#utility.yul\":629:635   */\n      dup2\n        /* \"#utility.yul\":616:636   */\n      calldataload\n        /* \"#utility.yul\":607:636   */\n      swap1\n      pop\n        /* \"#utility.yul\":645:678   */\n      tag_156\n        /* \"#utility.yul\":672:677   */\n      dup2\n        /* \"#utility.yul\":645:678   */\n      tag_100\n      jump\t// in\n    tag_156:\n        /* \"#utility.yul\":545:684   */\n      swap3\n      swap2\n      pop\n      pop\n      jump\t// out\n        /* \"#utility.yul\":690:1019   */\n    tag_10:\n        /* \"#utility.yul\":749:755   */\n      0x00\n        /* \"#utility.yul\":798:800   */\n      0x20\n        /* \"#utility.yul\":786:795   */\n      dup3\n        /* \"#utility.yul\":777:784   */\n      dup5\n        /* \"#utility.yul\":773:796   */\n      sub\n        /* \"#utility.yul\":769:801   */\n      slt\n        /* \"#utility.yul\":766:885   */\n      iszero\n      tag_158\n      jumpi\n        /* \"#utility.yul\":804:883   */\n      tag_159\n      tag_97\n      jump\t// in\n    tag_159:\n        /* \"#utility.yul\":766:885   */\n    tag_158:\n        /* \"#utility.yul\":924:925   */\n      0x00\n        /* \"#utility.yul\":949:1002   */\n      tag_160\n        /* \"#utility.yul\":994:1001   */\n      dup5\n        /* \"#utility.yul\":985:991   */\n      dup3\n        /* \"#utility.yul\":974:983   */\n      dup6\n        /* \"#utility.yul\":970:992   */\n      add\n        /* \"#utility.yul\":949:1002   */\n      tag_101\n      jump\t// in\n    tag_160:\n        /* \"#utility.yul\":939:1002   */\n      swap2\n      pop\n        /* \"#utility.yul\":895:1012   */\n      pop\n        /* \"#utility.yul\":690:1019   */\n      swap3\n      swap2\n      pop\n      pop\n      jump\t// out\n        /* \"#utility.yul\":1025:1124   */\n    tag_102:\n        /* \"#utility.yul\":1077:1083   */\n      0x00\n        /* \"#utility.yul\":1111:1116   */\n      dup2\n        /* \"#utility.yul\":1105:1117   */\n      mload\n        /* \"#utility.yul\":1095:1117   */\n      swap1\n      pop\n        /* \"#utility.yul\":1025:1124   */\n      swap2\n      swap1\n      pop\n      jump\t// out\n        /* \"#utility.yul\":1130:1299   */\n    tag_103:\n        /* \"#utility.yul\":1214:1225   */\n      0x00\n        /* \"#utility.yul\":1248:1254   */\n      dup3\n        /* \"#utility.yul\":1243:1246   */\n      dup3\n        /* \"#utility.yul\":1236:1255   */\n      mstore\n        /* \"#utility.yul\":1288:1292   */\n      0x20\n        /* \"#utility.yul\":1283:1286   */\n      dup3\n        /* \"#utility.yul\":1279:1293   */\n      add\n        /* \"#utility.yul\":1264:1293   */\n      swap1\n      pop\n        /* \"#utility.yul\":1130:1299   */\n      swap3\n      swap2\n      pop\n      pop\n      jump\t// out\n        /* \"#utility.yul\":1305:1553   */\n    tag_104:\n        /* \"#utility.yul\":1387:1388   */\n      0x00\n        /* \"#utility.yul\":1397:1510   */\n    tag_164:\n        /* \"#utility.yul\":1411:1417   */\n      dup4\n        /* \"#utility.yul\":1408:1409   */\n      dup2\n        /* \"#utility.yul\":1405:1418   */\n      lt\n        /* \"#utility.yul\":1397:1510   */\n      iszero\n      tag_166\n      jumpi\n        /* \"#utility.yul\":1496:1497   */\n      dup1\n        /* \"#utility.yul\":1491:1494   */\n      dup3\n        /* \"#utility.yul\":1487:1498   */\n      add\n        /* \"#utility.yul\":1481:1499   */\n      mload\n        /* \"#utility.yul\":1477:1478   */\n      dup2\n        /* \"#utility.yul\":1472:1475   */\n      dup5\n        /* \"#utility.yul\":1468:1479   */\n      add\n        /* \"#utility.yul\":1461:1500   */\n      mstore\n        /* \"#utility.yul\":1433:1435   */\n      0x20\n        /* \"#utility.yul\":1430:1431   */\n      dup2\n        /* \"#utility.yul\":1426:1436   */\n      add\n        /* \"#utility.yul\":1421:1436   */\n      swap1\n      pop\n        /* \"#utility.yul\":1397:1510   */\n      jump(tag_164)\n    tag_166:\n        /* \"#utility.yul\":1544:1545   */\n      0x00\n        /* \"#utility.yul\":1535:1541   */\n      dup5\n        /* \"#utility.yul\":1530:1533   */\n      dup5\n        /* \"#utility.yul\":1526:1542   */\n      add\n        /* \"#utility.yul\":1519:1546   */\n      mstore\n        /* \"#utility.yul\":1367:1553   */\n      pop\n        /* \"#utility.yul\":1305:1553   */\n      pop\n      pop\n      pop\n      jump\t// out\n        /* \"#utility.yul\":1559:1661   */\n    tag_105:\n        /* \"#utility.yul\":1600:1606   */\n      0x00\n        /* \"#utility.yul\":1651:1653   */\n      0x1f\n        /* \"#utility.yul\":1647:1654   */\n      not\n        /* \"#utility.yul\":1642:1644   */\n      0x1f\n        /* \"#utility.yul\":1635:1640   */\n      dup4\n        /* \"#utility.yul\":1631:1645   */\n      add\n        /* \"#utility.yul\":1627:1655   */\n      and\n        /* \"#utility.yul\":1617:1655   */\n      swap1\n      pop\n        /* \"#utility.yul\":1559:1661   */\n      swap2\n      swap1\n      pop\n      jump\t// out\n        /* \"#utility.yul\":1667:2044   */\n    tag_106:\n        /* \"#utility.yul\":1755:1758   */\n      0x00\n        /* \"#utility.yul\":1783:1822   */\n      tag_169\n        /* \"#utility.yul\":1816:1821   */\n      dup3\n        /* \"#utility.yul\":1783:1822   */\n      tag_102\n      jump\t// in\n    tag_169:\n        /* \"#utility.yul\":1838:1909   */\n      tag_170\n        /* \"#utility.yul\":1902:1908   */\n      dup2\n        /* \"#utility.yul\":1897:1900   */\n      dup6\n        /* \"#utility.yul\":1838:1909   */\n      tag_103\n      jump\t// in\n    tag_170:\n        /* \"#utility.yul\":1831:1909   */\n      swap4\n      pop\n        /* \"#utility.yul\":1918:1983   */\n      tag_171\n        /* \"#utility.yul\":1976:1982   */\n      dup2\n        /* \"#utility.yul\":1971:1974   */\n      dup6\n        /* \"#utility.yul\":1964:1968   */\n      0x20\n        /* \"#utility.yul\":1957:1962   */\n      dup7\n        /* \"#utility.yul\":1953:1969   */\n      add\n        /* \"#utility.yul\":1918:1983   */\n      tag_104\n      jump\t// in\n    tag_171:\n        /* \"#utility.yul\":2008:2037   */\n      tag_172\n        /* \"#utility.yul\":2030:2036   */\n      dup2\n        /* \"#utility.yul\":2008:2037   */\n      tag_105\n      jump\t// in\n    tag_172:\n        /* \"#utility.yul\":2003:2006   */\n      dup5\n        /* \"#utility.yul\":1999:2038   */\n      add\n        /* \"#utility.yul\":1992:2038   */\n      swap2\n      pop\n        /* \"#utility.yul\":1759:2044   */\n      pop\n        /* \"#utility.yul\":1667:2044   */\n      swap3\n      swap2\n      pop\n      pop\n      jump\t// out\n        /* \"#utility.yul\":2050:2168   */\n    tag_107:\n        /* \"#utility.yul\":2137:2161   */\n      tag_174\n        /* \"#utility.yul\":2155:2160   */\n      dup2\n        /* \"#utility.yul\":2137:2161   */\n      tag_99\n      jump\t// in\n    tag_174:\n        /* \"#utility.yul\":2132:2135   */\n      dup3\n        /* \"#utility.yul\":2125:2162   */\n      mstore\n        /* \"#utility.yul\":2050:2168   */\n      pop\n      pop\n      jump\t// out\n        /* \"#utility.yul\":2174:2798   */\n    tag_13:\n        /* \"#utility.yul\":2363:2367   */\n      0x00\n        /* \"#utility.yul\":2401:2403   */\n      0x60\n        /* \"#utility.yul\":2390:2399   */\n      dup3\n        /* \"#utility.yul\":2386:2404   */\n      add\n        /* \"#utility.yul\":2378:2404   */\n      swap1\n      pop\n        /* \"#utility.yul\":2450:2459   */\n      dup2\n        /* \"#utility.yul\":2444:2448   */\n      dup2\n        /* \"#utility.yul\":2440:2460   */\n      sub\n        /* \"#utility.yul\":2436:2437   */\n      0x00\n        /* \"#utility.yul\":2425:2434   */\n      dup4\n        /* \"#utility.yul\":2421:2438   */\n      add\n        /* \"#utility.yul\":2414:2461   */\n      mstore\n        /* \"#utility.yul\":2478:2556   */\n      tag_176\n        /* \"#utility.yul\":2551:2555   */\n      dup2\n        /* \"#utility.yul\":2542:2548   */\n      dup7\n        /* \"#utility.yul\":2478:2556   */\n      tag_106\n      jump\t// in\n    tag_176:\n        /* \"#utility.yul\":2470:2556   */\n      swap1\n      pop\n        /* \"#utility.yul\":2566:2638   */\n      tag_177\n        /* \"#utility.yul\":2634:2636   */\n      0x20\n        /* \"#utility.yul\":2623:2632   */\n      dup4\n        /* \"#utility.yul\":2619:2637   */\n      add\n        /* \"#utility.yul\":2610:2616   */\n      dup6\n        /* \"#utility.yul\":2566:2638   */\n      tag_107\n      jump\t// in\n    tag_177:\n        /* \"#utility.yul\":2685:2694   */\n      dup2\n        /* \"#utility.yul\":2679:2683   */\n      dup2\n        /* \"#utility.yul\":2675:2695   */\n      sub\n        /* \"#utility.yul\":2670:2672   */\n      0x40\n        /* \"#utility.yul\":2659:2668   */\n      dup4\n        /* \"#utility.yul\":2655:2673   */\n      add\n        /* \"#utility.yul\":2648:2696   */\n      mstore\n        /* \"#utility.yul\":2713:2791   */\n      tag_178\n        /* \"#utility.yul\":2786:2790   */\n      dup2\n        /* \"#utility.yul\":2777:2783   */\n      dup5\n        /* \"#utility.yul\":2713:2791   */\n      tag_106\n      jump\t// in\n    tag_178:\n        /* \"#utility.yul\":2705:2791   */\n      swap1\n      pop\n        /* \"#utility.yul\":2174:2798   */\n      swap5\n      swap4\n      pop\n      pop\n      pop\n      pop\n      jump\t// out\n        /* \"#utility.yul\":2804:3026   */\n    tag_18:\n        /* \"#utility.yul\":2897:2901   */\n      0x00\n        /* \"#utility.yul\":2935:2937   */\n      0x20\n        /* \"#utility.yul\":2924:2933   */\n      dup3\n        /* \"#utility.yul\":2920:2938   */\n      add\n        /* \"#utility.yul\":2912:2938   */\n      swap1\n      pop\n        /* \"#utility.yul\":2948:3019   */\n      tag_180\n        /* \"#utility.yul\":3016:3017   */\n      0x00\n        /* \"#utility.yul\":3005:3014   */\n      dup4\n        /* \"#utility.yul\":3001:3018   */\n      add\n        /* \"#utility.yul\":2992:2998   */\n      dup5\n        /* \"#utility.yul\":2948:3019   */\n      tag_107\n      jump\t// in\n    tag_180:\n        /* \"#utility.yul\":2804:3026   */\n      swap3\n      swap2\n      pop\n      pop\n      jump\t// out\n        /* \"#utility.yul\":3032:3149   */\n    tag_108:\n        /* \"#utility.yul\":3141:3142   */\n      0x00\n        /* \"#utility.yul\":3138:3139   */\n      dup1\n        /* \"#utility.yul\":3131:3143   */\n      revert\n        /* \"#utility.yul\":3155:3272   */\n    tag_109:\n        /* \"#utility.yul\":3264:3265   */\n      0x00\n        /* \"#utility.yul\":3261:3262   */\n      dup1\n        /* \"#utility.yul\":3254:3266   */\n      revert\n        /* \"#utility.yul\":3278:3458   */\n    tag_52:\n        /* \"#utility.yul\":3326:3403   */\n      0x4e487b7100000000000000000000000000000000000000000000000000000000\n        /* \"#utility.yul\":3323:3324   */\n      0x00\n        /* \"#utility.yul\":3316:3404   */\n      mstore\n        /* \"#utility.yul\":3423:3427   */\n      0x41\n        /* \"#utility.yul\":3420:3421   */\n      0x04\n        /* \"#utility.yul\":3413:3428   */\n      mstore\n        /* \"#utility.yul\":3447:3451   */\n      0x24\n        /* \"#utility.yul\":3444:3445   */\n      0x00\n        /* \"#utility.yul\":3437:3452   */\n      revert\n        /* \"#utility.yul\":3464:3745   */\n    tag_110:\n        /* \"#utility.yul\":3547:3574   */\n      tag_185\n        /* \"#utility.yul\":3569:3573   */\n      dup3\n        /* \"#utility.yul\":3547:3574   */\n      tag_105\n      jump\t// in\n    tag_185:\n        /* \"#utility.yul\":3539:3545   */\n      dup2\n        /* \"#utility.yul\":3535:3575   */\n      add\n        /* \"#utility.yul\":3677:3683   */\n      dup2\n        /* \"#utility.yul\":3665:3675   */\n      dup2\n        /* \"#utility.yul\":3662:3684   */\n      lt\n        /* \"#utility.yul\":3641:3659   */\n      0xffffffffffffffff\n        /* \"#utility.yul\":3629:3639   */\n      dup3\n        /* \"#utility.yul\":3626:3660   */\n      gt\n        /* \"#utility.yul\":3623:3685   */\n      or\n        /* \"#utility.yul\":3620:3708   */\n      iszero\n      tag_186\n      jumpi\n        /* \"#utility.yul\":3688:3706   */\n      tag_187\n      tag_52\n      jump\t// in\n    tag_187:\n        /* \"#utility.yul\":3620:3708   */\n    tag_186:\n        /* \"#utility.yul\":3728:3738   */\n      dup1\n        /* \"#utility.yul\":3724:3726   */\n      0x40\n        /* \"#utility.yul\":3717:3739   */\n      mstore\n        /* \"#utility.yul\":3507:3745   */\n      pop\n        /* \"#utility.yul\":3464:3745   */\n      pop\n      pop\n      jump\t// out\n        /* \"#utility.yul\":3751:3880   */\n    tag_111:\n        /* \"#utility.yul\":3785:3791   */\n      0x00\n        /* \"#utility.yul\":3812:3832   */\n      tag_189\n      tag_96\n      jump\t// in\n    tag_189:\n        /* \"#utility.yul\":3802:3832   */\n      swap1\n      pop\n        /* \"#utility.yul\":3841:3874   */\n      tag_190\n        /* \"#utility.yul\":3869:3873   */\n      dup3\n        /* \"#utility.yul\":3861:3867   */\n      dup3\n        /* \"#utility.yul\":3841:3874   */\n      tag_110\n      jump\t// in\n    tag_190:\n        /* \"#utility.yul\":3751:3880   */\n      swap2\n      swap1\n      pop\n      jump\t// out\n        /* \"#utility.yul\":3886:4194   */\n    tag_112:\n        /* \"#utility.yul\":3948:3952   */\n      0x00\n        /* \"#utility.yul\":4038:4056   */\n      0xffffffffffffffff\n        /* \"#utility.yul\":4030:4036   */\n      dup3\n        /* \"#utility.yul\":4027:4057   */\n      gt\n        /* \"#utility.yul\":4024:4080   */\n      iszero\n      tag_192\n      jumpi\n        /* \"#utility.yul\":4060:4078   */\n      tag_193\n      tag_52\n      jump\t// in\n    tag_193:\n        /* \"#utility.yul\":4024:4080   */\n    tag_192:\n        /* \"#utility.yul\":4098:4127   */\n      tag_194\n        /* \"#utility.yul\":4120:4126   */\n      dup3\n        /* \"#utility.yul\":4098:4127   */\n      tag_105\n      jump\t// in\n    tag_194:\n        /* \"#utility.yul\":4090:4127   */\n      swap1\n      pop\n        /* \"#utility.yul\":4182:4186   */\n      0x20\n        /* \"#utility.yul\":4176:4180   */\n      dup2\n        /* \"#utility.yul\":4172:4187   */\n      add\n        /* \"#utility.yul\":4164:4187   */\n      swap1\n      pop\n        /* \"#utility.yul\":3886:4194   */\n      swap2\n      swap1\n      pop\n      jump\t// out\n        /* \"#utility.yul\":4200:4348   */\n    tag_113:\n        /* \"#utility.yul\":4298:4304   */\n      dup3\n        /* \"#utility.yul\":4293:4296   */\n      dup2\n        /* \"#utility.yul\":4288:4291   */\n      dup4\n        /* \"#utility.yul\":4275:4305   */\n      calldatacopy\n        /* \"#utility.yul\":4339:4340   */\n      0x00\n        /* \"#utility.yul\":4330:4336   */\n      dup4\n        /* \"#utility.yul\":4325:4328   */\n      dup4\n        /* \"#utility.yul\":4321:4337   */\n      add\n        /* \"#utility.yul\":4314:4341   */\n      mstore\n        /* \"#utility.yul\":4200:4348   */\n      pop\n      pop\n      pop\n      jump\t// out\n        /* \"#utility.yul\":4354:4779   */\n    tag_114:\n        /* \"#utility.yul\":4432:4437   */\n      0x00\n        /* \"#utility.yul\":4457:4523   */\n      tag_197\n        /* \"#utility.yul\":4473:4522   */\n      tag_198\n        /* \"#utility.yul\":4515:4521   */\n      dup5\n        /* \"#utility.yul\":4473:4522   */\n      tag_112\n      jump\t// in\n    tag_198:\n        /* \"#utility.yul\":4457:4523   */\n      tag_111\n      jump\t// in\n    tag_197:\n        /* \"#utility.yul\":4448:4523   */\n      swap1\n      pop\n        /* \"#utility.yul\":4546:4552   */\n      dup3\n        /* \"#utility.yul\":4539:4544   */\n      dup2\n        /* \"#utility.yul\":4532:4553   */\n      mstore\n        /* \"#utility.yul\":4584:4588   */\n      0x20\n        /* \"#utility.yul\":4577:4582   */\n      dup2\n        /* \"#utility.yul\":4573:4589   */\n      add\n        /* \"#utility.yul\":4622:4625   */\n      dup5\n        /* \"#utility.yul\":4613:4619   */\n      dup5\n        /* \"#utility.yul\":4608:4611   */\n      dup5\n        /* \"#utility.yul\":4604:4620   */\n      add\n        /* \"#utility.yul\":4601:4626   */\n      gt\n        /* \"#utility.yul\":4598:4710   */\n      iszero\n      tag_199\n      jumpi\n        /* \"#utility.yul\":4629:4708   */\n      tag_200\n      tag_109\n      jump\t// in\n    tag_200:\n        /* \"#utility.yul\":4598:4710   */\n    tag_199:\n        /* \"#utility.yul\":4719:4773   */\n      tag_201\n        /* \"#utility.yul\":4766:4772   */\n      dup5\n        /* \"#utility.yul\":4761:4764   */\n      dup3\n        /* \"#utility.yul\":4756:4759   */\n      dup6\n        /* \"#utility.yul\":4719:4773   */\n      tag_113\n      jump\t// in\n    tag_201:\n        /* \"#utility.yul\":4438:4779   */\n      pop\n        /* \"#utility.yul\":4354:4779   */\n      swap4\n      swap3\n      pop\n      pop\n      pop\n      jump\t// out\n        /* \"#utility.yul\":4799:5139   */\n    tag_115:\n        /* \"#utility.yul\":4855:4860   */\n      0x00\n        /* \"#utility.yul\":4904:4907   */\n      dup3\n        /* \"#utility.yul\":4897:4901   */\n      0x1f\n        /* \"#utility.yul\":4889:4895   */\n      dup4\n        /* \"#utility.yul\":4885:4902   */\n      add\n        /* \"#utility.yul\":4881:4908   */\n      slt\n        /* \"#utility.yul\":4871:4993   */\n      tag_203\n      jumpi\n        /* \"#utility.yul\":4912:4991   */\n      tag_204\n      tag_108\n      jump\t// in\n    tag_204:\n        /* \"#utility.yul\":4871:4993   */\n    tag_203:\n        /* \"#utility.yul\":5029:5035   */\n      dup2\n        /* \"#utility.yul\":5016:5036   */\n      calldataload\n        /* \"#utility.yul\":5054:5133   */\n      tag_205\n        /* \"#utility.yul\":5129:5132   */\n      dup5\n        /* \"#utility.yul\":5121:5127   */\n      dup3\n        /* \"#utility.yul\":5114:5118   */\n      0x20\n        /* \"#utility.yul\":5106:5112   */\n      dup7\n        /* \"#utility.yul\":5102:5119   */\n      add\n        /* \"#utility.yul\":5054:5133   */\n      tag_114\n      jump\t// in\n    tag_205:\n        /* \"#utility.yul\":5045:5133   */\n      swap2\n      pop\n        /* \"#utility.yul\":4861:5139   */\n      pop\n        /* \"#utility.yul\":4799:5139   */\n      swap3\n      swap2\n      pop\n      pop\n      jump\t// out\n        /* \"#utility.yul\":5145:6270   */\n    tag_21:\n        /* \"#utility.yul\":5251:5257   */\n      0x00\n        /* \"#utility.yul\":5259:5265   */\n      dup1\n        /* \"#utility.yul\":5267:5273   */\n      0x00\n        /* \"#utility.yul\":5275:5281   */\n      dup1\n        /* \"#utility.yul\":5324:5327   */\n      0x80\n        /* \"#utility.yul\":5312:5321   */\n      dup6\n        /* \"#utility.yul\":5303:5310   */\n      dup8\n        /* \"#utility.yul\":5299:5322   */\n      sub\n        /* \"#utility.yul\":5295:5328   */\n      slt\n        /* \"#utility.yul\":5292:5412   */\n      iszero\n      tag_207\n      jumpi\n        /* \"#utility.yul\":5331:5410   */\n      tag_208\n      tag_97\n      jump\t// in\n    tag_208:\n        /* \"#utility.yul\":5292:5412   */\n    tag_207:\n        /* \"#utility.yul\":5451:5452   */\n      0x00\n        /* \"#utility.yul\":5476:5529   */\n      tag_209\n        /* \"#utility.yul\":5521:5528   */\n      dup8\n        /* \"#utility.yul\":5512:5518   */\n      dup3\n        /* \"#utility.yul\":5501:5510   */\n      dup9\n        /* \"#utility.yul\":5497:5519   */\n      add\n        /* \"#utility.yul\":5476:5529   */\n      tag_101\n      jump\t// in\n    tag_209:\n        /* \"#utility.yul\":5466:5529   */\n      swap5\n      pop\n        /* \"#utility.yul\":5422:5539   */\n      pop\n        /* \"#utility.yul\":5606:5608   */\n      0x20\n        /* \"#utility.yul\":5595:5604   */\n      dup6\n        /* \"#utility.yul\":5591:5609   */\n      add\n        /* \"#utility.yul\":5578:5610   */\n      calldataload\n        /* \"#utility.yul\":5637:5655   */\n      0xffffffffffffffff\n        /* \"#utility.yul\":5629:5635   */\n      dup2\n        /* \"#utility.yul\":5626:5656   */\n      gt\n        /* \"#utility.yul\":5623:5740   */\n      iszero\n      tag_210\n      jumpi\n        /* \"#utility.yul\":5659:5738   */\n      tag_211\n      tag_98\n      jump\t// in\n    tag_211:\n        /* \"#utility.yul\":5623:5740   */\n    tag_210:\n        /* \"#utility.yul\":5764:5827   */\n      tag_212\n        /* \"#utility.yul\":5819:5826   */\n      dup8\n        /* \"#utility.yul\":5810:5816   */\n      dup3\n        /* \"#utility.yul\":5799:5808   */\n      dup9\n        /* \"#utility.yul\":5795:5817   */\n      add\n        /* \"#utility.yul\":5764:5827   */\n      tag_115\n      jump\t// in\n    tag_212:\n        /* \"#utility.yul\":5754:5827   */\n      swap4\n      pop\n        /* \"#utility.yul\":5549:5837   */\n      pop\n        /* \"#utility.yul\":5876:5878   */\n      0x40\n        /* \"#utility.yul\":5902:5955   */\n      tag_213\n        /* \"#utility.yul\":5947:5954   */\n      dup8\n        /* \"#utility.yul\":5938:5944   */\n      dup3\n        /* \"#utility.yul\":5927:5936   */\n      dup9\n        /* \"#utility.yul\":5923:5945   */\n      add\n        /* \"#utility.yul\":5902:5955   */\n      tag_101\n      jump\t// in\n    tag_213:\n        /* \"#utility.yul\":5892:5955   */\n      swap3\n      pop\n        /* \"#utility.yul\":5847:5965   */\n      pop\n        /* \"#utility.yul\":6032:6034   */\n      0x60\n        /* \"#utility.yul\":6021:6030   */\n      dup6\n        /* \"#utility.yul\":6017:6035   */\n      add\n        /* \"#utility.yul\":6004:6036   */\n      calldataload\n        /* \"#utility.yul\":6063:6081   */\n      0xffffffffffffffff\n        /* \"#utility.yul\":6055:6061   */\n      dup2\n        /* \"#utility.yul\":6052:6082   */\n      gt\n        /* \"#utility.yul\":6049:6166   */\n      iszero\n      tag_214\n      jumpi\n        /* \"#utility.yul\":6085:6164   */\n      tag_215\n      tag_98\n      jump\t// in\n    tag_215:\n        /* \"#utility.yul\":6049:6166   */\n    tag_214:\n        /* \"#utility.yul\":6190:6253   */\n      tag_216\n        /* \"#utility.yul\":6245:6252   */\n      dup8\n        /* \"#utility.yul\":6236:6242   */\n      dup3\n        /* \"#utility.yul\":6225:6234   */\n      dup9\n        /* \"#utility.yul\":6221:6243   */\n      add\n        /* \"#utility.yul\":6190:6253   */\n      tag_115\n      jump\t// in\n    tag_216:\n        /* \"#utility.yul\":6180:6253   */\n      swap2\n      pop\n        /* \"#utility.yul\":5975:6263   */\n      pop\n        /* \"#utility.yul\":5145:6270   */\n      swap3\n      swap6\n      swap2\n      swap5\n      pop\n      swap3\n      pop\n      jump\t// out\n        /* \"#utility.yul\":6276:6400   */\n    tag_116:\n        /* \"#utility.yul\":6353:6359   */\n      0x00\n        /* \"#utility.yul\":6387:6392   */\n      dup2\n        /* \"#utility.yul\":6381:6393   */\n      mload\n        /* \"#utility.yul\":6371:6393   */\n      swap1\n      pop\n        /* \"#utility.yul\":6276:6400   */\n      swap2\n      swap1\n      pop\n      jump\t// out\n        /* \"#utility.yul\":6406:6600   */\n    tag_117:\n        /* \"#utility.yul\":6515:6526   */\n      0x00\n        /* \"#utility.yul\":6549:6555   */\n      dup3\n        /* \"#utility.yul\":6544:6547   */\n      dup3\n        /* \"#utility.yul\":6537:6556   */\n      mstore\n        /* \"#utility.yul\":6589:6593   */\n      0x20\n        /* \"#utility.yul\":6584:6587   */\n      dup3\n        /* \"#utility.yul\":6580:6594   */\n      add\n        /* \"#utility.yul\":6565:6594   */\n      swap1\n      pop\n        /* \"#utility.yul\":6406:6600   */\n      swap3\n      swap2\n      pop\n      pop\n      jump\t// out\n        /* \"#utility.yul\":6606:6748   */\n    tag_118:\n        /* \"#utility.yul\":6683:6687   */\n      0x00\n        /* \"#utility.yul\":6706:6709   */\n      dup2\n        /* \"#utility.yul\":6698:6709   */\n      swap1\n      pop\n        /* \"#utility.yul\":6736:6740   */\n      0x20\n        /* \"#utility.yul\":6731:6734   */\n      dup3\n        /* \"#utility.yul\":6727:6741   */\n      add\n        /* \"#utility.yul\":6719:6741   */\n      swap1\n      pop\n        /* \"#utility.yul\":6606:6748   */\n      swap2\n      swap1\n      pop\n      jump\t// out\n        /* \"#utility.yul\":6754:6913   */\n    tag_119:\n        /* \"#utility.yul\":6828:6839   */\n      0x00\n        /* \"#utility.yul\":6862:6868   */\n      dup3\n        /* \"#utility.yul\":6857:6860   */\n      dup3\n        /* \"#utility.yul\":6850:6869   */\n      mstore\n        /* \"#utility.yul\":6902:6906   */\n      0x20\n        /* \"#utility.yul\":6897:6900   */\n      dup3\n        /* \"#utility.yul\":6893:6907   */\n      add\n        /* \"#utility.yul\":6878:6907   */\n      swap1\n      pop\n        /* \"#utility.yul\":6754:6913   */\n      swap3\n      swap2\n      pop\n      pop\n      jump\t// out\n        /* \"#utility.yul\":6919:7276   */\n    tag_120:\n        /* \"#utility.yul\":6997:7000   */\n      0x00\n        /* \"#utility.yul\":7025:7064   */\n      tag_222\n        /* \"#utility.yul\":7058:7063   */\n      dup3\n        /* \"#utility.yul\":7025:7064   */\n      tag_102\n      jump\t// in\n    tag_222:\n        /* \"#utility.yul\":7080:7141   */\n      tag_223\n        /* \"#utility.yul\":7134:7140   */\n      dup2\n        /* \"#utility.yul\":7129:7132   */\n      dup6\n        /* \"#utility.yul\":7080:7141   */\n      tag_119\n      jump\t// in\n    tag_223:\n        /* \"#utility.yul\":7073:7141   */\n      swap4\n      pop\n        /* \"#utility.yul\":7150:7215   */\n      tag_224\n        /* \"#utility.yul\":7208:7214   */\n      dup2\n        /* \"#utility.yul\":7203:7206   */\n      dup6\n        /* \"#utility.yul\":7196:7200   */\n      0x20\n        /* \"#utility.yul\":7189:7194   */\n      dup7\n        /* \"#utility.yul\":7185:7201   */\n      add\n        /* \"#utility.yul\":7150:7215   */\n      tag_104\n      jump\t// in\n    tag_224:\n        /* \"#utility.yul\":7240:7269   */\n      tag_225\n        /* \"#utility.yul\":7262:7268   */\n      dup2\n        /* \"#utility.yul\":7240:7269   */\n      tag_105\n      jump\t// in\n    tag_225:\n        /* \"#utility.yul\":7235:7238   */\n      dup5\n        /* \"#utility.yul\":7231:7270   */\n      add\n        /* \"#utility.yul\":7224:7270   */\n      swap2\n      pop\n        /* \"#utility.yul\":7001:7276   */\n      pop\n        /* \"#utility.yul\":6919:7276   */\n      swap3\n      swap2\n      pop\n      pop\n      jump\t// out\n        /* \"#utility.yul\":7282:7478   */\n    tag_121:\n        /* \"#utility.yul\":7371:7381   */\n      0x00\n        /* \"#utility.yul\":7406:7472   */\n      tag_227\n        /* \"#utility.yul\":7468:7471   */\n      dup4\n        /* \"#utility.yul\":7460:7466   */\n      dup4\n        /* \"#utility.yul\":7406:7472   */\n      tag_120\n      jump\t// in\n    tag_227:\n        /* \"#utility.yul\":7392:7472   */\n      swap1\n      pop\n        /* \"#utility.yul\":7282:7478   */\n      swap3\n      swap2\n      pop\n      pop\n      jump\t// out\n        /* \"#utility.yul\":7484:7607   */\n    tag_122:\n        /* \"#utility.yul\":7564:7568   */\n      0x00\n        /* \"#utility.yul\":7596:7600   */\n      0x20\n        /* \"#utility.yul\":7591:7594   */\n      dup3\n        /* \"#utility.yul\":7587:7601   */\n      add\n        /* \"#utility.yul\":7579:7601   */\n      swap1\n      pop\n        /* \"#utility.yul\":7484:7607   */\n      swap2\n      swap1\n      pop\n      jump\t// out\n        /* \"#utility.yul\":7641:8632   */\n    tag_123:\n        /* \"#utility.yul\":7780:7783   */\n      0x00\n        /* \"#utility.yul\":7809:7873   */\n      tag_230\n        /* \"#utility.yul\":7867:7872   */\n      dup3\n        /* \"#utility.yul\":7809:7873   */\n      tag_116\n      jump\t// in\n    tag_230:\n        /* \"#utility.yul\":7889:7985   */\n      tag_231\n        /* \"#utility.yul\":7978:7984   */\n      dup2\n        /* \"#utility.yul\":7973:7976   */\n      dup6\n        /* \"#utility.yul\":7889:7985   */\n      tag_117\n      jump\t// in\n    tag_231:\n        /* \"#utility.yul\":7882:7985   */\n      swap4\n      pop\n        /* \"#utility.yul\":8011:8014   */\n      dup4\n        /* \"#utility.yul\":8056:8060   */\n      0x20\n        /* \"#utility.yul\":8048:8054   */\n      dup3\n        /* \"#utility.yul\":8044:8061   */\n      mul\n        /* \"#utility.yul\":8039:8042   */\n      dup6\n        /* \"#utility.yul\":8035:8062   */\n      add\n        /* \"#utility.yul\":8086:8152   */\n      tag_232\n        /* \"#utility.yul\":8146:8151   */\n      dup6\n        /* \"#utility.yul\":8086:8152   */\n      tag_118\n      jump\t// in\n    tag_232:\n        /* \"#utility.yul\":8175:8182   */\n      dup1\n        /* \"#utility.yul\":8206:8207   */\n      0x00\n        /* \"#utility.yul\":8191:8587   */\n    tag_233:\n        /* \"#utility.yul\":8216:8222   */\n      dup6\n        /* \"#utility.yul\":8213:8214   */\n      dup2\n        /* \"#utility.yul\":8210:8223   */\n      lt\n        /* \"#utility.yul\":8191:8587   */\n      iszero\n      tag_235\n      jumpi\n        /* \"#utility.yul\":8287:8296   */\n      dup5\n        /* \"#utility.yul\":8281:8285   */\n      dup5\n        /* \"#utility.yul\":8277:8297   */\n      sub\n        /* \"#utility.yul\":8272:8275   */\n      dup10\n        /* \"#utility.yul\":8265:8298   */\n      mstore\n        /* \"#utility.yul\":8338:8344   */\n      dup2\n        /* \"#utility.yul\":8332:8345   */\n      mload\n        /* \"#utility.yul\":8366:8450   */\n      tag_236\n        /* \"#utility.yul\":8445:8449   */\n      dup6\n        /* \"#utility.yul\":8430:8443   */\n      dup3\n        /* \"#utility.yul\":8366:8450   */\n      tag_121\n      jump\t// in\n    tag_236:\n        /* \"#utility.yul\":8358:8450   */\n      swap5\n      pop\n        /* \"#utility.yul\":8473:8543   */\n      tag_237\n        /* \"#utility.yul\":8536:8542   */\n      dup4\n        /* \"#utility.yul\":8473:8543   */\n      tag_122\n      jump\t// in\n    tag_237:\n        /* \"#utility.yul\":8463:8543   */\n      swap3\n      pop\n        /* \"#utility.yul\":8572:8576   */\n      0x20\n        /* \"#utility.yul\":8567:8570   */\n      dup11\n        /* \"#utility.yul\":8563:8577   */\n      add\n        /* \"#utility.yul\":8556:8577   */\n      swap10\n      pop\n        /* \"#utility.yul\":8251:8587   */\n      pop\n        /* \"#utility.yul\":8238:8239   */\n      0x01\n        /* \"#utility.yul\":8235:8236   */\n      dup2\n        /* \"#utility.yul\":8231:8240   */\n      add\n        /* \"#utility.yul\":8226:8240   */\n      swap1\n      pop\n        /* \"#utility.yul\":8191:8587   */\n      jump(tag_233)\n    tag_235:\n        /* \"#utility.yul\":8195:8209   */\n      pop\n        /* \"#utility.yul\":8603:8607   */\n      dup3\n        /* \"#utility.yul\":8596:8607   */\n      swap8\n      pop\n        /* \"#utility.yul\":8623:8626   */\n      dup8\n        /* \"#utility.yul\":8616:8626   */\n      swap6\n      pop\n        /* \"#utility.yul\":7785:8632   */\n      pop\n      pop\n      pop\n      pop\n      pop\n        /* \"#utility.yul\":7641:8632   */\n      swap3\n      swap2\n      pop\n      pop\n      jump\t// out\n        /* \"#utility.yul\":8638:8752   */\n    tag_124:\n        /* \"#utility.yul\":8705:8711   */\n      0x00\n        /* \"#utility.yul\":8739:8744   */\n      dup2\n        /* \"#utility.yul\":8733:8745   */\n      mload\n        /* \"#utility.yul\":8723:8745   */\n      swap1\n      pop\n        /* \"#utility.yul\":8638:8752   */\n      swap2\n      swap1\n      pop\n      jump\t// out\n        /* \"#utility.yul\":8758:8942   */\n    tag_125:\n        /* \"#utility.yul\":8857:8868   */\n      0x00\n        /* \"#utility.yul\":8891:8897   */\n      dup3\n        /* \"#utility.yul\":8886:8889   */\n      dup3\n        /* \"#utility.yul\":8879:8898   */\n      mstore\n        /* \"#utility.yul\":8931:8935   */\n      0x20\n        /* \"#utility.yul\":8926:8929   */\n      dup3\n        /* \"#utility.yul\":8922:8936   */\n      add\n        /* \"#utility.yul\":8907:8936   */\n      swap1\n      pop\n        /* \"#utility.yul\":8758:8942   */\n      swap3\n      swap2\n      pop\n      pop\n      jump\t// out\n        /* \"#utility.yul\":8948:9080   */\n    tag_126:\n        /* \"#utility.yul\":9015:9019   */\n      0x00\n        /* \"#utility.yul\":9038:9041   */\n      dup2\n        /* \"#utility.yul\":9030:9041   */\n      swap1\n      pop\n        /* \"#utility.yul\":9068:9072   */\n      0x20\n        /* \"#utility.yul\":9063:9066   */\n      dup3\n        /* \"#utility.yul\":9059:9073   */\n      add\n        /* \"#utility.yul\":9051:9073   */\n      swap1\n      pop\n        /* \"#utility.yul\":8948:9080   */\n      swap2\n      swap1\n      pop\n      jump\t// out\n        /* \"#utility.yul\":9086:9194   */\n    tag_127:\n        /* \"#utility.yul\":9163:9187   */\n      tag_242\n        /* \"#utility.yul\":9181:9186   */\n      dup2\n        /* \"#utility.yul\":9163:9187   */\n      tag_99\n      jump\t// in\n    tag_242:\n        /* \"#utility.yul\":9158:9161   */\n      dup3\n        /* \"#utility.yul\":9151:9188   */\n      mstore\n        /* \"#utility.yul\":9086:9194   */\n      pop\n      pop\n      jump\t// out\n        /* \"#utility.yul\":9200:9379   */\n    tag_128:\n        /* \"#utility.yul\":9269:9279   */\n      0x00\n        /* \"#utility.yul\":9290:9336   */\n      tag_244\n        /* \"#utility.yul\":9332:9335   */\n      dup4\n        /* \"#utility.yul\":9324:9330   */\n      dup4\n        /* \"#utility.yul\":9290:9336   */\n      tag_127\n      jump\t// in\n    tag_244:\n        /* \"#utility.yul\":9368:9372   */\n      0x20\n        /* \"#utility.yul\":9363:9366   */\n      dup4\n        /* \"#utility.yul\":9359:9373   */\n      add\n        /* \"#utility.yul\":9345:9373   */\n      swap1\n      pop\n        /* \"#utility.yul\":9200:9379   */\n      swap3\n      swap2\n      pop\n      pop\n      jump\t// out\n        /* \"#utility.yul\":9385:9498   */\n    tag_129:\n        /* \"#utility.yul\":9455:9459   */\n      0x00\n        /* \"#utility.yul\":9487:9491   */\n      0x20\n        /* \"#utility.yul\":9482:9485   */\n      dup3\n        /* \"#utility.yul\":9478:9492   */\n      add\n        /* \"#utility.yul\":9470:9492   */\n      swap1\n      pop\n        /* \"#utility.yul\":9385:9498   */\n      swap2\n      swap1\n      pop\n      jump\t// out\n        /* \"#utility.yul\":9534:10266   */\n    tag_130:\n        /* \"#utility.yul\":9653:9656   */\n      0x00\n        /* \"#utility.yul\":9682:9736   */\n      tag_247\n        /* \"#utility.yul\":9730:9735   */\n      dup3\n        /* \"#utility.yul\":9682:9736   */\n      tag_124\n      jump\t// in\n    tag_247:\n        /* \"#utility.yul\":9752:9838   */\n      tag_248\n        /* \"#utility.yul\":9831:9837   */\n      dup2\n        /* \"#utility.yul\":9826:9829   */\n      dup6\n        /* \"#utility.yul\":9752:9838   */\n      tag_125\n      jump\t// in\n    tag_248:\n        /* \"#utility.yul\":9745:9838   */\n      swap4\n      pop\n        /* \"#utility.yul\":9862:9918   */\n      tag_249\n        /* \"#utility.yul\":9912:9917   */\n      dup4\n        /* \"#utility.yul\":9862:9918   */\n      tag_126\n      jump\t// in\n    tag_249:\n        /* \"#utility.yul\":9941:9948   */\n      dup1\n        /* \"#utility.yul\":9972:9973   */\n      0x00\n        /* \"#utility.yul\":9957:10241   */\n    tag_250:\n        /* \"#utility.yul\":9982:9988   */\n      dup4\n        /* \"#utility.yul\":9979:9980   */\n      dup2\n        /* \"#utility.yul\":9976:9989   */\n      lt\n        /* \"#utility.yul\":9957:10241   */\n      iszero\n      tag_252\n      jumpi\n        /* \"#utility.yul\":10058:10064   */\n      dup2\n        /* \"#utility.yul\":10052:10065   */\n      mload\n        /* \"#utility.yul\":10085:10148   */\n      tag_253\n        /* \"#utility.yul\":10144:10147   */\n      dup9\n        /* \"#utility.yul\":10129:10142   */\n      dup3\n        /* \"#utility.yul\":10085:10148   */\n      tag_128\n      jump\t// in\n    tag_253:\n        /* \"#utility.yul\":10078:10148   */\n      swap8\n      pop\n        /* \"#utility.yul\":10171:10231   */\n      tag_254\n        /* \"#utility.yul\":10224:10230   */\n      dup4\n        /* \"#utility.yul\":10171:10231   */\n      tag_129\n      jump\t// in\n    tag_254:\n        /* \"#utility.yul\":10161:10231   */\n      swap3\n      pop\n        /* \"#utility.yul\":10017:10241   */\n      pop\n        /* \"#utility.yul\":10004:10005   */\n      0x01\n        /* \"#utility.yul\":10001:10002   */\n      dup2\n        /* \"#utility.yul\":9997:10006   */\n      add\n        /* \"#utility.yul\":9992:10006   */\n      swap1\n      pop\n        /* \"#utility.yul\":9957:10241   */\n      jump(tag_250)\n    tag_252:\n        /* \"#utility.yul\":9961:9975   */\n      pop\n        /* \"#utility.yul\":10257:10260   */\n      dup6\n        /* \"#utility.yul\":10250:10260   */\n      swap4\n      pop\n        /* \"#utility.yul\":9658:10266   */\n      pop\n      pop\n      pop\n        /* \"#utility.yul\":9534:10266   */\n      swap3\n      swap2\n      pop\n      pop\n      jump\t// out\n        /* \"#utility.yul\":10272:11247   */\n    tag_26:\n        /* \"#utility.yul\":10611:10615   */\n      0x00\n        /* \"#utility.yul\":10649:10651   */\n      0x60\n        /* \"#utility.yul\":10638:10647   */\n      dup3\n        /* \"#utility.yul\":10634:10652   */\n      add\n        /* \"#utility.yul\":10626:10652   */\n      swap1\n      pop\n        /* \"#utility.yul\":10698:10707   */\n      dup2\n        /* \"#utility.yul\":10692:10696   */\n      dup2\n        /* \"#utility.yul\":10688:10708   */\n      sub\n        /* \"#utility.yul\":10684:10685   */\n      0x00\n        /* \"#utility.yul\":10673:10682   */\n      dup4\n        /* \"#utility.yul\":10669:10686   */\n      add\n        /* \"#utility.yul\":10662:10709   */\n      mstore\n        /* \"#utility.yul\":10726:10854   */\n      tag_256\n        /* \"#utility.yul\":10849:10853   */\n      dup2\n        /* \"#utility.yul\":10840:10846   */\n      dup7\n        /* \"#utility.yul\":10726:10854   */\n      tag_123\n      jump\t// in\n    tag_256:\n        /* \"#utility.yul\":10718:10854   */\n      swap1\n      pop\n        /* \"#utility.yul\":10901:10910   */\n      dup2\n        /* \"#utility.yul\":10895:10899   */\n      dup2\n        /* \"#utility.yul\":10891:10911   */\n      sub\n        /* \"#utility.yul\":10886:10888   */\n      0x20\n        /* \"#utility.yul\":10875:10884   */\n      dup4\n        /* \"#utility.yul\":10871:10889   */\n      add\n        /* \"#utility.yul\":10864:10912   */\n      mstore\n        /* \"#utility.yul\":10929:11037   */\n      tag_257\n        /* \"#utility.yul\":11032:11036   */\n      dup2\n        /* \"#utility.yul\":11023:11029   */\n      dup6\n        /* \"#utility.yul\":10929:11037   */\n      tag_130\n      jump\t// in\n    tag_257:\n        /* \"#utility.yul\":10921:11037   */\n      swap1\n      pop\n        /* \"#utility.yul\":11084:11093   */\n      dup2\n        /* \"#utility.yul\":11078:11082   */\n      dup2\n        /* \"#utility.yul\":11074:11094   */\n      sub\n        /* \"#utility.yul\":11069:11071   */\n      0x40\n        /* \"#utility.yul\":11058:11067   */\n      dup4\n        /* \"#utility.yul\":11054:11072   */\n      add\n        /* \"#utility.yul\":11047:11095   */\n      mstore\n        /* \"#utility.yul\":11112:11240   */\n      tag_258\n        /* \"#utility.yul\":11235:11239   */\n      dup2\n        /* \"#utility.yul\":11226:11232   */\n      dup5\n        /* \"#utility.yul\":11112:11240   */\n      tag_123\n      jump\t// in\n    tag_258:\n        /* \"#utility.yul\":11104:11240   */\n      swap1\n      pop\n        /* \"#utility.yul\":10272:11247   */\n      swap5\n      swap4\n      pop\n      pop\n      pop\n      pop\n      jump\t// out\n        /* \"#utility.yul\":11253:11433   */\n    tag_131:\n        /* \"#utility.yul\":11301:11378   */\n      0x4e487b7100000000000000000000000000000000000000000000000000000000\n        /* \"#utility.yul\":11298:11299   */\n      0x00\n        /* \"#utility.yul\":11291:11379   */\n      mstore\n        /* \"#utility.yul\":11398:11402   */\n      0x22\n        /* \"#utility.yul\":11395:11396   */\n      0x04\n        /* \"#utility.yul\":11388:11403   */\n      mstore\n        /* \"#utility.yul\":11422:11426   */\n      0x24\n        /* \"#utility.yul\":11419:11420   */\n      0x00\n        /* \"#utility.yul\":11412:11427   */\n      revert\n        /* \"#utility.yul\":11439:11759   */\n    tag_32:\n        /* \"#utility.yul\":11483:11489   */\n      0x00\n        /* \"#utility.yul\":11520:11521   */\n      0x02\n        /* \"#utility.yul\":11514:11518   */\n      dup3\n        /* \"#utility.yul\":11510:11522   */\n      div\n        /* \"#utility.yul\":11500:11522   */\n      swap1\n      pop\n        /* \"#utility.yul\":11567:11568   */\n      0x01\n        /* \"#utility.yul\":11561:11565   */\n      dup3\n        /* \"#utility.yul\":11557:11569   */\n      and\n        /* \"#utility.yul\":11588:11606   */\n      dup1\n        /* \"#utility.yul\":11578:11659   */\n      tag_261\n      jumpi\n        /* \"#utility.yul\":11644:11648   */\n      0x7f\n        /* \"#utility.yul\":11636:11642   */\n      dup3\n        /* \"#utility.yul\":11632:11649   */\n      and\n        /* \"#utility.yul\":11622:11649   */\n      swap2\n      pop\n        /* \"#utility.yul\":11578:11659   */\n    tag_261:\n        /* \"#utility.yul\":11706:11708   */\n      0x20\n        /* \"#utility.yul\":11698:11704   */\n      dup3\n        /* \"#utility.yul\":11695:11709   */\n      lt\n        /* \"#utility.yul\":11675:11693   */\n      dup2\n        /* \"#utility.yul\":11672:11710   */\n      sub\n        /* \"#utility.yul\":11669:11753   */\n      tag_262\n      jumpi\n        /* \"#utility.yul\":11725:11743   */\n      tag_263\n      tag_131\n      jump\t// in\n    tag_263:\n        /* \"#utility.yul\":11669:11753   */\n    tag_262:\n        /* \"#utility.yul\":11490:11759   */\n      pop\n        /* \"#utility.yul\":11439:11759   */\n      swap2\n      swap1\n      pop\n      jump\t// out\n        /* \"#utility.yul\":11765:11906   */\n    tag_132:\n        /* \"#utility.yul\":11814:11818   */\n      0x00\n        /* \"#utility.yul\":11837:11840   */\n      dup2\n        /* \"#utility.yul\":11829:11840   */\n      swap1\n      pop\n        /* \"#utility.yul\":11860:11863   */\n      dup2\n        /* \"#utility.yul\":11857:11858   */\n      0x00\n        /* \"#utility.yul\":11850:11864   */\n      mstore\n        /* \"#utility.yul\":11894:11898   */\n      0x20\n        /* \"#utility.yul\":11891:11892   */\n      0x00\n        /* \"#utility.yul\":11881:11899   */\n      keccak256\n        /* \"#utility.yul\":11873:11899   */\n      swap1\n      pop\n        /* \"#utility.yul\":11765:11906   */\n      swap2\n      swap1\n      pop\n      jump\t// out\n        /* \"#utility.yul\":11912:12005   */\n    tag_133:\n        /* \"#utility.yul\":11949:11955   */\n      0x00\n        /* \"#utility.yul\":11996:11998   */\n      0x20\n        /* \"#utility.yul\":11991:11993   */\n      0x1f\n        /* \"#utility.yul\":11984:11989   */\n      dup4\n        /* \"#utility.yul\":11980:11994   */\n      add\n        /* \"#utility.yul\":11976:11999   */\n      div\n        /* \"#utility.yul\":11966:11999   */\n      swap1\n      pop\n        /* \"#utility.yul\":11912:12005   */\n      swap2\n      swap1\n      pop\n      jump\t// out\n        /* \"#utility.yul\":12011:12118   */\n    tag_134:\n        /* \"#utility.yul\":12055:12063   */\n      0x00\n        /* \"#utility.yul\":12105:12110   */\n      dup3\n        /* \"#utility.yul\":12099:12103   */\n      dup3\n        /* \"#utility.yul\":12095:12111   */\n      shl\n        /* \"#utility.yul\":12074:12111   */\n      swap1\n      pop\n        /* \"#utility.yul\":12011:12118   */\n      swap3\n      swap2\n      pop\n      pop\n      jump\t// out\n        /* \"#utility.yul\":12124:12517   */\n    tag_135:\n        /* \"#utility.yul\":12193:12199   */\n      0x00\n        /* \"#utility.yul\":12243:12244   */\n      0x08\n        /* \"#utility.yul\":12231:12241   */\n      dup4\n        /* \"#utility.yul\":12227:12245   */\n      mul\n        /* \"#utility.yul\":12266:12363   */\n      tag_268\n        /* \"#utility.yul\":12296:12362   */\n      0xffffffffffffffffffffffffffffffffffffffffffffffffffffffffffffffff\n        /* \"#utility.yul\":12285:12294   */\n      dup3\n        /* \"#utility.yul\":12266:12363   */\n      tag_134\n      jump\t// in\n    tag_268:\n        /* \"#utility.yul\":12384:12423   */\n      tag_269\n        /* \"#utility.yul\":12414:12422   */\n      dup7\n        /* \"#utility.yul\":12403:12412   */\n      dup4\n        /* \"#utility.yul\":12384:12423   */\n      tag_134\n      jump\t// in\n    tag_269:\n        /* \"#utility.yul\":12372:12423   */\n      swap6\n      pop\n        /* \"#utility.yul\":12456:12460   */\n      dup1\n        /* \"#utility.yul\":12452:12461   */\n      not\n        /* \"#utility.yul\":12445:12450   */\n      dup5\n        /* \"#utility.yul\":12441:12462   */\n      and\n        /* \"#utility.yul\":12432:12462   */\n      swap4\n      pop\n        /* \"#utility.yul\":12505:12509   */\n      dup1\n        /* \"#utility.yul\":12495:12503   */\n      dup7\n        /* \"#utility.yul\":12491:12510   */\n      and\n        /* \"#utility.yul\":12484:12489   */\n      dup5\n        /* \"#utility.yul\":12481:12511   */\n      or\n        /* \"#utility.yul\":12471:12511   */\n      swap3\n      pop\n        /* \"#utility.yul\":12200:12517   */\n      pop\n      pop\n        /* \"#utility.yul\":12124:12517   */\n      swap4\n      swap3\n      pop\n      pop\n      pop\n      jump\t// out\n        /* \"#utility.yul\":12523:12583   */\n    tag_136:\n        /* \"#utility.yul\":12551:12554   */\n      0x00\n        /* \"#utility.yul\":12572:12577   */\n      dup2\n        /* \"#utility.yul\":12565:12577   */\n      swap1\n      pop\n        /* \"#utility.yul\":12523:12583   */\n      swap2\n      swap1\n      pop\n      jump\t// out\n        /* \"#utility.yul\":12589:12731   */\n    tag_137:\n        /* \"#utility.yul\":12639:12648   */\n      0x00\n        /* \"#utility.yul\":12672:12725   */\n      tag_272\n        /* \"#utility.yul\":12690:12724   */\n      tag_273\n        /* \"#utility.yul\":12699:12723   */\n      tag_274\n        /* \"#utility.yul\":12717:12722   */\n      dup5\n        /* \"#utility.yul\":12699:12723   */\n      tag_99\n      jump\t// in\n    tag_274:\n        /* \"#utility.yul\":12690:12724   */\n      tag_136\n      jump\t// in\n    tag_273:\n        /* \"#utility.yul\":12672:12725   */\n      tag_99\n      jump\t// in\n    tag_272:\n        /* \"#utility.yul\":12659:12725   */\n      swap1\n      pop\n        /* \"#utility.yul\":12589:12731   */\n      swap2\n      swap1\n      pop\n      jump\t// out\n        /* \"#utility.yul\":12737:12812   */\n    tag_138:\n        /* \"#utility.yul\":12780:12783   */\n      0x00\n        /* \"#utility.yul\":12801:12806   */\n      dup2\n        /* \"#utility.yul\":12794:12806   */\n      swap1\n      pop\n        /* \"#utility.yul\":12737:12812   */\n      swap2\n      swap1\n      pop\n      jump\t// out\n        /* \"#utility.yul\":12818:13087   */\n    tag_139:\n        /* \"#utility.yul\":12928:12967   */\n      tag_277\n        /* \"#utility.yul\":12959:12966   */\n      dup4\n        /* \"#utility.yul\":12928:12967   */\n      tag_137\n      jump\t// in\n    tag_277:\n        /* \"#utility.yul\":12989:13080   */\n      tag_278\n        /* \"#utility.yul\":13038:13079   */\n      tag_279\n        /* \"#utility.yul\":13062:13078   */\n      dup3\n        /* \"#utility.yul\":13038:13079   */\n      tag_138\n      jump\t// in\n    tag_279:\n        /* \"#utility.yul\":13030:13036   */\n      dup5\n        /* \"#utility.yul\":13023:13027   */\n      dup5\n        /* \"#utility.yul\":13017:13028   */\n      sload\n        /* \"#utility.yul\":12989:13080   */\n      tag_135\n      jump\t// in\n    tag_278:\n        /* \"#utility.yul\":12983:12987   */\n      dup3\n        /* \"#utility.yul\":12976:13081   */\n      sstore\n        /* \"#utility.yul\":12894:13087   */\n      pop\n        /* \"#utility.yul\":12818:13087   */\n      pop\n      pop\n      pop\n      jump\t// out\n        /* \"#utility.yul\":13093:13166   */\n    tag_140:\n        /* \"#utility.yul\":13138:13141   */\n      0x00\n        /* \"#utility.yul\":13093:13166   */\n      swap1\n      jump\t// out\n        /* \"#utility.yul\":13172:13361   */\n    tag_141:\n        /* \"#utility.yul\":13249:13281   */\n      tag_282\n      tag_140\n      jump\t// in\n    tag_282:\n        /* \"#utility.yul\":13290:13355   */\n      tag_283\n        /* \"#utility.yul\":13348:13354   */\n      dup2\n        /* \"#utility.yul\":13340:13346   */\n      dup5\n        /* \"#utility.yul\":13334:13338   */\n      dup5\n        /* \"#utility.yul\":13290:13355   */\n      tag_139\n      jump\t// in\n    tag_283:\n        /* \"#utility.yul\":13225:13361   */\n      pop\n        /* \"#utility.yul\":13172:13361   */\n      pop\n      pop\n      jump\t// out\n        /* \"#utility.yul\":13367:13553   */\n    tag_142:\n        /* \"#utility.yul\":13427:13547   */\n    tag_285:\n        /* \"#utility.yul\":13444:13447   */\n      dup2\n        /* \"#utility.yul\":13437:13442   */\n      dup2\n        /* \"#utility.yul\":13434:13448   */\n      lt\n        /* \"#utility.yul\":13427:13547   */\n      iszero\n      tag_287\n      jumpi\n        /* \"#utility.yul\":13498:13537   */\n      tag_288\n        /* \"#utility.yul\":13535:13536   */\n      0x00\n        /* \"#utility.yul\":13528:13533   */\n      dup3\n        /* \"#utility.yul\":13498:13537   */\n      tag_141\n      jump\t// in\n    tag_288:\n        /* \"#utility.yul\":13471:13472   */\n      0x01\n        /* \"#utility.yul\":13464:13469   */\n      dup2\n        /* \"#utility.yul\":13460:13473   */\n      add\n        /* \"#utility.yul\":13451:13473   */\n      swap1\n      pop\n        /* \"#utility.yul\":13427:13547   */\n      jump(tag_285)\n    tag_287:\n        /* \"#utility.yul\":13367:13553   */\n      pop\n      pop\n      jump\t// out\n        /* \"#utility.yul\":13559:14102   */\n    tag_143:\n        /* \"#utility.yul\":13660:13662   */\n      0x1f\n        /* \"#utility.yul\":13655:13658   */\n      dup3\n        /* \"#utility.yul\":13652:13663   */\n      gt\n        /* \"#utility.yul\":13649:14095   */\n      iszero\n      tag_290\n      jumpi\n        /* \"#utility.yul\":13694:13732   */\n      tag_291\n        /* \"#utility.yul\":13726:13731   */\n      dup2\n        /* \"#utility.yul\":13694:13732   */\n      tag_132\n      jump\t// in\n    tag_291:\n        /* \"#utility.yul\":13778:13807   */\n      tag_292\n        /* \"#utility.yul\":13796:13806   */\n      dup5\n        /* \"#utility.yul\":13778:13807   */\n      tag_133\n      jump\t// in\n    tag_292:\n        /* \"#utility.yul\":13768:13776   */\n      dup2\n        /* \"#utility.yul\":13764:13808   */\n      add\n        /* \"#utility.yul\":13961:13963   */\n      0x20\n        /* \"#utility.yul\":13949:13959   */\n      dup6\n        /* \"#utility.yul\":13946:13964   */\n      lt\n        /* \"#utility.yul\":13943:13992   */\n      iszero\n      tag_293\n      jumpi\n        /* \"#utility.yul\":13982:13990   */\n      dup2\n        /* \"#utility.yul\":13967:13990   */\n      swap1\n      pop\n        /* \"#utility.yul\":13943:13992   */\n    tag_293:\n        /* \"#utility.yul\":14005:14085   */\n      tag_294\n        /* \"#utility.yul\":14061:14083   */\n      tag_295\n        /* \"#utility.yul\":14079:14082   */\n      dup6\n        /* \"#utility.yul\":14061:14083   */\n      tag_133\n      jump\t// in\n    tag_295:\n        /* \"#utility.yul\":14051:14059   */\n      dup4\n        /* \"#utility.yul\":14047:14084   */\n      add\n        /* \"#utility.yul\":14034:14045   */\n      dup3\n        /* \"#utility.yul\":14005:14085   */\n      tag_142\n      jump\t// in\n    tag_294:\n        /* \"#utility.yul\":13664:14095   */\n      pop\n      pop\n        /* \"#utility.yul\":13649:14095   */\n    tag_290:\n        /* \"#utility.yul\":13559:14102   */\n      pop\n      pop\n      pop\n      jump\t// out\n        /* \"#utility.yul\":14108:14225   */\n    tag_144:\n        /* \"#utility.yul\":14162:14170   */\n      0x00\n        /* \"#utility.yul\":14212:14217   */\n      dup3\n        /* \"#utility.yul\":14206:14210   */\n      dup3\n        /* \"#utility.yul\":14202:14218   */\n      shr\n        /* \"#utility.yul\":14181:14218   */\n      swap1\n      pop\n        /* \"#utility.yul\":14108:14225   */\n      swap3\n      swap2\n      pop\n      pop\n      jump\t// out\n        /* \"#utility.yul\":14231:14400   */\n    tag_145:\n        /* \"#utility.yul\":14275:14281   */\n      0x00\n        /* \"#utility.yul\":14308:14359   */\n      tag_298\n        /* \"#utility.yul\":14356:14357   */\n      0x00\n        /* \"#utility.yul\":14352:14358   */\n      not\n        /* \"#utility.yul\":14344:14349   */\n      dup5\n        /* \"#utility.yul\":14341:14342   */\n      0x08\n        /* \"#utility.yul\":14337:14350   */\n      mul\n        /* \"#utility.yul\":14308:14359   */\n      tag_144\n      jump\t// in\n    tag_298:\n        /* \"#utility.yul\":14304:14360   */\n      not\n        /* \"#utility.yul\":14389:14393   */\n      dup1\n        /* \"#utility.yul\":14383:14387   */\n      dup4\n        /* \"#utility.yul\":14379:14394   */\n      and\n        /* \"#utility.yul\":14369:14394   */\n      swap2\n      pop\n        /* \"#utility.yul\":14282:14400   */\n      pop\n        /* \"#utility.yul\":14231:14400   */\n      swap3\n      swap2\n      pop\n      pop\n      jump\t// out\n        /* \"#utility.yul\":14405:14700   */\n    tag_146:\n        /* \"#utility.yul\":14481:14485   */\n      0x00\n        /* \"#utility.yul\":14627:14656   */\n      tag_300\n        /* \"#utility.yul\":14652:14655   */\n      dup4\n        /* \"#utility.yul\":14646:14650   */\n      dup4\n        /* \"#utility.yul\":14627:14656   */\n      tag_145\n      jump\t// in\n    tag_300:\n        /* \"#utility.yul\":14619:14656   */\n      swap2\n      pop\n        /* \"#utility.yul\":14689:14692   */\n      dup3\n        /* \"#utility.yul\":14686:14687   */\n      0x02\n        /* \"#utility.yul\":14682:14693   */\n      mul\n        /* \"#utility.yul\":14676:14680   */\n      dup3\n        /* \"#utility.yul\":14673:14694   */\n      or\n        /* \"#utility.yul\":14665:14694   */\n      swap1\n      pop\n        /* \"#utility.yul\":14405:14700   */\n      swap3\n      swap2\n      pop\n      pop\n      jump\t// out\n        /* \"#utility.yul\":14705:16100   */\n    tag_46:\n        /* \"#utility.yul\":14822:14859   */\n      tag_302\n        /* \"#utility.yul\":14855:14858   */\n      dup3\n        /* \"#utility.yul\":14822:14859   */\n      tag_102\n      jump\t// in\n    tag_302:\n        /* \"#utility.yul\":14924:14942   */\n      0xffffffffffffffff\n        /* \"#utility.yul\":14916:14922   */\n      dup2\n        /* \"#utility.yul\":14913:14943   */\n      gt\n        /* \"#utility.yul\":14910:14966   */\n      iszero\n      tag_303\n      jumpi\n        /* \"#utility.yul\":14946:14964   */\n      tag_304\n      tag_52\n      jump\t// in\n    tag_304:\n        /* \"#utility.yul\":14910:14966   */\n    tag_303:\n        /* \"#utility.yul\":14990:15028   */\n      tag_305\n        /* \"#utility.yul\":15022:15026   */\n      dup3\n        /* \"#utility.yul\":15016:15027   */\n      sload\n        /* \"#utility.yul\":14990:15028   */\n      tag_32\n      jump\t// in\n    tag_305:\n        /* \"#utility.yul\":15075:15142   */\n      tag_306\n        /* \"#utility.yul\":15135:15141   */\n      dup3\n        /* \"#utility.yul\":15127:15133   */\n      dup3\n        /* \"#utility.yul\":15121:15125   */\n      dup6\n        /* \"#utility.yul\":15075:15142   */\n      tag_143\n      jump\t// in\n    tag_306:\n        /* \"#utility.yul\":15169:15170   */\n      0x00\n        /* \"#utility.yul\":15193:15197   */\n      0x20\n        /* \"#utility.yul\":15180:15197   */\n      swap1\n      pop\n        /* \"#utility.yul\":15225:15227   */\n      0x1f\n        /* \"#utility.yul\":15217:15223   */\n      dup4\n        /* \"#utility.yul\":15214:15228   */\n      gt\n        /* \"#utility.yul\":15242:15243   */\n      0x01\n        /* \"#utility.yul\":15237:15855   */\n      dup2\n      eq\n      tag_308\n      jumpi\n        /* \"#utility.yul\":15899:15900   */\n      0x00\n        /* \"#utility.yul\":15916:15922   */\n      dup5\n        /* \"#utility.yul\":15913:15990   */\n      iszero\n      tag_309\n      jumpi\n        /* \"#utility.yul\":15965:15974   */\n      dup3\n        /* \"#utility.yul\":15960:15963   */\n      dup8\n        /* \"#utility.yul\":15956:15975   */\n      add\n        /* \"#utility.yul\":15950:15976   */\n      mload\n        /* \"#utility.yul\":15941:15976   */\n      swap1\n      pop\n        /* \"#utility.yul\":15913:15990   */\n    tag_309:\n        /* \"#utility.yul\":16016:16083   */\n      tag_310\n        /* \"#utility.yul\":16076:16082   */\n      dup6\n        /* \"#utility.yul\":16069:16074   */\n      dup3\n        /* \"#utility.yul\":16016:16083   */\n      tag_146\n      jump\t// in\n    tag_310:\n        /* \"#utility.yul\":16010:16014   */\n      dup7\n        /* \"#utility.yul\":16003:16084   */\n      sstore\n        /* \"#utility.yul\":15872:16094   */\n      pop\n        /* \"#utility.yul\":15207:16094   */\n      jump(tag_307)\n        /* \"#utility.yul\":15237:15855   */\n    tag_308:\n        /* \"#utility.yul\":15289:15293   */\n      0x1f\n        /* \"#utility.yul\":15285:15294   */\n      not\n        /* \"#utility.yul\":15277:15283   */\n      dup5\n        /* \"#utility.yul\":15273:15295   */\n      and\n        /* \"#utility.yul\":15323:15360   */\n      tag_311\n        /* \"#utility.yul\":15355:15359   */\n      dup7\n        /* \"#utility.yul\":15323:15360   */\n      tag_132\n      jump\t// in\n    tag_311:\n        /* \"#utility.yul\":15382:15383   */\n      0x00\n        /* \"#utility.yul\":15396:15604   */\n    tag_312:\n        /* \"#utility.yul\":15410:15417   */\n      dup3\n        /* \"#utility.yul\":15407:15408   */\n      dup2\n        /* \"#utility.yul\":15404:15418   */\n      lt\n        /* \"#utility.yul\":15396:15604   */\n      iszero\n      tag_314\n      jumpi\n        /* \"#utility.yul\":15489:15498   */\n      dup5\n        /* \"#utility.yul\":15484:15487   */\n      dup10\n        /* \"#utility.yul\":15480:15499   */\n      add\n        /* \"#utility.yul\":15474:15500   */\n      mload\n        /* \"#utility.yul\":15466:15472   */\n      dup3\n        /* \"#utility.yul\":15459:15501   */\n      sstore\n        /* \"#utility.yul\":15540:15541   */\n      0x01\n        /* \"#utility.yul\":15532:15538   */\n      dup3\n        /* \"#utility.yul\":15528:15542   */\n      add\n        /* \"#utility.yul\":15518:15542   */\n      swap2\n      pop\n        /* \"#utility.yul\":15587:15589   */\n      0x20\n        /* \"#utility.yul\":15576:15585   */\n      dup6\n        /* \"#utility.yul\":15572:15590   */\n      add\n        /* \"#utility.yul\":15559:15590   */\n      swap5\n      pop\n        /* \"#utility.yul\":15433:15437   */\n      0x20\n        /* \"#utility.yul\":15430:15431   */\n      dup2\n        /* \"#utility.yul\":15426:15438   */\n      add\n        /* \"#utility.yul\":15421:15438   */\n      swap1\n      pop\n        /* \"#utility.yul\":15396:15604   */\n      jump(tag_312)\n    tag_314:\n        /* \"#utility.yul\":15632:15638   */\n      dup7\n        /* \"#utility.yul\":15623:15630   */\n      dup4\n        /* \"#utility.yul\":15620:15639   */\n      lt\n        /* \"#utility.yul\":15617:15796   */\n      iszero\n      tag_315\n      jumpi\n        /* \"#utility.yul\":15690:15699   */\n      dup5\n        /* \"#utility.yul\":15685:15688   */\n      dup10\n        /* \"#utility.yul\":15681:15700   */\n      add\n        /* \"#utility.yul\":15675:15701   */\n      mload\n        /* \"#utility.yul\":15733:15781   */\n      tag_316\n        /* \"#utility.yul\":15775:15779   */\n      0x1f\n        /* \"#utility.yul\":15767:15773   */\n      dup10\n        /* \"#utility.yul\":15763:15780   */\n      and\n        /* \"#utility.yul\":15752:15761   */\n      dup3\n        /* \"#utility.yul\":15733:15781   */\n      tag_145\n      jump\t// in\n    tag_316:\n        /* \"#utility.yul\":15725:15731   */\n      dup4\n        /* \"#utility.yul\":15718:15782   */\n      sstore\n        /* \"#utility.yul\":15640:15796   */\n      pop\n        /* \"#utility.yul\":15617:15796   */\n    tag_315:\n        /* \"#utility.yul\":15842:15843   */\n      0x01\n        /* \"#utility.yul\":15838:15839   */\n      0x02\n        /* \"#utility.yul\":15830:15836   */\n      dup9\n        /* \"#utility.yul\":15826:15840   */\n      mul\n        /* \"#utility.yul\":15822:15844   */\n      add\n        /* \"#utility.yul\":15816:15820   */\n      dup9\n        /* \"#utility.yul\":15809:15845   */\n      sstore\n        /* \"#utility.yul\":15244:15855   */\n      pop\n      pop\n      pop\n        /* \"#utility.yul\":15207:16094   */\n    tag_307:\n      pop\n        /* \"#utility.yul\":14797:16100   */\n      pop\n      pop\n      pop\n        /* \"#utility.yul\":14705:16100   */\n      pop\n      pop\n      jump\t// out\n        /* \"#utility.yul\":16106:16286   */\n    tag_67:\n        /* \"#utility.yul\":16154:16231   */\n      0x4e487b7100000000000000000000000000000000000000000000000000000000\n        /* \"#utility.yul\":16151:16152   */\n      0x00\n        /* \"#utility.yul\":16144:16232   */\n      mstore\n        /* \"#utility.yul\":16251:16255   */\n      0x32\n        /* \"#utility.yul\":16248:16249   */\n      0x04\n        /* \"#utility.yul\":16241:16256   */\n      mstore\n        /* \"#utility.yul\":16275:16279   */\n      0x24\n        /* \"#utility.yul\":16272:16273   */\n      0x00\n        /* \"#utility.yul\":16265:16280   */\n      revert\n\n    auxdata: 0xa2646970667358221220a245a143d67778b3bd324e34e2e644b876112345d38db8bb877e91e0183aacc264736f6c634300081c0033\n}\n",
				"bytecode": {
					"linkReferences": {},
					"object": "6080604052348015600f57600080fd5b506110438061001f6000396000f3fe608060405234801561001057600080fd5b50600436106100575760003560e01c80637c84040c1461005c57806387d636de1461008e57806390d9d40a146100be578063ea51dee0146100da578063f6042d93146100fa575b600080fd5b610076600480360381019061007191906107ea565b61012c565b604051610085939291906108b6565b60405180910390f35b6100a860048036038101906100a391906107ea565b610266565b6040516100b591906108fb565b60405180910390f35b6100d860048036038101906100d39190610a4b565b61028a565b005b6100e2610325565b6040516100f193929190610cb4565b60405180910390f35b610114600480360381019061010f91906107ea565b61062e565b604051610123939291906108b6565b60405180910390f35b600060205280600052604060002060009150905080600001805461014f90610d2f565b80601f016020809104026020016040519081016040528092919081815260200182805461017b90610d2f565b80156101c85780601f1061019d576101008083540402835291602001916101c8565b820191906000526020600020905b8154815290600101906020018083116101ab57829003601f168201915b5050505050908060010154908060020180546101e390610d2f565b80601f016020809104026020016040519081016040528092919081815260200182805461020f90610d2f565b801561025c5780601f106102315761010080835404028352916020019161025c565b820191906000526020600020905b81548152906001019060200180831161023f57829003601f168201915b5050505050905083565b6001818154811061027657600080fd5b906000526020600020016000915090505481565b600060405180606001604052808581526020018481526020018381525090508060008087815260200190815260200160002060008201518160000190816102d19190610f0c565b506020820151816001015560408201518160020190816102f19190610f0c565b5090505060018590806001815401808255809150506001900390600052602060002001600090919091909150555050505050565b60608060606000600180549050905060008167ffffffffffffffff8111156103505761034f610920565b5b60405190808252806020026020018201604052801561038357816020015b606081526020019060019003908161036e5790505b50905060008267ffffffffffffffff8111156103a2576103a1610920565b5b6040519080825280602002602001820160405280156103d05781602001602082028036833780820191505090505b50905060008367ffffffffffffffff8111156103ef576103ee610920565b5b60405190808252806020026020018201604052801561042257816020015b606081526020019060019003908161040d5790505b50905060005b8481101561061b5760006001828154811061044657610445610fde565b5b90600052602060002001549050600080600083815260200190815260200160002060405180606001604052908160008201805461048290610d2f565b80601f01602080910402602001604051908101604052809291908181526020018280546104ae90610d2f565b80156104fb5780601f106104d0576101008083540402835291602001916104fb565b820191906000526020600020905b8154815290600101906020018083116104de57829003601f168201915b505050505081526020016001820154815260200160028201805461051e90610d2f565b80601f016020809104026020016040519081016040528092919081815260200182805461054a90610d2f565b80156105975780601f1061056c57610100808354040283529160200191610597565b820191906000526020600020905b81548152906001019060200180831161057a57829003601f168201915b505050505081525050905080600001518684815181106105ba576105b9610fde565b5b602002602001018190525080602001518584815181106105dd576105dc610fde565b5b602002602001018181525050806040015184848151811061060157610600610fde565b5b602002602001018190525050508080600101915050610428565b5082828296509650965050505050909192565b606060006060600080600086815260200190815260200160002060405180606001604052908160008201805461066390610d2f565b80601f016020809104026020016040519081016040528092919081815260200182805461068f90610d2f565b80156106dc5780601f106106b1576101008083540402835291602001916106dc565b820191906000526020600020905b8154815290600101906020018083116106bf57829003601f168201915b50505050508152602001600182015481526020016002820180546106ff90610d2f565b80601f016020809104026020016040519081016040528092919081815260200182805461072b90610d2f565b80156107785780601f1061074d57610100808354040283529160200191610778565b820191906000526020600020905b81548152906001019060200180831161075b57829003601f168201915b5050505050815250509050806000015181602001518260400151935093509350509193909250565b6000604051905090565b600080fd5b600080fd5b6000819050919050565b6107c7816107b4565b81146107d257600080fd5b50565b6000813590506107e4816107be565b92915050565b600060208284031215610800576107ff6107aa565b5b600061080e848285016107d5565b91505092915050565b600081519050919050565b600082825260208201905092915050565b60005b83811015610851578082015181840152602081019050610836565b60008484015250505050565b6000601f19601f8301169050919050565b600061087982610817565b6108838185610822565b9350610893818560208601610833565b61089c8161085d565b840191505092915050565b6108b0816107b4565b82525050565b600060608201905081810360008301526108d0818661086e565b90506108df60208301856108a7565b81810360408301526108f1818461086e565b9050949350505050565b600060208201905061091060008301846108a7565b92915050565b600080fd5b600080fd5b7f4e487b7100000000000000000000000000000000000000000000000000000000600052604160045260246000fd5b6109588261085d565b810181811067ffffffffffffffff8211171561097757610976610920565b5b80604052505050565b600061098a6107a0565b9050610996828261094f565b919050565b600067ffffffffffffffff8211156109b6576109b5610920565b5b6109bf8261085d565b9050602081019050919050565b82818337600083830152505050565b60006109ee6109e98461099b565b610980565b905082815260208101848484011115610a0a57610a0961091b565b5b610a158482856109cc565b509392505050565b600082601f830112610a3257610a31610916565b5b8135610a428482602086016109db565b91505092915050565b60008060008060808587031215610a6557610a646107aa565b5b6000610a73878288016107d5565b945050602085013567ffffffffffffffff811115610a9457610a936107af565b5b610aa087828801610a1d565b9350506040610ab1878288016107d5565b925050606085013567ffffffffffffffff811115610ad257610ad16107af565b5b610ade87828801610a1d565b91505092959194509250565b600081519050919050565b600082825260208201905092915050565b6000819050602082019050919050565b600082825260208201905092915050565b6000610b3282610817565b610b3c8185610b16565b9350610b4c818560208601610833565b610b558161085d565b840191505092915050565b6000610b6c8383610b27565b905092915050565b6000602082019050919050565b6000610b8c82610aea565b610b968185610af5565b935083602082028501610ba885610b06565b8060005b85811015610be45784840389528151610bc58582610b60565b9450610bd083610b74565b925060208a01995050600181019050610bac565b50829750879550505050505092915050565b600081519050919050565b600082825260208201905092915050565b6000819050602082019050919050565b610c2b816107b4565b82525050565b6000610c3d8383610c22565b60208301905092915050565b6000602082019050919050565b6000610c6182610bf6565b610c6b8185610c01565b9350610c7683610c12565b8060005b83811015610ca7578151610c8e8882610c31565b9750610c9983610c49565b925050600181019050610c7a565b5085935050505092915050565b60006060820190508181036000830152610cce8186610b81565b90508181036020830152610ce28185610c56565b90508181036040830152610cf68184610b81565b9050949350505050565b7f4e487b7100000000000000000000000000000000000000000000000000000000600052602260045260246000fd5b60006002820490506001821680610d4757607f821691505b602082108103610d5a57610d59610d00565b5b50919050565b60008190508160005260206000209050919050565b60006020601f8301049050919050565b600082821b905092915050565b600060088302610dc27fffffffffffffffffffffffffffffffffffffffffffffffffffffffffffffffff82610d85565b610dcc8683610d85565b95508019841693508086168417925050509392505050565b6000819050919050565b6000610e09610e04610dff846107b4565b610de4565b6107b4565b9050919050565b6000819050919050565b610e2383610dee565b610e37610e2f82610e10565b848454610d92565b825550505050565b600090565b610e4c610e3f565b610e57818484610e1a565b505050565b5b81811015610e7b57610e70600082610e44565b600181019050610e5d565b5050565b601f821115610ec057610e9181610d60565b610e9a84610d75565b81016020851015610ea9578190505b610ebd610eb585610d75565b830182610e5c565b50505b505050565b600082821c905092915050565b6000610ee360001984600802610ec5565b1980831691505092915050565b6000610efc8383610ed2565b9150826002028217905092915050565b610f1582610817565b67ffffffffffffffff811115610f2e57610f2d610920565b5b610f388254610d2f565b610f43828285610e7f565b600060209050601f831160018114610f765760008415610f64578287015190505b610f6e8582610ef0565b865550610fd6565b601f198416610f8486610d60565b60005b82811015610fac57848901518255600182019150602085019450602081019050610f87565b86831015610fc95784890151610fc5601f891682610ed2565b8355505b6001600288020188555050505b505050505050565b7f4e487b7100000000000000000000000000000000000000000000000000000000600052603260045260246000fdfea2646970667358221220a245a143d67778b3bd324e34e2e644b876112345d38db8bb877e91e0183aacc264736f6c634300081c0033",
					"opcodes": "PUSH1 0x80 PUSH1 0x40 MSTORE CALLVALUE DUP1 ISZERO PUSH1 0xF JUMPI PUSH1 0x0 DUP1 REVERT JUMPDEST POP PUSH2 0x1043 DUP1 PUSH2 0x1F PUSH1 0x0 CODECOPY PUSH1 0x0 RETURN INVALID PUSH1 0x80 PUSH1 0x40 MSTORE CALLVALUE DUP1 ISZERO PUSH2 0x10 JUMPI PUSH1 0x0 DUP1 REVERT JUMPDEST POP PUSH1 0x4 CALLDATASIZE LT PUSH2 0x57 JUMPI PUSH1 0x0 CALLDATALOAD PUSH1 0xE0 SHR DUP1 PUSH4 0x7C84040C EQ PUSH2 0x5C JUMPI DUP1 PUSH4 0x87D636DE EQ PUSH2 0x8E JUMPI DUP1 PUSH4 0x90D9D40A EQ PUSH2 0xBE JUMPI DUP1 PUSH4 0xEA51DEE0 EQ PUSH2 0xDA JUMPI DUP1 PUSH4 0xF6042D93 EQ PUSH2 0xFA JUMPI JUMPDEST PUSH1 0x0 DUP1 REVERT JUMPDEST PUSH2 0x76 PUSH1 0x4 DUP1 CALLDATASIZE SUB DUP2 ADD SWAP1 PUSH2 0x71 SWAP2 SWAP1 PUSH2 0x7EA JUMP JUMPDEST PUSH2 0x12C JUMP JUMPDEST PUSH1 0x40 MLOAD PUSH2 0x85 SWAP4 SWAP3 SWAP2 SWAP1 PUSH2 0x8B6 JUMP JUMPDEST PUSH1 0x40 MLOAD DUP1 SWAP2 SUB SWAP1 RETURN JUMPDEST PUSH2 0xA8 PUSH1 0x4 DUP1 CALLDATASIZE SUB DUP2 ADD SWAP1 PUSH2 0xA3 SWAP2 SWAP1 PUSH2 0x7EA JUMP JUMPDEST PUSH2 0x266 JUMP JUMPDEST PUSH1 0x40 MLOAD PUSH2 0xB5 SWAP2 SWAP1 PUSH2 0x8FB JUMP JUMPDEST PUSH1 0x40 MLOAD DUP1 SWAP2 SUB SWAP1 RETURN JUMPDEST PUSH2 0xD8 PUSH1 0x4 DUP1 CALLDATASIZE SUB DUP2 ADD SWAP1 PUSH2 0xD3 SWAP2 SWAP1 PUSH2 0xA4B JUMP JUMPDEST PUSH2 0x28A JUMP JUMPDEST STOP JUMPDEST PUSH2 0xE2 PUSH2 0x325 JUMP JUMPDEST PUSH1 0x40 MLOAD PUSH2 0xF1 SWAP4 SWAP3 SWAP2 SWAP1 PUSH2 0xCB4 JUMP JUMPDEST PUSH1 0x40 MLOAD DUP1 SWAP2 SUB SWAP1 RETURN JUMPDEST PUSH2 0x114 PUSH1 0x4 DUP1 CALLDATASIZE SUB DUP2 ADD SWAP1 PUSH2 0x10F SWAP2 SWAP1 PUSH2 0x7EA JUMP JUMPDEST PUSH2 0x62E JUMP JUMPDEST PUSH1 0x40 MLOAD PUSH2 0x123 SWAP4 SWAP3 SWAP2 SWAP1 PUSH2 0x8B6 JUMP JUMPDEST PUSH1 0x40 MLOAD DUP1 SWAP2 SUB SWAP1 RETURN JUMPDEST PUSH1 0x0 PUSH1 0x20 MSTORE DUP1 PUSH1 0x0 MSTORE PUSH1 0x40 PUSH1 0x0 KECCAK256 PUSH1 0x0 SWAP2 POP SWAP1 POP DUP1 PUSH1 0x0 ADD DUP1 SLOAD PUSH2 0x14F SWAP1 PUSH2 0xD2F JUMP JUMPDEST DUP1 PUSH1 0x1F ADD PUSH1 0x20 DUP1 SWAP2 DIV MUL PUSH1 0x20 ADD PUSH1 0x40 MLOAD SWAP1 DUP2 ADD PUSH1 0x40 MSTORE DUP1 SWAP3 SWAP2 SWAP1 DUP2 DUP2 MSTORE PUSH1 0x20 ADD DUP3 DUP1 SLOAD PUSH2 0x17B SWAP1 PUSH2 0xD2F JUMP JUMPDEST DUP1 ISZERO PUSH2 0x1C8 JUMPI DUP1 PUSH1 0x1F LT PUSH2 0x19D JUMPI PUSH2 0x100 DUP1 DUP4 SLOAD DIV MUL DUP4 MSTORE SWAP2 PUSH1 0x20 ADD SWAP2 PUSH2 0x1C8 JUMP JUMPDEST DUP3 ADD SWAP2 SWAP1 PUSH1 0x0 MSTORE PUSH1 0x20 PUSH1 0x0 KECCAK256 SWAP1 JUMPDEST DUP2 SLOAD DUP2 MSTORE SWAP1 PUSH1 0x1 ADD SWAP1 PUSH1 0x20 ADD DUP1 DUP4 GT PUSH2 0x1AB JUMPI DUP3 SWAP1 SUB PUSH1 0x1F AND DUP3 ADD SWAP2 JUMPDEST POP POP POP POP POP SWAP1 DUP1 PUSH1 0x1 ADD SLOAD SWAP1 DUP1 PUSH1 0x2 ADD DUP1 SLOAD PUSH2 0x1E3 SWAP1 PUSH2 0xD2F JUMP JUMPDEST DUP1 PUSH1 0x1F ADD PUSH1 0x20 DUP1 SWAP2 DIV MUL PUSH1 0x20 ADD PUSH1 0x40 MLOAD SWAP1 DUP2 ADD PUSH1 0x40 MSTORE DUP1 SWAP3 SWAP2 SWAP1 DUP2 DUP2 MSTORE PUSH1 0x20 ADD DUP3 DUP1 SLOAD PUSH2 0x20F SWAP1 PUSH2 0xD2F JUMP JUMPDEST DUP1 ISZERO PUSH2 0x25C JUMPI DUP1 PUSH1 0x1F LT PUSH2 0x231 JUMPI PUSH2 0x100 DUP1 DUP4 SLOAD DIV MUL DUP4 MSTORE SWAP2 PUSH1 0x20 ADD SWAP2 PUSH2 0x25C JUMP JUMPDEST DUP3 ADD SWAP2 SWAP1 PUSH1 0x0 MSTORE PUSH1 0x20 PUSH1 0x0 KECCAK256 SWAP1 JUMPDEST DUP2 SLOAD DUP2 MSTORE SWAP1 PUSH1 0x1 ADD SWAP1 PUSH1 0x20 ADD DUP1 DUP4 GT PUSH2 0x23F JUMPI DUP3 SWAP1 SUB PUSH1 0x1F AND DUP3 ADD SWAP2 JUMPDEST POP POP POP POP POP SWAP1 POP DUP4 JUMP JUMPDEST PUSH1 0x1 DUP2 DUP2 SLOAD DUP2 LT PUSH2 0x276 JUMPI PUSH1 0x0 DUP1 REVERT JUMPDEST SWAP1 PUSH1 0x0 MSTORE PUSH1 0x20 PUSH1 0x0 KECCAK256 ADD PUSH1 0x0 SWAP2 POP SWAP1 POP SLOAD DUP2 JUMP JUMPDEST PUSH1 0x0 PUSH1 0x40 MLOAD DUP1 PUSH1 0x60 ADD PUSH1 0x40 MSTORE DUP1 DUP6 DUP2 MSTORE PUSH1 0x20 ADD DUP5 DUP2 MSTORE PUSH1 0x20 ADD DUP4 DUP2 MSTORE POP SWAP1 POP DUP1 PUSH1 0x0 DUP1 DUP8 DUP2 MSTORE PUSH1 0x20 ADD SWAP1 DUP2 MSTORE PUSH1 0x20 ADD PUSH1 0x0 KECCAK256 PUSH1 0x0 DUP3 ADD MLOAD DUP2 PUSH1 0x0 ADD SWAP1 DUP2 PUSH2 0x2D1 SWAP2 SWAP1 PUSH2 0xF0C JUMP JUMPDEST POP PUSH1 0x20 DUP3 ADD MLOAD DUP2 PUSH1 0x1 ADD SSTORE PUSH1 0x40 DUP3 ADD MLOAD DUP2 PUSH1 0x2 ADD SWAP1 DUP2 PUSH2 0x2F1 SWAP2 SWAP1 PUSH2 0xF0C JUMP JUMPDEST POP SWAP1 POP POP PUSH1 0x1 DUP6 SWAP1 DUP1 PUSH1 0x1 DUP2 SLOAD ADD DUP1 DUP3 SSTORE DUP1 SWAP2 POP POP PUSH1 0x1 SWAP1 SUB SWAP1 PUSH1 0x0 MSTORE PUSH1 0x20 PUSH1 0x0 KECCAK256 ADD PUSH1 0x0 SWAP1 SWAP2 SWAP1 SWAP2 SWAP1 SWAP2 POP SSTORE POP POP POP POP POP JUMP JUMPDEST PUSH1 0x60 DUP1 PUSH1 0x60 PUSH1 0x0 PUSH1 0x1 DUP1 SLOAD SWAP1 POP SWAP1 POP PUSH1 0x0 DUP2 PUSH8 0xFFFFFFFFFFFFFFFF DUP2 GT ISZERO PUSH2 0x350 JUMPI PUSH2 0x34F PUSH2 0x920 JUMP JUMPDEST JUMPDEST PUSH1 0x40 MLOAD SWAP1 DUP1 DUP3 MSTORE DUP1 PUSH1 0x20 MUL PUSH1 0x20 ADD DUP3 ADD PUSH1 0x40 MSTORE DUP1 ISZERO PUSH2 0x383 JUMPI DUP2 PUSH1 0x20 ADD JUMPDEST PUSH1 0x60 DUP2 MSTORE PUSH1 0x20 ADD SWAP1 PUSH1 0x1 SWAP1 SUB SWAP1 DUP2 PUSH2 0x36E JUMPI SWAP1 POP JUMPDEST POP SWAP1 POP PUSH1 0x0 DUP3 PUSH8 0xFFFFFFFFFFFFFFFF DUP2 GT ISZERO PUSH2 0x3A2 JUMPI PUSH2 0x3A1 PUSH2 0x920 JUMP JUMPDEST JUMPDEST PUSH1 0x40 MLOAD SWAP1 DUP1 DUP3 MSTORE DUP1 PUSH1 0x20 MUL PUSH1 0x20 ADD DUP3 ADD PUSH1 0x40 MSTORE DUP1 ISZERO PUSH2 0x3D0 JUMPI DUP2 PUSH1 0x20 ADD PUSH1 0x20 DUP3 MUL DUP1 CALLDATASIZE DUP4 CALLDATACOPY DUP1 DUP3 ADD SWAP2 POP POP SWAP1 POP JUMPDEST POP SWAP1 POP PUSH1 0x0 DUP4 PUSH8 0xFFFFFFFFFFFFFFFF DUP2 GT ISZERO PUSH2 0x3EF JUMPI PUSH2 0x3EE PUSH2 0x920 JUMP JUMPDEST JUMPDEST PUSH1 0x40 MLOAD SWAP1 DUP1 DUP3 MSTORE DUP1 PUSH1 0x20 MUL PUSH1 0x20 ADD DUP3 ADD PUSH1 0x40 MSTORE DUP1 ISZERO PUSH2 0x422 JUMPI DUP2 PUSH1 0x20 ADD JUMPDEST PUSH1 0x60 DUP2 MSTORE PUSH1 0x20 ADD SWAP1 PUSH1 0x1 SWAP1 SUB SWAP1 DUP2 PUSH2 0x40D JUMPI SWAP1 POP JUMPDEST POP SWAP1 POP PUSH1 0x0 JUMPDEST DUP5 DUP2 LT ISZERO PUSH2 0x61B JUMPI PUSH1 0x0 PUSH1 0x1 DUP3 DUP2 SLOAD DUP2 LT PUSH2 0x446 JUMPI PUSH2 0x445 PUSH2 0xFDE JUMP JUMPDEST JUMPDEST SWAP1 PUSH1 0x0 MSTORE PUSH1 0x20 PUSH1 0x0 KECCAK256 ADD SLOAD SWAP1 POP PUSH1 0x0 DUP1 PUSH1 0x0 DUP4 DUP2 MSTORE PUSH1 0x20 ADD SWAP1 DUP2 MSTORE PUSH1 0x20 ADD PUSH1 0x0 KECCAK256 PUSH1 0x40 MLOAD DUP1 PUSH1 0x60 ADD PUSH1 0x40 MSTORE SWAP1 DUP2 PUSH1 0x0 DUP3 ADD DUP1 SLOAD PUSH2 0x482 SWAP1 PUSH2 0xD2F JUMP JUMPDEST DUP1 PUSH1 0x1F ADD PUSH1 0x20 DUP1 SWAP2 DIV MUL PUSH1 0x20 ADD PUSH1 0x40 MLOAD SWAP1 DUP2 ADD PUSH1 0x40 MSTORE DUP1 SWAP3 SWAP2 SWAP1 DUP2 DUP2 MSTORE PUSH1 0x20 ADD DUP3 DUP1 SLOAD PUSH2 0x4AE SWAP1 PUSH2 0xD2F JUMP JUMPDEST DUP1 ISZERO PUSH2 0x4FB JUMPI DUP1 PUSH1 0x1F LT PUSH2 0x4D0 JUMPI PUSH2 0x100 DUP1 DUP4 SLOAD DIV MUL DUP4 MSTORE SWAP2 PUSH1 0x20 ADD SWAP2 PUSH2 0x4FB JUMP JUMPDEST DUP3 ADD SWAP2 SWAP1 PUSH1 0x0 MSTORE PUSH1 0x20 PUSH1 0x0 KECCAK256 SWAP1 JUMPDEST DUP2 SLOAD DUP2 MSTORE SWAP1 PUSH1 0x1 ADD SWAP1 PUSH1 0x20 ADD DUP1 DUP4 GT PUSH2 0x4DE JUMPI DUP3 SWAP1 SUB PUSH1 0x1F AND DUP3 ADD SWAP2 JUMPDEST POP POP POP POP POP DUP2 MSTORE PUSH1 0x20 ADD PUSH1 0x1 DUP3 ADD SLOAD DUP2 MSTORE PUSH1 0x20 ADD PUSH1 0x2 DUP3 ADD DUP1 SLOAD PUSH2 0x51E SWAP1 PUSH2 0xD2F JUMP JUMPDEST DUP1 PUSH1 0x1F ADD PUSH1 0x20 DUP1 SWAP2 DIV MUL PUSH1 0x20 ADD PUSH1 0x40 MLOAD SWAP1 DUP2 ADD PUSH1 0x40 MSTORE DUP1 SWAP3 SWAP2 SWAP1 DUP2 DUP2 MSTORE PUSH1 0x20 ADD DUP3 DUP1 SLOAD PUSH2 0x54A SWAP1 PUSH2 0xD2F JUMP JUMPDEST DUP1 ISZERO PUSH2 0x597 JUMPI DUP1 PUSH1 0x1F LT PUSH2 0x56C JUMPI PUSH2 0x100 DUP1 DUP4 SLOAD DIV MUL DUP4 MSTORE SWAP2 PUSH1 0x20 ADD SWAP2 PUSH2 0x597 JUMP JUMPDEST DUP3 ADD SWAP2 SWAP1 PUSH1 0x0 MSTORE PUSH1 0x20 PUSH1 0x0 KECCAK256 SWAP1 JUMPDEST DUP2 SLOAD DUP2 MSTORE SWAP1 PUSH1 0x1 ADD SWAP1 PUSH1 0x20 ADD DUP1 DUP4 GT PUSH2 0x57A JUMPI DUP3 SWAP1 SUB PUSH1 0x1F AND DUP3 ADD SWAP2 JUMPDEST POP POP POP POP POP DUP2 MSTORE POP POP SWAP1 POP DUP1 PUSH1 0x0 ADD MLOAD DUP7 DUP5 DUP2 MLOAD DUP2 LT PUSH2 0x5BA JUMPI PUSH2 0x5B9 PUSH2 0xFDE JUMP JUMPDEST JUMPDEST PUSH1 0x20 MUL PUSH1 0x20 ADD ADD DUP2 SWAP1 MSTORE POP DUP1 PUSH1 0x20 ADD MLOAD DUP6 DUP5 DUP2 MLOAD DUP2 LT PUSH2 0x5DD JUMPI PUSH2 0x5DC PUSH2 0xFDE JUMP JUMPDEST JUMPDEST PUSH1 0x20 MUL PUSH1 0x20 ADD ADD DUP2 DUP2 MSTORE POP POP DUP1 PUSH1 0x40 ADD MLOAD DUP5 DUP5 DUP2 MLOAD DUP2 LT PUSH2 0x601 JUMPI PUSH2 0x600 PUSH2 0xFDE JUMP JUMPDEST JUMPDEST PUSH1 0x20 MUL PUSH1 0x20 ADD ADD DUP2 SWAP1 MSTORE POP POP POP DUP1 DUP1 PUSH1 0x1 ADD SWAP2 POP POP PUSH2 0x428 JUMP JUMPDEST POP DUP3 DUP3 DUP3 SWAP7 POP SWAP7 POP SWAP7 POP POP POP POP POP SWAP1 SWAP2 SWAP3 JUMP JUMPDEST PUSH1 0x60 PUSH1 0x0 PUSH1 0x60 PUSH1 0x0 DUP1 PUSH1 0x0 DUP7 DUP2 MSTORE PUSH1 0x20 ADD SWAP1 DUP2 MSTORE PUSH1 0x20 ADD PUSH1 0x0 KECCAK256 PUSH1 0x40 MLOAD DUP1 PUSH1 0x60 ADD PUSH1 0x40 MSTORE SWAP1 DUP2 PUSH1 0x0 DUP3 ADD DUP1 SLOAD PUSH2 0x663 SWAP1 PUSH2 0xD2F JUMP JUMPDEST DUP1 PUSH1 0x1F ADD PUSH1 0x20 DUP1 SWAP2 DIV MUL PUSH1 0x20 ADD PUSH1 0x40 MLOAD SWAP1 DUP2 ADD PUSH1 0x40 MSTORE DUP1 SWAP3 SWAP2 SWAP1 DUP2 DUP2 MSTORE PUSH1 0x20 ADD DUP3 DUP1 SLOAD PUSH2 0x68F SWAP1 PUSH2 0xD2F JUMP JUMPDEST DUP1 ISZERO PUSH2 0x6DC JUMPI DUP1 PUSH1 0x1F LT PUSH2 0x6B1 JUMPI PUSH2 0x100 DUP1 DUP4 SLOAD DIV MUL DUP4 MSTORE SWAP2 PUSH1 0x20 ADD SWAP2 PUSH2 0x6DC JUMP JUMPDEST DUP3 ADD SWAP2 SWAP1 PUSH1 0x0 MSTORE PUSH1 0x20 PUSH1 0x0 KECCAK256 SWAP1 JUMPDEST DUP2 SLOAD DUP2 MSTORE SWAP1 PUSH1 0x1 ADD SWAP1 PUSH1 0x20 ADD DUP1 DUP4 GT PUSH2 0x6BF JUMPI DUP3 SWAP1 SUB PUSH1 0x1F AND DUP3 ADD SWAP2 JUMPDEST POP POP POP POP POP DUP2 MSTORE PUSH1 0x20 ADD PUSH1 0x1 DUP3 ADD SLOAD DUP2 MSTORE PUSH1 0x20 ADD PUSH1 0x2 DUP3 ADD DUP1 SLOAD PUSH2 0x6FF SWAP1 PUSH2 0xD2F JUMP JUMPDEST DUP1 PUSH1 0x1F ADD PUSH1 0x20 DUP1 SWAP2 DIV MUL PUSH1 0x20 ADD PUSH1 0x40 MLOAD SWAP1 DUP2 ADD PUSH1 0x40 MSTORE DUP1 SWAP3 SWAP2 SWAP1 DUP2 DUP2 MSTORE PUSH1 0x20 ADD DUP3 DUP1 SLOAD PUSH2 0x72B SWAP1 PUSH2 0xD2F JUMP JUMPDEST DUP1 ISZERO PUSH2 0x778 JUMPI DUP1 PUSH1 0x1F LT PUSH2 0x74D JUMPI PUSH2 0x100 DUP1 DUP4 SLOAD DIV MUL DUP4 MSTORE SWAP2 PUSH1 0x20 ADD SWAP2 PUSH2 0x778 JUMP JUMPDEST DUP3 ADD SWAP2 SWAP1 PUSH1 0x0 MSTORE PUSH1 0x20 PUSH1 0x0 KECCAK256 SWAP1 JUMPDEST DUP2 SLOAD DUP2 MSTORE SWAP1 PUSH1 0x1 ADD SWAP1 PUSH1 0x20 ADD DUP1 DUP4 GT PUSH2 0x75B JUMPI DUP3 SWAP1 SUB PUSH1 0x1F AND DUP3 ADD SWAP2 JUMPDEST POP POP POP POP POP DUP2 MSTORE POP POP SWAP1 POP DUP1 PUSH1 0x0 ADD MLOAD DUP2 PUSH1 0x20 ADD MLOAD DUP3 PUSH1 0x40 ADD MLOAD SWAP4 POP SWAP4 POP SWAP4 POP POP SWAP2 SWAP4 SWAP1 SWAP3 POP JUMP JUMPDEST PUSH1 0x0 PUSH1 0x40 MLOAD SWAP1 POP SWAP1 JUMP JUMPDEST PUSH1 0x0 DUP1 REVERT JUMPDEST PUSH1 0x0 DUP1 REVERT JUMPDEST PUSH1 0x0 DUP2 SWAP1 POP SWAP2 SWAP1 POP JUMP JUMPDEST PUSH2 0x7C7 DUP2 PUSH2 0x7B4 JUMP JUMPDEST DUP2 EQ PUSH2 0x7D2 JUMPI PUSH1 0x0 DUP1 REVERT JUMPDEST POP JUMP JUMPDEST PUSH1 0x0 DUP2 CALLDATALOAD SWAP1 POP PUSH2 0x7E4 DUP2 PUSH2 0x7BE JUMP JUMPDEST SWAP3 SWAP2 POP POP JUMP JUMPDEST PUSH1 0x0 PUSH1 0x20 DUP3 DUP5 SUB SLT ISZERO PUSH2 0x800 JUMPI PUSH2 0x7FF PUSH2 0x7AA JUMP JUMPDEST JUMPDEST PUSH1 0x0 PUSH2 0x80E DUP5 DUP3 DUP6 ADD PUSH2 0x7D5 JUMP JUMPDEST SWAP2 POP POP SWAP3 SWAP2 POP POP JUMP JUMPDEST PUSH1 0x0 DUP2 MLOAD SWAP1 POP SWAP2 SWAP1 POP JUMP JUMPDEST PUSH1 0x0 DUP3 DUP3 MSTORE PUSH1 0x20 DUP3 ADD SWAP1 POP SWAP3 SWAP2 POP POP JUMP JUMPDEST PUSH1 0x0 JUMPDEST DUP4 DUP2 LT ISZERO PUSH2 0x851 JUMPI DUP1 DUP3 ADD MLOAD DUP2 DUP5 ADD MSTORE PUSH1 0x20 DUP2 ADD SWAP1 POP PUSH2 0x836 JUMP JUMPDEST PUSH1 0x0 DUP5 DUP5 ADD MSTORE POP POP POP POP JUMP JUMPDEST PUSH1 0x0 PUSH1 0x1F NOT PUSH1 0x1F DUP4 ADD AND SWAP1 POP SWAP2 SWAP1 POP JUMP JUMPDEST PUSH1 0x0 PUSH2 0x879 DUP3 PUSH2 0x817 JUMP JUMPDEST PUSH2 0x883 DUP2 DUP6 PUSH2 0x822 JUMP JUMPDEST SWAP4 POP PUSH2 0x893 DUP2 DUP6 PUSH1 0x20 DUP7 ADD PUSH2 0x833 JUMP JUMPDEST PUSH2 0x89C DUP2 PUSH2 0x85D JUMP JUMPDEST DUP5 ADD SWAP2 POP POP SWAP3 SWAP2 POP POP JUMP JUMPDEST PUSH2 0x8B0 DUP2 PUSH2 0x7B4 JUMP JUMPDEST DUP3 MSTORE POP POP JUMP JUMPDEST PUSH1 0x0 PUSH1 0x60 DUP3 ADD SWAP1 POP DUP2 DUP2 SUB PUSH1 0x0 DUP4 ADD MSTORE PUSH2 0x8D0 DUP2 DUP7 PUSH2 0x86E JUMP JUMPDEST SWAP1 POP PUSH2 0x8DF PUSH1 0x20 DUP4 ADD DUP6 PUSH2 0x8A7 JUMP JUMPDEST DUP2 DUP2 SUB PUSH1 0x40 DUP4 ADD MSTORE PUSH2 0x8F1 DUP2 DUP5 PUSH2 0x86E JUMP JUMPDEST SWAP1 POP SWAP5 SWAP4 POP POP POP POP JUMP JUMPDEST PUSH1 0x0 PUSH1 0x20 DUP3 ADD SWAP1 POP PUSH2 0x910 PUSH1 0x0 DUP4 ADD DUP5 PUSH2 0x8A7 JUMP JUMPDEST SWAP3 SWAP2 POP POP JUMP JUMPDEST PUSH1 0x0 DUP1 REVERT JUMPDEST PUSH1 0x0 DUP1 REVERT JUMPDEST PUSH32 0x4E487B7100000000000000000000000000000000000000000000000000000000 PUSH1 0x0 MSTORE PUSH1 0x41 PUSH1 0x4 MSTORE PUSH1 0x24 PUSH1 0x0 REVERT JUMPDEST PUSH2 0x958 DUP3 PUSH2 0x85D JUMP JUMPDEST DUP2 ADD DUP2 DUP2 LT PUSH8 0xFFFFFFFFFFFFFFFF DUP3 GT OR ISZERO PUSH2 0x977 JUMPI PUSH2 0x976 PUSH2 0x920 JUMP JUMPDEST JUMPDEST DUP1 PUSH1 0x40 MSTORE POP POP POP JUMP JUMPDEST PUSH1 0x0 PUSH2 0x98A PUSH2 0x7A0 JUMP JUMPDEST SWAP1 POP PUSH2 0x996 DUP3 DUP3 PUSH2 0x94F JUMP JUMPDEST SWAP2 SWAP1 POP JUMP JUMPDEST PUSH1 0x0 PUSH8 0xFFFFFFFFFFFFFFFF DUP3 GT ISZERO PUSH2 0x9B6 JUMPI PUSH2 0x9B5 PUSH2 0x920 JUMP JUMPDEST JUMPDEST PUSH2 0x9BF DUP3 PUSH2 0x85D JUMP JUMPDEST SWAP1 POP PUSH1 0x20 DUP2 ADD SWAP1 POP SWAP2 SWAP1 POP JUMP JUMPDEST DUP3 DUP2 DUP4 CALLDATACOPY PUSH1 0x0 DUP4 DUP4 ADD MSTORE POP POP POP JUMP JUMPDEST PUSH1 0x0 PUSH2 0x9EE PUSH2 0x9E9 DUP5 PUSH2 0x99B JUMP JUMPDEST PUSH2 0x980 JUMP JUMPDEST SWAP1 POP DUP3 DUP2 MSTORE PUSH1 0x20 DUP2 ADD DUP5 DUP5 DUP5 ADD GT ISZERO PUSH2 0xA0A JUMPI PUSH2 0xA09 PUSH2 0x91B JUMP JUMPDEST JUMPDEST PUSH2 0xA15 DUP5 DUP3 DUP6 PUSH2 0x9CC JUMP JUMPDEST POP SWAP4 SWAP3 POP POP POP JUMP JUMPDEST PUSH1 0x0 DUP3 PUSH1 0x1F DUP4 ADD SLT PUSH2 0xA32 JUMPI PUSH2 0xA31 PUSH2 0x916 JUMP JUMPDEST JUMPDEST DUP2 CALLDATALOAD PUSH2 0xA42 DUP5 DUP3 PUSH1 0x20 DUP7 ADD PUSH2 0x9DB JUMP JUMPDEST SWAP2 POP POP SWAP3 SWAP2 POP POP JUMP JUMPDEST PUSH1 0x0 DUP1 PUSH1 0x0 DUP1 PUSH1 0x80 DUP6 DUP8 SUB SLT ISZERO PUSH2 0xA65 JUMPI PUSH2 0xA64 PUSH2 0x7AA JUMP JUMPDEST JUMPDEST PUSH1 0x0 PUSH2 0xA73 DUP8 DUP3 DUP9 ADD PUSH2 0x7D5 JUMP JUMPDEST SWAP5 POP POP PUSH1 0x20 DUP6 ADD CALLDATALOAD PUSH8 0xFFFFFFFFFFFFFFFF DUP2 GT ISZERO PUSH2 0xA94 JUMPI PUSH2 0xA93 PUSH2 0x7AF JUMP JUMPDEST JUMPDEST PUSH2 0xAA0 DUP8 DUP3 DUP9 ADD PUSH2 0xA1D JUMP JUMPDEST SWAP4 POP POP PUSH1 0x40 PUSH2 0xAB1 DUP8 DUP3 DUP9 ADD PUSH2 0x7D5 JUMP JUMPDEST SWAP3 POP POP PUSH1 0x60 DUP6 ADD CALLDATALOAD PUSH8 0xFFFFFFFFFFFFFFFF DUP2 GT ISZERO PUSH2 0xAD2 JUMPI PUSH2 0xAD1 PUSH2 0x7AF JUMP JUMPDEST JUMPDEST PUSH2 0xADE DUP8 DUP3 DUP9 ADD PUSH2 0xA1D JUMP JUMPDEST SWAP2 POP POP SWAP3 SWAP6 SWAP2 SWAP5 POP SWAP3 POP JUMP JUMPDEST PUSH1 0x0 DUP2 MLOAD SWAP1 POP SWAP2 SWAP1 POP JUMP JUMPDEST PUSH1 0x0 DUP3 DUP3 MSTORE PUSH1 0x20 DUP3 ADD SWAP1 POP SWAP3 SWAP2 POP POP JUMP JUMPDEST PUSH1 0x0 DUP2 SWAP1 POP PUSH1 0x20 DUP3 ADD SWAP1 POP SWAP2 SWAP1 POP JUMP JUMPDEST PUSH1 0x0 DUP3 DUP3 MSTORE PUSH1 0x20 DUP3 ADD SWAP1 POP SWAP3 SWAP2 POP POP JUMP JUMPDEST PUSH1 0x0 PUSH2 0xB32 DUP3 PUSH2 0x817 JUMP JUMPDEST PUSH2 0xB3C DUP2 DUP6 PUSH2 0xB16 JUMP JUMPDEST SWAP4 POP PUSH2 0xB4C DUP2 DUP6 PUSH1 0x20 DUP7 ADD PUSH2 0x833 JUMP JUMPDEST PUSH2 0xB55 DUP2 PUSH2 0x85D JUMP JUMPDEST DUP5 ADD SWAP2 POP POP SWAP3 SWAP2 POP POP JUMP JUMPDEST PUSH1 0x0 PUSH2 0xB6C DUP4 DUP4 PUSH2 0xB27 JUMP JUMPDEST SWAP1 POP SWAP3 SWAP2 POP POP JUMP JUMPDEST PUSH1 0x0 PUSH1 0x20 DUP3 ADD SWAP1 POP SWAP2 SWAP1 POP JUMP JUMPDEST PUSH1 0x0 PUSH2 0xB8C DUP3 PUSH2 0xAEA JUMP JUMPDEST PUSH2 0xB96 DUP2 DUP6 PUSH2 0xAF5 JUMP JUMPDEST SWAP4 POP DUP4 PUSH1 0x20 DUP3 MUL DUP6 ADD PUSH2 0xBA8 DUP6 PUSH2 0xB06 JUMP JUMPDEST DUP1 PUSH1 0x0 JUMPDEST DUP6 DUP2 LT ISZERO PUSH2 0xBE4 JUMPI DUP5 DUP5 SUB DUP10 MSTORE DUP2 MLOAD PUSH2 0xBC5 DUP6 DUP3 PUSH2 0xB60 JUMP JUMPDEST SWAP5 POP PUSH2 0xBD0 DUP4 PUSH2 0xB74 JUMP JUMPDEST SWAP3 POP PUSH1 0x20 DUP11 ADD SWAP10 POP POP PUSH1 0x1 DUP2 ADD SWAP1 POP PUSH2 0xBAC JUMP JUMPDEST POP DUP3 SWAP8 POP DUP8 SWAP6 POP POP POP POP POP POP SWAP3 SWAP2 POP POP JUMP JUMPDEST PUSH1 0x0 DUP2 MLOAD SWAP1 POP SWAP2 SWAP1 POP JUMP JUMPDEST PUSH1 0x0 DUP3 DUP3 MSTORE PUSH1 0x20 DUP3 ADD SWAP1 POP SWAP3 SWAP2 POP POP JUMP JUMPDEST PUSH1 0x0 DUP2 SWAP1 POP PUSH1 0x20 DUP3 ADD SWAP1 POP SWAP2 SWAP1 POP JUMP JUMPDEST PUSH2 0xC2B DUP2 PUSH2 0x7B4 JUMP JUMPDEST DUP3 MSTORE POP POP JUMP JUMPDEST PUSH1 0x0 PUSH2 0xC3D DUP4 DUP4 PUSH2 0xC22 JUMP JUMPDEST PUSH1 0x20 DUP4 ADD SWAP1 POP SWAP3 SWAP2 POP POP JUMP JUMPDEST PUSH1 0x0 PUSH1 0x20 DUP3 ADD SWAP1 POP SWAP2 SWAP1 POP JUMP JUMPDEST PUSH1 0x0 PUSH2 0xC61 DUP3 PUSH2 0xBF6 JUMP JUMPDEST PUSH2 0xC6B DUP2 DUP6 PUSH2 0xC01 JUMP JUMPDEST SWAP4 POP PUSH2 0xC76 DUP4 PUSH2 0xC12 JUMP JUMPDEST DUP1 PUSH1 0x0 JUMPDEST DUP4 DUP2 LT ISZERO PUSH2 0xCA7 JUMPI DUP2 MLOAD PUSH2 0xC8E DUP9 DUP3 PUSH2 0xC31 JUMP JUMPDEST SWAP8 POP PUSH2 0xC99 DUP4 PUSH2 0xC49 JUMP JUMPDEST SWAP3 POP POP PUSH1 0x1 DUP2 ADD SWAP1 POP PUSH2 0xC7A JUMP JUMPDEST POP DUP6 SWAP4 POP POP POP POP SWAP3 SWAP2 POP POP JUMP JUMPDEST PUSH1 0x0 PUSH1 0x60 DUP3 ADD SWAP1 POP DUP2 DUP2 SUB PUSH1 0x0 DUP4 ADD MSTORE PUSH2 0xCCE DUP2 DUP7 PUSH2 0xB81 JUMP JUMPDEST SWAP1 POP DUP2 DUP2 SUB PUSH1 0x20 DUP4 ADD MSTORE PUSH2 0xCE2 DUP2 DUP6 PUSH2 0xC56 JUMP JUMPDEST SWAP1 POP DUP2 DUP2 SUB PUSH1 0x40 DUP4 ADD MSTORE PUSH2 0xCF6 DUP2 DUP5 PUSH2 0xB81 JUMP JUMPDEST SWAP1 POP SWAP5 SWAP4 POP POP POP POP JUMP JUMPDEST PUSH32 0x4E487B7100000000000000000000000000000000000000000000000000000000 PUSH1 0x0 MSTORE PUSH1 0x22 PUSH1 0x4 MSTORE PUSH1 0x24 PUSH1 0x0 REVERT JUMPDEST PUSH1 0x0 PUSH1 0x2 DUP3 DIV SWAP1 POP PUSH1 0x1 DUP3 AND DUP1 PUSH2 0xD47 JUMPI PUSH1 0x7F DUP3 AND SWAP2 POP JUMPDEST PUSH1 0x20 DUP3 LT DUP2 SUB PUSH2 0xD5A JUMPI PUSH2 0xD59 PUSH2 0xD00 JUMP JUMPDEST JUMPDEST POP SWAP2 SWAP1 POP JUMP JUMPDEST PUSH1 0x0 DUP2 SWAP1 POP DUP2 PUSH1 0x0 MSTORE PUSH1 0x20 PUSH1 0x0 KECCAK256 SWAP1 POP SWAP2 SWAP1 POP JUMP JUMPDEST PUSH1 0x0 PUSH1 0x20 PUSH1 0x1F DUP4 ADD DIV SWAP1 POP SWAP2 SWAP1 POP JUMP JUMPDEST PUSH1 0x0 DUP3 DUP3 SHL SWAP1 POP SWAP3 SWAP2 POP POP JUMP JUMPDEST PUSH1 0x0 PUSH1 0x8 DUP4 MUL PUSH2 0xDC2 PUSH32 0xFFFFFFFFFFFFFFFFFFFFFFFFFFFFFFFFFFFFFFFFFFFFFFFFFFFFFFFFFFFFFFFF DUP3 PUSH2 0xD85 JUMP JUMPDEST PUSH2 0xDCC DUP7 DUP4 PUSH2 0xD85 JUMP JUMPDEST SWAP6 POP DUP1 NOT DUP5 AND SWAP4 POP DUP1 DUP7 AND DUP5 OR SWAP3 POP POP POP SWAP4 SWAP3 POP POP POP JUMP JUMPDEST PUSH1 0x0 DUP2 SWAP1 POP SWAP2 SWAP1 POP JUMP JUMPDEST PUSH1 0x0 PUSH2 0xE09 PUSH2 0xE04 PUSH2 0xDFF DUP5 PUSH2 0x7B4 JUMP JUMPDEST PUSH2 0xDE4 JUMP JUMPDEST PUSH2 0x7B4 JUMP JUMPDEST SWAP1 POP SWAP2 SWAP1 POP JUMP JUMPDEST PUSH1 0x0 DUP2 SWAP1 POP SWAP2 SWAP1 POP JUMP JUMPDEST PUSH2 0xE23 DUP4 PUSH2 0xDEE JUMP JUMPDEST PUSH2 0xE37 PUSH2 0xE2F DUP3 PUSH2 0xE10 JUMP JUMPDEST DUP5 DUP5 SLOAD PUSH2 0xD92 JUMP JUMPDEST DUP3 SSTORE POP POP POP POP JUMP JUMPDEST PUSH1 0x0 SWAP1 JUMP JUMPDEST PUSH2 0xE4C PUSH2 0xE3F JUMP JUMPDEST PUSH2 0xE57 DUP2 DUP5 DUP5 PUSH2 0xE1A JUMP JUMPDEST POP POP POP JUMP JUMPDEST JUMPDEST DUP2 DUP2 LT ISZERO PUSH2 0xE7B JUMPI PUSH2 0xE70 PUSH1 0x0 DUP3 PUSH2 0xE44 JUMP JUMPDEST PUSH1 0x1 DUP2 ADD SWAP1 POP PUSH2 0xE5D JUMP JUMPDEST POP POP JUMP JUMPDEST PUSH1 0x1F DUP3 GT ISZERO PUSH2 0xEC0 JUMPI PUSH2 0xE91 DUP2 PUSH2 0xD60 JUMP JUMPDEST PUSH2 0xE9A DUP5 PUSH2 0xD75 JUMP JUMPDEST DUP2 ADD PUSH1 0x20 DUP6 LT ISZERO PUSH2 0xEA9 JUMPI DUP2 SWAP1 POP JUMPDEST PUSH2 0xEBD PUSH2 0xEB5 DUP6 PUSH2 0xD75 JUMP JUMPDEST DUP4 ADD DUP3 PUSH2 0xE5C JUMP JUMPDEST POP POP JUMPDEST POP POP POP JUMP JUMPDEST PUSH1 0x0 DUP3 DUP3 SHR SWAP1 POP SWAP3 SWAP2 POP POP JUMP JUMPDEST PUSH1 0x0 PUSH2 0xEE3 PUSH1 0x0 NOT DUP5 PUSH1 0x8 MUL PUSH2 0xEC5 JUMP JUMPDEST NOT DUP1 DUP4 AND SWAP2 POP POP SWAP3 SWAP2 POP POP JUMP JUMPDEST PUSH1 0x0 PUSH2 0xEFC DUP4 DUP4 PUSH2 0xED2 JUMP JUMPDEST SWAP2 POP DUP3 PUSH1 0x2 MUL DUP3 OR SWAP1 POP SWAP3 SWAP2 POP POP JUMP JUMPDEST PUSH2 0xF15 DUP3 PUSH2 0x817 JUMP JUMPDEST PUSH8 0xFFFFFFFFFFFFFFFF DUP2 GT ISZERO PUSH2 0xF2E JUMPI PUSH2 0xF2D PUSH2 0x920 JUMP JUMPDEST JUMPDEST PUSH2 0xF38 DUP3 SLOAD PUSH2 0xD2F JUMP JUMPDEST PUSH2 0xF43 DUP3 DUP3 DUP6 PUSH2 0xE7F JUMP JUMPDEST PUSH1 0x0 PUSH1 0x20 SWAP1 POP PUSH1 0x1F DUP4 GT PUSH1 0x1 DUP2 EQ PUSH2 0xF76 JUMPI PUSH1 0x0 DUP5 ISZERO PUSH2 0xF64 JUMPI DUP3 DUP8 ADD MLOAD SWAP1 POP JUMPDEST PUSH2 0xF6E DUP6 DUP3 PUSH2 0xEF0 JUMP JUMPDEST DUP7 SSTORE POP PUSH2 0xFD6 JUMP JUMPDEST PUSH1 0x1F NOT DUP5 AND PUSH2 0xF84 DUP7 PUSH2 0xD60 JUMP JUMPDEST PUSH1 0x0 JUMPDEST DUP3 DUP2 LT ISZERO PUSH2 0xFAC JUMPI DUP5 DUP10 ADD MLOAD DUP3 SSTORE PUSH1 0x1 DUP3 ADD SWAP2 POP PUSH1 0x20 DUP6 ADD SWAP5 POP PUSH1 0x20 DUP2 ADD SWAP1 POP PUSH2 0xF87 JUMP JUMPDEST DUP7 DUP4 LT ISZERO PUSH2 0xFC9 JUMPI DUP5 DUP10 ADD MLOAD PUSH2 0xFC5 PUSH1 0x1F DUP10 AND DUP3 PUSH2 0xED2 JUMP JUMPDEST DUP4 SSTORE POP JUMPDEST PUSH1 0x1 PUSH1 0x2 DUP9 MUL ADD DUP9 SSTORE POP POP POP JUMPDEST POP POP POP POP POP POP JUMP JUMPDEST PUSH32 0x4E487B7100000000000000000000000000000000000000000000000000000000 PUSH1 0x0 MSTORE PUSH1 0x32 PUSH1 0x4 MSTORE PUSH1 0x24 PUSH1 0x0 REVERT INVALID LOG2 PUSH5 0x6970667358 0x22 SLT KECCAK256 LOG2 GASLIMIT LOG1 NUMBER 0xD6 PUSH24 0x78B3BD324E34E2E644B876112345D38DB8BB877E91E0183A 0xAC 0xC2 PUSH5 0x736F6C6343 STOP ADDMOD SHR STOP CALLER "
				},
				"gasEstimates": {
					"creation": {
						"codeDepositCost": "832600",
						"executionCost": "870",
						"totalCost": "833470"
					},
					"external": {
						"addPetani(uint256,string,uint256,string)": "infinite",
						"getAllPetani()": "infinite",
						"getPetani(uint256)": "infinite",
						"petani(uint256)": "infinite",
						"petaniIds(uint256)": "infinite"
					}
				},
				"methodIdentifiers": {
					"addPetani(uint256,string,uint256,string)": "90d9d40a",
					"getAllPetani()": "ea51dee0",
					"getPetani(uint256)": "f6042d93",
					"petani(uint256)": "7c84040c",
					"petaniIds(uint256)": "87d636de"
				}
			},
			"storageLayout": {
				"storage": [
					{
						"astId": 13,
						"contract": "app/Contracts/PetaniCRUD.sol:Petani",
						"label": "petani",
						"offset": 0,
						"slot": "0",
						"type": "t_mapping(t_uint256,t_struct(PetaniData)8_storage)"
					},
					{
						"astId": 16,
						"contract": "app/Contracts/PetaniCRUD.sol:Petani",
						"label": "petaniIds",
						"offset": 0,
						"slot": "1",
						"type": "t_array(t_uint256)dyn_storage"
					}
				],
				"types": {
					"t_array(t_uint256)dyn_storage": {
						"base": "t_uint256",
						"encoding": "dynamic_array",
						"label": "uint256[]",
						"numberOfBytes": "32"
					},
					"t_mapping(t_uint256,t_struct(PetaniData)8_storage)": {
						"encoding": "mapping",
						"key": "t_uint256",
						"label": "mapping(uint256 => struct Petani.PetaniData)",
						"numberOfBytes": "32",
						"value": "t_struct(PetaniData)8_storage"
					},
					"t_string_storage": {
						"encoding": "bytes",
						"label": "string",
						"numberOfBytes": "32"
					},
					"t_struct(PetaniData)8_storage": {
						"encoding": "inplace",
						"label": "struct Petani.PetaniData",
						"members": [
							{
								"astId": 3,
								"contract": "app/Contracts/PetaniCRUD.sol:Petani",
								"label": "nama",
								"offset": 0,
								"slot": "0",
								"type": "t_string_storage"
							},
							{
								"astId": 5,
								"contract": "app/Contracts/PetaniCRUD.sol:Petani",
								"label": "usia",
								"offset": 0,
								"slot": "1",
								"type": "t_uint256"
							},
							{
								"astId": 7,
								"contract": "app/Contracts/PetaniCRUD.sol:Petani",
								"label": "lokasi",
								"offset": 0,
								"slot": "2",
								"type": "t_string_storage"
							}
						],
						"numberOfBytes": "96"
					},
					"t_uint256": {
						"encoding": "inplace",
						"label": "uint256",
						"numberOfBytes": "32"
					}
				}
			},
			"userdoc": {
				"kind": "user",
				"methods": {},
				"version": 1
			}
		}
	}
}