{
	"data": {
		"bytecode": {
			"linkReferences": {},
			"object": "608060405260018055348015601357600080fd5b50610e31806100236000396000f3fe608060405234801561001057600080fd5b50600436106100575760003560e01c80634175e5191461005c5780636539bb3914610078578063944d6dda14610094578063ba5c40cd146100b0578063f6042d93146100ce575b600080fd5b61007660048036038101906100719190610748565b610100565b005b610092600480360381019061008d91906107e7565b6101f9565b005b6100ae60048036038101906100a99190610872565b6102bd565b005b6100b8610384565b6040516100c591906108ae565b60405180910390f35b6100e860048036038101906100e39190610872565b610399565b6040516100f793929190610948565b60405180910390f35b600084118015610111575060015484105b610150576040517f08c379a0000000000000000000000000000000000000000000000000000000008152600401610147906109ff565b60405180910390fd5b60405180606001604052808481526020018381526020018281525060008086815260200190815260200160002060008201518160000190816101929190610c2b565b506020820151816001015560408201518160020190816101b29190610c2b565b509050507f43c026747c5086d92529159328a627bfdb2e7e9938d89ef546e50afade135c8c848484846040516101eb9493929190610cfd565b60405180910390a150505050565b6040518060600160405280848152602001838152602001828152506000806001548152602001908152602001600020600082015181600001908161023d9190610c2b565b5060208201518160010155604082015181600201908161025d9190610c2b565b509050507ff300f83c6b3daf999fa092080e387c50ddb91d2b99af06f0c005bbf7d9f0cc2e6001548484846040516102989493929190610cfd565b60405180910390a1600160008154809291906102b390610d7f565b9190505550505050565b6000811180156102ce575060015481105b61030d576040517f08c379a0000000000000000000000000000000000000000000000000000000008152600401610304906109ff565b60405180910390fd5b60008082815260200190815260200160002060008082016000610330919061055b565b6001820160009055600282016000610348919061055b565b50507fb034b57178c067e24abb93ff50efb5c9d6f96afbb0ef1f1575da7fa3308348688160405161037991906108ae565b60405180910390a150565b6000600180546103949190610dc7565b905090565b6060600060606000841180156103b0575060015484105b6103ef576040517f08c379a00000000000000000000000000000000000000000000000000000000081526004016103e6906109ff565b60405180910390fd5b600080600086815260200190815260200160002060405180606001604052908160008201805461041e90610a4e565b80601f016020809104026020016040519081016040528092919081815260200182805461044a90610a4e565b80156104975780601f1061046c57610100808354040283529160200191610497565b820191906000526020600020905b81548152906001019060200180831161047a57829003601f168201915b50505050508152602001600182015481526020016002820180546104ba90610a4e565b80601f01602080910402602001604051908101604052809291908181526020018280546104e690610a4e565b80156105335780601f1061050857610100808354040283529160200191610533565b820191906000526020600020905b81548152906001019060200180831161051657829003601f168201915b5050505050815250509050806000015181602001518260400151935093509350509193909250565b50805461056790610a4e565b6000825580601f106105795750610598565b601f016020900490600052602060002090810190610597919061059b565b5b50565b5b808211156105b457600081600090555060010161059c565b5090565b6000604051905090565b600080fd5b600080fd5b6000819050919050565b6105df816105cc565b81146105ea57600080fd5b50565b6000813590506105fc816105d6565b92915050565b600080fd5b600080fd5b6000601f19601f8301169050919050565b7f4e487b7100000000000000000000000000000000000000000000000000000000600052604160045260246000fd5b6106558261060c565b810181811067ffffffffffffffff821117156106745761067361061d565b5b80604052505050565b60006106876105b8565b9050610693828261064c565b919050565b600067ffffffffffffffff8211156106b3576106b261061d565b5b6106bc8261060c565b9050602081019050919050565b82818337600083830152505050565b60006106eb6106e684610698565b61067d565b90508281526020810184848401111561070757610706610607565b5b6107128482856106c9565b509392505050565b600082601f83011261072f5761072e610602565b5b813561073f8482602086016106d8565b91505092915050565b60008060008060808587031215610762576107616105c2565b5b6000610770878288016105ed565b945050602085013567ffffffffffffffff811115610791576107906105c7565b5b61079d8782880161071a565b93505060406107ae878288016105ed565b925050606085013567ffffffffffffffff8111156107cf576107ce6105c7565b5b6107db8782880161071a565b91505092959194509250565b600080600060608486031215610800576107ff6105c2565b5b600084013567ffffffffffffffff81111561081e5761081d6105c7565b5b61082a8682870161071a565b935050602061083b868287016105ed565b925050604084013567ffffffffffffffff81111561085c5761085b6105c7565b5b6108688682870161071a565b9150509250925092565b600060208284031215610888576108876105c2565b5b6000610896848285016105ed565b91505092915050565b6108a8816105cc565b82525050565b60006020820190506108c3600083018461089f565b92915050565b600081519050919050565b600082825260208201905092915050565b60005b838110156109035780820151818401526020810190506108e8565b60008484015250505050565b600061091a826108c9565b61092481856108d4565b93506109348185602086016108e5565b61093d8161060c565b840191505092915050565b60006060820190508181036000830152610962818661090f565b9050610971602083018561089f565b8181036040830152610983818461090f565b9050949350505050565b7f506574616e692064656e67616e20494420746572736562757420746964616b2060008201527f646974656d756b616e2e00000000000000000000000000000000000000000000602082015250565b60006109e9602a836108d4565b91506109f48261098d565b604082019050919050565b60006020820190508181036000830152610a18816109dc565b9050919050565b7f4e487b7100000000000000000000000000000000000000000000000000000000600052602260045260246000fd5b60006002820490506001821680610a6657607f821691505b602082108103610a7957610a78610a1f565b5b50919050565b60008190508160005260206000209050919050565b60006020601f8301049050919050565b600082821b905092915050565b600060088302610ae17fffffffffffffffffffffffffffffffffffffffffffffffffffffffffffffffff82610aa4565b610aeb8683610aa4565b95508019841693508086168417925050509392505050565b6000819050919050565b6000610b28610b23610b1e846105cc565b610b03565b6105cc565b9050919050565b6000819050919050565b610b4283610b0d565b610b56610b4e82610b2f565b848454610ab1565b825550505050565b600090565b610b6b610b5e565b610b76818484610b39565b505050565b5b81811015610b9a57610b8f600082610b63565b600181019050610b7c565b5050565b601f821115610bdf57610bb081610a7f565b610bb984610a94565b81016020851015610bc8578190505b610bdc610bd485610a94565b830182610b7b565b50505b505050565b600082821c905092915050565b6000610c0260001984600802610be4565b1980831691505092915050565b6000610c1b8383610bf1565b9150826002028217905092915050565b610c34826108c9565b67ffffffffffffffff811115610c4d57610c4c61061d565b5b610c578254610a4e565b610c62828285610b9e565b600060209050601f831160018114610c955760008415610c83578287015190505b610c8d8582610c0f565b865550610cf5565b601f198416610ca386610a7f565b60005b82811015610ccb57848901518255600182019150602085019450602081019050610ca6565b86831015610ce85784890151610ce4601f891682610bf1565b8355505b6001600288020188555050505b505050505050565b6000608082019050610d12600083018761089f565b8181036020830152610d24818661090f565b9050610d33604083018561089f565b8181036060830152610d45818461090f565b905095945050505050565b7f4e487b7100000000000000000000000000000000000000000000000000000000600052601160045260246000fd5b6000610d8a826105cc565b91507fffffffffffffffffffffffffffffffffffffffffffffffffffffffffffffffff8203610dbc57610dbb610d50565b5b600182019050919050565b6000610dd2826105cc565b9150610ddd836105cc565b9250828203905081811115610df557610df4610d50565b5b9291505056fea26469706673582212203fd05ab996aea965017b5e4f2e4e93a56914d306f4b49209409302f59a4c768964736f6c634300081c0033",
			"opcodes": "PUSH1 0x80 PUSH1 0x40 MSTORE PUSH1 0x1 DUP1 SSTORE CALLVALUE DUP1 ISZERO PUSH1 0x13 JUMPI PUSH1 0x0 DUP1 REVERT JUMPDEST POP PUSH2 0xE31 DUP1 PUSH2 0x23 PUSH1 0x0 CODECOPY PUSH1 0x0 RETURN INVALID PUSH1 0x80 PUSH1 0x40 MSTORE CALLVALUE DUP1 ISZERO PUSH2 0x10 JUMPI PUSH1 0x0 DUP1 REVERT JUMPDEST POP PUSH1 0x4 CALLDATASIZE LT PUSH2 0x57 JUMPI PUSH1 0x0 CALLDATALOAD PUSH1 0xE0 SHR DUP1 PUSH4 0x4175E519 EQ PUSH2 0x5C JUMPI DUP1 PUSH4 0x6539BB39 EQ PUSH2 0x78 JUMPI DUP1 PUSH4 0x944D6DDA EQ PUSH2 0x94 JUMPI DUP1 PUSH4 0xBA5C40CD EQ PUSH2 0xB0 JUMPI DUP1 PUSH4 0xF6042D93 EQ PUSH2 0xCE JUMPI JUMPDEST PUSH1 0x0 DUP1 REVERT JUMPDEST PUSH2 0x76 PUSH1 0x4 DUP1 CALLDATASIZE SUB DUP2 ADD SWAP1 PUSH2 0x71 SWAP2 SWAP1 PUSH2 0x748 JUMP JUMPDEST PUSH2 0x100 JUMP JUMPDEST STOP JUMPDEST PUSH2 0x92 PUSH1 0x4 DUP1 CALLDATASIZE SUB DUP2 ADD SWAP1 PUSH2 0x8D SWAP2 SWAP1 PUSH2 0x7E7 JUMP JUMPDEST PUSH2 0x1F9 JUMP JUMPDEST STOP JUMPDEST PUSH2 0xAE PUSH1 0x4 DUP1 CALLDATASIZE SUB DUP2 ADD SWAP1 PUSH2 0xA9 SWAP2 SWAP1 PUSH2 0x872 JUMP JUMPDEST PUSH2 0x2BD JUMP JUMPDEST STOP JUMPDEST PUSH2 0xB8 PUSH2 0x384 JUMP JUMPDEST PUSH1 0x40 MLOAD PUSH2 0xC5 SWAP2 SWAP1 PUSH2 0x8AE JUMP JUMPDEST PUSH1 0x40 MLOAD DUP1 SWAP2 SUB SWAP1 RETURN JUMPDEST PUSH2 0xE8 PUSH1 0x4 DUP1 CALLDATASIZE SUB DUP2 ADD SWAP1 PUSH2 0xE3 SWAP2 SWAP1 PUSH2 0x872 JUMP JUMPDEST PUSH2 0x399 JUMP JUMPDEST PUSH1 0x40 MLOAD PUSH2 0xF7 SWAP4 SWAP3 SWAP2 SWAP1 PUSH2 0x948 JUMP JUMPDEST PUSH1 0x40 MLOAD DUP1 SWAP2 SUB SWAP1 RETURN JUMPDEST PUSH1 0x0 DUP5 GT DUP1 ISZERO PUSH2 0x111 JUMPI POP PUSH1 0x1 SLOAD DUP5 LT JUMPDEST PUSH2 0x150 JUMPI PUSH1 0x40 MLOAD PUSH32 0x8C379A000000000000000000000000000000000000000000000000000000000 DUP2 MSTORE PUSH1 0x4 ADD PUSH2 0x147 SWAP1 PUSH2 0x9FF JUMP JUMPDEST PUSH1 0x40 MLOAD DUP1 SWAP2 SUB SWAP1 REVERT JUMPDEST PUSH1 0x40 MLOAD DUP1 PUSH1 0x60 ADD PUSH1 0x40 MSTORE DUP1 DUP5 DUP2 MSTORE PUSH1 0x20 ADD DUP4 DUP2 MSTORE PUSH1 0x20 ADD DUP3 DUP2 MSTORE POP PUSH1 0x0 DUP1 DUP7 DUP2 MSTORE PUSH1 0x20 ADD SWAP1 DUP2 MSTORE PUSH1 0x20 ADD PUSH1 0x0 KECCAK256 PUSH1 0x0 DUP3 ADD MLOAD DUP2 PUSH1 0x0 ADD SWAP1 DUP2 PUSH2 0x192 SWAP2 SWAP1 PUSH2 0xC2B JUMP JUMPDEST POP PUSH1 0x20 DUP3 ADD MLOAD DUP2 PUSH1 0x1 ADD SSTORE PUSH1 0x40 DUP3 ADD MLOAD DUP2 PUSH1 0x2 ADD SWAP1 DUP2 PUSH2 0x1B2 SWAP2 SWAP1 PUSH2 0xC2B JUMP JUMPDEST POP SWAP1 POP POP PUSH32 0x43C026747C5086D92529159328A627BFDB2E7E9938D89EF546E50AFADE135C8C DUP5 DUP5 DUP5 DUP5 PUSH1 0x40 MLOAD PUSH2 0x1EB SWAP5 SWAP4 SWAP3 SWAP2 SWAP1 PUSH2 0xCFD JUMP JUMPDEST PUSH1 0x40 MLOAD DUP1 SWAP2 SUB SWAP1 LOG1 POP POP POP POP JUMP JUMPDEST PUSH1 0x40 MLOAD DUP1 PUSH1 0x60 ADD PUSH1 0x40 MSTORE DUP1 DUP5 DUP2 MSTORE PUSH1 0x20 ADD DUP4 DUP2 MSTORE PUSH1 0x20 ADD DUP3 DUP2 MSTORE POP PUSH1 0x0 DUP1 PUSH1 0x1 SLOAD DUP2 MSTORE PUSH1 0x20 ADD SWAP1 DUP2 MSTORE PUSH1 0x20 ADD PUSH1 0x0 KECCAK256 PUSH1 0x0 DUP3 ADD MLOAD DUP2 PUSH1 0x0 ADD SWAP1 DUP2 PUSH2 0x23D SWAP2 SWAP1 PUSH2 0xC2B JUMP JUMPDEST POP PUSH1 0x20 DUP3 ADD MLOAD DUP2 PUSH1 0x1 ADD SSTORE PUSH1 0x40 DUP3 ADD MLOAD DUP2 PUSH1 0x2 ADD SWAP1 DUP2 PUSH2 0x25D SWAP2 SWAP1 PUSH2 0xC2B JUMP JUMPDEST POP SWAP1 POP POP PUSH32 0xF300F83C6B3DAF999FA092080E387C50DDB91D2B99AF06F0C005BBF7D9F0CC2E PUSH1 0x1 SLOAD DUP5 DUP5 DUP5 PUSH1 0x40 MLOAD PUSH2 0x298 SWAP5 SWAP4 SWAP3 SWAP2 SWAP1 PUSH2 0xCFD JUMP JUMPDEST PUSH1 0x40 MLOAD DUP1 SWAP2 SUB SWAP1 LOG1 PUSH1 0x1 PUSH1 0x0 DUP2 SLOAD DUP1 SWAP3 SWAP2 SWAP1 PUSH2 0x2B3 SWAP1 PUSH2 0xD7F JUMP JUMPDEST SWAP2 SWAP1 POP SSTORE POP POP POP POP JUMP JUMPDEST PUSH1 0x0 DUP2 GT DUP1 ISZERO PUSH2 0x2CE JUMPI POP PUSH1 0x1 SLOAD DUP2 LT JUMPDEST PUSH2 0x30D JUMPI PUSH1 0x40 MLOAD PUSH32 0x8C379A000000000000000000000000000000000000000000000000000000000 DUP2 MSTORE PUSH1 0x4 ADD PUSH2 0x304 SWAP1 PUSH2 0x9FF JUMP JUMPDEST PUSH1 0x40 MLOAD DUP1 SWAP2 SUB SWAP1 REVERT JUMPDEST PUSH1 0x0 DUP1 DUP3 DUP2 MSTORE PUSH1 0x20 ADD SWAP1 DUP2 MSTORE PUSH1 0x20 ADD PUSH1 0x0 KECCAK256 PUSH1 0x0 DUP1 DUP3 ADD PUSH1 0x0 PUSH2 0x330 SWAP2 SWAP1 PUSH2 0x55B JUMP JUMPDEST PUSH1 0x1 DUP3 ADD PUSH1 0x0 SWAP1 SSTORE PUSH1 0x2 DUP3 ADD PUSH1 0x0 PUSH2 0x348 SWAP2 SWAP1 PUSH2 0x55B JUMP JUMPDEST POP POP PUSH32 0xB034B57178C067E24ABB93FF50EFB5C9D6F96AFBB0EF1F1575DA7FA330834868 DUP2 PUSH1 0x40 MLOAD PUSH2 0x379 SWAP2 SWAP1 PUSH2 0x8AE JUMP JUMPDEST PUSH1 0x40 MLOAD DUP1 SWAP2 SUB SWAP1 LOG1 POP JUMP JUMPDEST PUSH1 0x0 PUSH1 0x1 DUP1 SLOAD PUSH2 0x394 SWAP2 SWAP1 PUSH2 0xDC7 JUMP JUMPDEST SWAP1 POP SWAP1 JUMP JUMPDEST PUSH1 0x60 PUSH1 0x0 PUSH1 0x60 PUSH1 0x0 DUP5 GT DUP1 ISZERO PUSH2 0x3B0 JUMPI POP PUSH1 0x1 SLOAD DUP5 LT JUMPDEST PUSH2 0x3EF JUMPI PUSH1 0x40 MLOAD PUSH32 0x8C379A000000000000000000000000000000000000000000000000000000000 DUP2 MSTORE PUSH1 0x4 ADD PUSH2 0x3E6 SWAP1 PUSH2 0x9FF JUMP JUMPDEST PUSH1 0x40 MLOAD DUP1 SWAP2 SUB SWAP1 REVERT JUMPDEST PUSH1 0x0 DUP1 PUSH1 0x0 DUP7 DUP2 MSTORE PUSH1 0x20 ADD SWAP1 DUP2 MSTORE PUSH1 0x20 ADD PUSH1 0x0 KECCAK256 PUSH1 0x40 MLOAD DUP1 PUSH1 0x60 ADD PUSH1 0x40 MSTORE SWAP1 DUP2 PUSH1 0x0 DUP3 ADD DUP1 SLOAD PUSH2 0x41E SWAP1 PUSH2 0xA4E JUMP JUMPDEST DUP1 PUSH1 0x1F ADD PUSH1 0x20 DUP1 SWAP2 DIV MUL PUSH1 0x20 ADD PUSH1 0x40 MLOAD SWAP1 DUP2 ADD PUSH1 0x40 MSTORE DUP1 SWAP3 SWAP2 SWAP1 DUP2 DUP2 MSTORE PUSH1 0x20 ADD DUP3 DUP1 SLOAD PUSH2 0x44A SWAP1 PUSH2 0xA4E JUMP JUMPDEST DUP1 ISZERO PUSH2 0x497 JUMPI DUP1 PUSH1 0x1F LT PUSH2 0x46C JUMPI PUSH2 0x100 DUP1 DUP4 SLOAD DIV MUL DUP4 MSTORE SWAP2 PUSH1 0x20 ADD SWAP2 PUSH2 0x497 JUMP JUMPDEST DUP3 ADD SWAP2 SWAP1 PUSH1 0x0 MSTORE PUSH1 0x20 PUSH1 0x0 KECCAK256 SWAP1 JUMPDEST DUP2 SLOAD DUP2 MSTORE SWAP1 PUSH1 0x1 ADD SWAP1 PUSH1 0x20 ADD DUP1 DUP4 GT PUSH2 0x47A JUMPI DUP3 SWAP1 SUB PUSH1 0x1F AND DUP3 ADD SWAP2 JUMPDEST POP POP POP POP POP DUP2 MSTORE PUSH1 0x20 ADD PUSH1 0x1 DUP3 ADD SLOAD DUP2 MSTORE PUSH1 0x20 ADD PUSH1 0x2 DUP3 ADD DUP1 SLOAD PUSH2 0x4BA SWAP1 PUSH2 0xA4E JUMP JUMPDEST DUP1 PUSH1 0x1F ADD PUSH1 0x20 DUP1 SWAP2 DIV MUL PUSH1 0x20 ADD PUSH1 0x40 MLOAD SWAP1 DUP2 ADD PUSH1 0x40 MSTORE DUP1 SWAP3 SWAP2 SWAP1 DUP2 DUP2 MSTORE PUSH1 0x20 ADD DUP3 DUP1 SLOAD PUSH2 0x4E6 SWAP1 PUSH2 0xA4E JUMP JUMPDEST DUP1 ISZERO PUSH2 0x533 JUMPI DUP1 PUSH1 0x1F LT PUSH2 0x508 JUMPI PUSH2 0x100 DUP1 DUP4 SLOAD DIV MUL DUP4 MSTORE SWAP2 PUSH1 0x20 ADD SWAP2 PUSH2 0x533 JUMP JUMPDEST DUP3 ADD SWAP2 SWAP1 PUSH1 0x0 MSTORE PUSH1 0x20 PUSH1 0x0 KECCAK256 SWAP1 JUMPDEST DUP2 SLOAD DUP2 MSTORE SWAP1 PUSH1 0x1 ADD SWAP1 PUSH1 0x20 ADD DUP1 DUP4 GT PUSH2 0x516 JUMPI DUP3 SWAP1 SUB PUSH1 0x1F AND DUP3 ADD SWAP2 JUMPDEST POP POP POP POP POP DUP2 MSTORE POP POP SWAP1 POP DUP1 PUSH1 0x0 ADD MLOAD DUP2 PUSH1 0x20 ADD MLOAD DUP3 PUSH1 0x40 ADD MLOAD SWAP4 POP SWAP4 POP SWAP4 POP POP SWAP2 SWAP4 SWAP1 SWAP3 POP JUMP JUMPDEST POP DUP1 SLOAD PUSH2 0x567 SWAP1 PUSH2 0xA4E JUMP JUMPDEST PUSH1 0x0 DUP3 SSTORE DUP1 PUSH1 0x1F LT PUSH2 0x579 JUMPI POP PUSH2 0x598 JUMP JUMPDEST PUSH1 0x1F ADD PUSH1 0x20 SWAP1 DIV SWAP1 PUSH1 0x0 MSTORE PUSH1 0x20 PUSH1 0x0 KECCAK256 SWAP1 DUP2 ADD SWAP1 PUSH2 0x597 SWAP2 SWAP1 PUSH2 0x59B JUMP JUMPDEST JUMPDEST POP JUMP JUMPDEST JUMPDEST DUP1 DUP3 GT ISZERO PUSH2 0x5B4 JUMPI PUSH1 0x0 DUP2 PUSH1 0x0 SWAP1 SSTORE POP PUSH1 0x1 ADD PUSH2 0x59C JUMP JUMPDEST POP SWAP1 JUMP JUMPDEST PUSH1 0x0 PUSH1 0x40 MLOAD SWAP1 POP SWAP1 JUMP JUMPDEST PUSH1 0x0 DUP1 REVERT JUMPDEST PUSH1 0x0 DUP1 REVERT JUMPDEST PUSH1 0x0 DUP2 SWAP1 POP SWAP2 SWAP1 POP JUMP JUMPDEST PUSH2 0x5DF DUP2 PUSH2 0x5CC JUMP JUMPDEST DUP2 EQ PUSH2 0x5EA JUMPI PUSH1 0x0 DUP1 REVERT JUMPDEST POP JUMP JUMPDEST PUSH1 0x0 DUP2 CALLDATALOAD SWAP1 POP PUSH2 0x5FC DUP2 PUSH2 0x5D6 JUMP JUMPDEST SWAP3 SWAP2 POP POP JUMP JUMPDEST PUSH1 0x0 DUP1 REVERT JUMPDEST PUSH1 0x0 DUP1 REVERT JUMPDEST PUSH1 0x0 PUSH1 0x1F NOT PUSH1 0x1F DUP4 ADD AND SWAP1 POP SWAP2 SWAP1 POP JUMP JUMPDEST PUSH32 0x4E487B7100000000000000000000000000000000000000000000000000000000 PUSH1 0x0 MSTORE PUSH1 0x41 PUSH1 0x4 MSTORE PUSH1 0x24 PUSH1 0x0 REVERT JUMPDEST PUSH2 0x655 DUP3 PUSH2 0x60C JUMP JUMPDEST DUP2 ADD DUP2 DUP2 LT PUSH8 0xFFFFFFFFFFFFFFFF DUP3 GT OR ISZERO PUSH2 0x674 JUMPI PUSH2 0x673 PUSH2 0x61D JUMP JUMPDEST JUMPDEST DUP1 PUSH1 0x40 MSTORE POP POP POP JUMP JUMPDEST PUSH1 0x0 PUSH2 0x687 PUSH2 0x5B8 JUMP JUMPDEST SWAP1 POP PUSH2 0x693 DUP3 DUP3 PUSH2 0x64C JUMP JUMPDEST SWAP2 SWAP1 POP JUMP JUMPDEST PUSH1 0x0 PUSH8 0xFFFFFFFFFFFFFFFF DUP3 GT ISZERO PUSH2 0x6B3 JUMPI PUSH2 0x6B2 PUSH2 0x61D JUMP JUMPDEST JUMPDEST PUSH2 0x6BC DUP3 PUSH2 0x60C JUMP JUMPDEST SWAP1 POP PUSH1 0x20 DUP2 ADD SWAP1 POP SWAP2 SWAP1 POP JUMP JUMPDEST DUP3 DUP2 DUP4 CALLDATACOPY PUSH1 0x0 DUP4 DUP4 ADD MSTORE POP POP POP JUMP JUMPDEST PUSH1 0x0 PUSH2 0x6EB PUSH2 0x6E6 DUP5 PUSH2 0x698 JUMP JUMPDEST PUSH2 0x67D JUMP JUMPDEST SWAP1 POP DUP3 DUP2 MSTORE PUSH1 0x20 DUP2 ADD DUP5 DUP5 DUP5 ADD GT ISZERO PUSH2 0x707 JUMPI PUSH2 0x706 PUSH2 0x607 JUMP JUMPDEST JUMPDEST PUSH2 0x712 DUP5 DUP3 DUP6 PUSH2 0x6C9 JUMP JUMPDEST POP SWAP4 SWAP3 POP POP POP JUMP JUMPDEST PUSH1 0x0 DUP3 PUSH1 0x1F DUP4 ADD SLT PUSH2 0x72F JUMPI PUSH2 0x72E PUSH2 0x602 JUMP JUMPDEST JUMPDEST DUP2 CALLDATALOAD PUSH2 0x73F DUP5 DUP3 PUSH1 0x20 DUP7 ADD PUSH2 0x6D8 JUMP JUMPDEST SWAP2 POP POP SWAP3 SWAP2 POP POP JUMP JUMPDEST PUSH1 0x0 DUP1 PUSH1 0x0 DUP1 PUSH1 0x80 DUP6 DUP8 SUB SLT ISZERO PUSH2 0x762 JUMPI PUSH2 0x761 PUSH2 0x5C2 JUMP JUMPDEST JUMPDEST PUSH1 0x0 PUSH2 0x770 DUP8 DUP3 DUP9 ADD PUSH2 0x5ED JUMP JUMPDEST SWAP5 POP POP PUSH1 0x20 DUP6 ADD CALLDATALOAD PUSH8 0xFFFFFFFFFFFFFFFF DUP2 GT ISZERO PUSH2 0x791 JUMPI PUSH2 0x790 PUSH2 0x5C7 JUMP JUMPDEST JUMPDEST PUSH2 0x79D DUP8 DUP3 DUP9 ADD PUSH2 0x71A JUMP JUMPDEST SWAP4 POP POP PUSH1 0x40 PUSH2 0x7AE DUP8 DUP3 DUP9 ADD PUSH2 0x5ED JUMP JUMPDEST SWAP3 POP POP PUSH1 0x60 DUP6 ADD CALLDATALOAD PUSH8 0xFFFFFFFFFFFFFFFF DUP2 GT ISZERO PUSH2 0x7CF JUMPI PUSH2 0x7CE PUSH2 0x5C7 JUMP JUMPDEST JUMPDEST PUSH2 0x7DB DUP8 DUP3 DUP9 ADD PUSH2 0x71A JUMP JUMPDEST SWAP2 POP POP SWAP3 SWAP6 SWAP2 SWAP5 POP SWAP3 POP JUMP JUMPDEST PUSH1 0x0 DUP1 PUSH1 0x0 PUSH1 0x60 DUP5 DUP7 SUB SLT ISZERO PUSH2 0x800 JUMPI PUSH2 0x7FF PUSH2 0x5C2 JUMP JUMPDEST JUMPDEST PUSH1 0x0 DUP5 ADD CALLDATALOAD PUSH8 0xFFFFFFFFFFFFFFFF DUP2 GT ISZERO PUSH2 0x81E JUMPI PUSH2 0x81D PUSH2 0x5C7 JUMP JUMPDEST JUMPDEST PUSH2 0x82A DUP7 DUP3 DUP8 ADD PUSH2 0x71A JUMP JUMPDEST SWAP4 POP POP PUSH1 0x20 PUSH2 0x83B DUP7 DUP3 DUP8 ADD PUSH2 0x5ED JUMP JUMPDEST SWAP3 POP POP PUSH1 0x40 DUP5 ADD CALLDATALOAD PUSH8 0xFFFFFFFFFFFFFFFF DUP2 GT ISZERO PUSH2 0x85C JUMPI PUSH2 0x85B PUSH2 0x5C7 JUMP JUMPDEST JUMPDEST PUSH2 0x868 DUP7 DUP3 DUP8 ADD PUSH2 0x71A JUMP JUMPDEST SWAP2 POP POP SWAP3 POP SWAP3 POP SWAP3 JUMP JUMPDEST PUSH1 0x0 PUSH1 0x20 DUP3 DUP5 SUB SLT ISZERO PUSH2 0x888 JUMPI PUSH2 0x887 PUSH2 0x5C2 JUMP JUMPDEST JUMPDEST PUSH1 0x0 PUSH2 0x896 DUP5 DUP3 DUP6 ADD PUSH2 0x5ED JUMP JUMPDEST SWAP2 POP POP SWAP3 SWAP2 POP POP JUMP JUMPDEST PUSH2 0x8A8 DUP2 PUSH2 0x5CC JUMP JUMPDEST DUP3 MSTORE POP POP JUMP JUMPDEST PUSH1 0x0 PUSH1 0x20 DUP3 ADD SWAP1 POP PUSH2 0x8C3 PUSH1 0x0 DUP4 ADD DUP5 PUSH2 0x89F JUMP JUMPDEST SWAP3 SWAP2 POP POP JUMP JUMPDEST PUSH1 0x0 DUP2 MLOAD SWAP1 POP SWAP2 SWAP1 POP JUMP JUMPDEST PUSH1 0x0 DUP3 DUP3 MSTORE PUSH1 0x20 DUP3 ADD SWAP1 POP SWAP3 SWAP2 POP POP JUMP JUMPDEST PUSH1 0x0 JUMPDEST DUP4 DUP2 LT ISZERO PUSH2 0x903 JUMPI DUP1 DUP3 ADD MLOAD DUP2 DUP5 ADD MSTORE PUSH1 0x20 DUP2 ADD SWAP1 POP PUSH2 0x8E8 JUMP JUMPDEST PUSH1 0x0 DUP5 DUP5 ADD MSTORE POP POP POP POP JUMP JUMPDEST PUSH1 0x0 PUSH2 0x91A DUP3 PUSH2 0x8C9 JUMP JUMPDEST PUSH2 0x924 DUP2 DUP6 PUSH2 0x8D4 JUMP JUMPDEST SWAP4 POP PUSH2 0x934 DUP2 DUP6 PUSH1 0x20 DUP7 ADD PUSH2 0x8E5 JUMP JUMPDEST PUSH2 0x93D DUP2 PUSH2 0x60C JUMP JUMPDEST DUP5 ADD SWAP2 POP POP SWAP3 SWAP2 POP POP JUMP JUMPDEST PUSH1 0x0 PUSH1 0x60 DUP3 ADD SWAP1 POP DUP2 DUP2 SUB PUSH1 0x0 DUP4 ADD MSTORE PUSH2 0x962 DUP2 DUP7 PUSH2 0x90F JUMP JUMPDEST SWAP1 POP PUSH2 0x971 PUSH1 0x20 DUP4 ADD DUP6 PUSH2 0x89F JUMP JUMPDEST DUP2 DUP2 SUB PUSH1 0x40 DUP4 ADD MSTORE PUSH2 0x983 DUP2 DUP5 PUSH2 0x90F JUMP JUMPDEST SWAP1 POP SWAP5 SWAP4 POP POP POP POP JUMP JUMPDEST PUSH32 0x506574616E692064656E67616E20494420746572736562757420746964616B20 PUSH1 0x0 DUP3 ADD MSTORE PUSH32 0x646974656D756B616E2E00000000000000000000000000000000000000000000 PUSH1 0x20 DUP3 ADD MSTORE POP JUMP JUMPDEST PUSH1 0x0 PUSH2 0x9E9 PUSH1 0x2A DUP4 PUSH2 0x8D4 JUMP JUMPDEST SWAP2 POP PUSH2 0x9F4 DUP3 PUSH2 0x98D JUMP JUMPDEST PUSH1 0x40 DUP3 ADD SWAP1 POP SWAP2 SWAP1 POP JUMP JUMPDEST PUSH1 0x0 PUSH1 0x20 DUP3 ADD SWAP1 POP DUP2 DUP2 SUB PUSH1 0x0 DUP4 ADD MSTORE PUSH2 0xA18 DUP2 PUSH2 0x9DC JUMP JUMPDEST SWAP1 POP SWAP2 SWAP1 POP JUMP JUMPDEST PUSH32 0x4E487B7100000000000000000000000000000000000000000000000000000000 PUSH1 0x0 MSTORE PUSH1 0x22 PUSH1 0x4 MSTORE PUSH1 0x24 PUSH1 0x0 REVERT JUMPDEST PUSH1 0x0 PUSH1 0x2 DUP3 DIV SWAP1 POP PUSH1 0x1 DUP3 AND DUP1 PUSH2 0xA66 JUMPI PUSH1 0x7F DUP3 AND SWAP2 POP JUMPDEST PUSH1 0x20 DUP3 LT DUP2 SUB PUSH2 0xA79 JUMPI PUSH2 0xA78 PUSH2 0xA1F JUMP JUMPDEST JUMPDEST POP SWAP2 SWAP1 POP JUMP JUMPDEST PUSH1 0x0 DUP2 SWAP1 POP DUP2 PUSH1 0x0 MSTORE PUSH1 0x20 PUSH1 0x0 KECCAK256 SWAP1 POP SWAP2 SWAP1 POP JUMP JUMPDEST PUSH1 0x0 PUSH1 0x20 PUSH1 0x1F DUP4 ADD DIV SWAP1 POP SWAP2 SWAP1 POP JUMP JUMPDEST PUSH1 0x0 DUP3 DUP3 SHL SWAP1 POP SWAP3 SWAP2 POP POP JUMP JUMPDEST PUSH1 0x0 PUSH1 0x8 DUP4 MUL PUSH2 0xAE1 PUSH32 0xFFFFFFFFFFFFFFFFFFFFFFFFFFFFFFFFFFFFFFFFFFFFFFFFFFFFFFFFFFFFFFFF DUP3 PUSH2 0xAA4 JUMP JUMPDEST PUSH2 0xAEB DUP7 DUP4 PUSH2 0xAA4 JUMP JUMPDEST SWAP6 POP DUP1 NOT DUP5 AND SWAP4 POP DUP1 DUP7 AND DUP5 OR SWAP3 POP POP POP SWAP4 SWAP3 POP POP POP JUMP JUMPDEST PUSH1 0x0 DUP2 SWAP1 POP SWAP2 SWAP1 POP JUMP JUMPDEST PUSH1 0x0 PUSH2 0xB28 PUSH2 0xB23 PUSH2 0xB1E DUP5 PUSH2 0x5CC JUMP JUMPDEST PUSH2 0xB03 JUMP JUMPDEST PUSH2 0x5CC JUMP JUMPDEST SWAP1 POP SWAP2 SWAP1 POP JUMP JUMPDEST PUSH1 0x0 DUP2 SWAP1 POP SWAP2 SWAP1 POP JUMP JUMPDEST PUSH2 0xB42 DUP4 PUSH2 0xB0D JUMP JUMPDEST PUSH2 0xB56 PUSH2 0xB4E DUP3 PUSH2 0xB2F JUMP JUMPDEST DUP5 DUP5 SLOAD PUSH2 0xAB1 JUMP JUMPDEST DUP3 SSTORE POP POP POP POP JUMP JUMPDEST PUSH1 0x0 SWAP1 JUMP JUMPDEST PUSH2 0xB6B PUSH2 0xB5E JUMP JUMPDEST PUSH2 0xB76 DUP2 DUP5 DUP5 PUSH2 0xB39 JUMP JUMPDEST POP POP POP JUMP JUMPDEST JUMPDEST DUP2 DUP2 LT ISZERO PUSH2 0xB9A JUMPI PUSH2 0xB8F PUSH1 0x0 DUP3 PUSH2 0xB63 JUMP JUMPDEST PUSH1 0x1 DUP2 ADD SWAP1 POP PUSH2 0xB7C JUMP JUMPDEST POP POP JUMP JUMPDEST PUSH1 0x1F DUP3 GT ISZERO PUSH2 0xBDF JUMPI PUSH2 0xBB0 DUP2 PUSH2 0xA7F JUMP JUMPDEST PUSH2 0xBB9 DUP5 PUSH2 0xA94 JUMP JUMPDEST DUP2 ADD PUSH1 0x20 DUP6 LT ISZERO PUSH2 0xBC8 JUMPI DUP2 SWAP1 POP JUMPDEST PUSH2 0xBDC PUSH2 0xBD4 DUP6 PUSH2 0xA94 JUMP JUMPDEST DUP4 ADD DUP3 PUSH2 0xB7B JUMP JUMPDEST POP POP JUMPDEST POP POP POP JUMP JUMPDEST PUSH1 0x0 DUP3 DUP3 SHR SWAP1 POP SWAP3 SWAP2 POP POP JUMP JUMPDEST PUSH1 0x0 PUSH2 0xC02 PUSH1 0x0 NOT DUP5 PUSH1 0x8 MUL PUSH2 0xBE4 JUMP JUMPDEST NOT DUP1 DUP4 AND SWAP2 POP POP SWAP3 SWAP2 POP POP JUMP JUMPDEST PUSH1 0x0 PUSH2 0xC1B DUP4 DUP4 PUSH2 0xBF1 JUMP JUMPDEST SWAP2 POP DUP3 PUSH1 0x2 MUL DUP3 OR SWAP1 POP SWAP3 SWAP2 POP POP JUMP JUMPDEST PUSH2 0xC34 DUP3 PUSH2 0x8C9 JUMP JUMPDEST PUSH8 0xFFFFFFFFFFFFFFFF DUP2 GT ISZERO PUSH2 0xC4D JUMPI PUSH2 0xC4C PUSH2 0x61D JUMP JUMPDEST JUMPDEST PUSH2 0xC57 DUP3 SLOAD PUSH2 0xA4E JUMP JUMPDEST PUSH2 0xC62 DUP3 DUP3 DUP6 PUSH2 0xB9E JUMP JUMPDEST PUSH1 0x0 PUSH1 0x20 SWAP1 POP PUSH1 0x1F DUP4 GT PUSH1 0x1 DUP2 EQ PUSH2 0xC95 JUMPI PUSH1 0x0 DUP5 ISZERO PUSH2 0xC83 JUMPI DUP3 DUP8 ADD MLOAD SWAP1 POP JUMPDEST PUSH2 0xC8D DUP6 DUP3 PUSH2 0xC0F JUMP JUMPDEST DUP7 SSTORE POP PUSH2 0xCF5 JUMP JUMPDEST PUSH1 0x1F NOT DUP5 AND PUSH2 0xCA3 DUP7 PUSH2 0xA7F JUMP JUMPDEST PUSH1 0x0 JUMPDEST DUP3 DUP2 LT ISZERO PUSH2 0xCCB JUMPI DUP5 DUP10 ADD MLOAD DUP3 SSTORE PUSH1 0x1 DUP3 ADD SWAP2 POP PUSH1 0x20 DUP6 ADD SWAP5 POP PUSH1 0x20 DUP2 ADD SWAP1 POP PUSH2 0xCA6 JUMP JUMPDEST DUP7 DUP4 LT ISZERO PUSH2 0xCE8 JUMPI DUP5 DUP10 ADD MLOAD PUSH2 0xCE4 PUSH1 0x1F DUP10 AND DUP3 PUSH2 0xBF1 JUMP JUMPDEST DUP4 SSTORE POP JUMPDEST PUSH1 0x1 PUSH1 0x2 DUP9 MUL ADD DUP9 SSTORE POP POP POP JUMPDEST POP POP POP POP POP POP JUMP JUMPDEST PUSH1 0x0 PUSH1 0x80 DUP3 ADD SWAP1 POP PUSH2 0xD12 PUSH1 0x0 DUP4 ADD DUP8 PUSH2 0x89F JUMP JUMPDEST DUP2 DUP2 SUB PUSH1 0x20 DUP4 ADD MSTORE PUSH2 0xD24 DUP2 DUP7 PUSH2 0x90F JUMP JUMPDEST SWAP1 POP PUSH2 0xD33 PUSH1 0x40 DUP4 ADD DUP6 PUSH2 0x89F JUMP JUMPDEST DUP2 DUP2 SUB PUSH1 0x60 DUP4 ADD MSTORE PUSH2 0xD45 DUP2 DUP5 PUSH2 0x90F JUMP JUMPDEST SWAP1 POP SWAP6 SWAP5 POP POP POP POP POP JUMP JUMPDEST PUSH32 0x4E487B7100000000000000000000000000000000000000000000000000000000 PUSH1 0x0 MSTORE PUSH1 0x11 PUSH1 0x4 MSTORE PUSH1 0x24 PUSH1 0x0 REVERT JUMPDEST PUSH1 0x0 PUSH2 0xD8A DUP3 PUSH2 0x5CC JUMP JUMPDEST SWAP2 POP PUSH32 0xFFFFFFFFFFFFFFFFFFFFFFFFFFFFFFFFFFFFFFFFFFFFFFFFFFFFFFFFFFFFFFFF DUP3 SUB PUSH2 0xDBC JUMPI PUSH2 0xDBB PUSH2 0xD50 JUMP JUMPDEST JUMPDEST PUSH1 0x1 DUP3 ADD SWAP1 POP SWAP2 SWAP1 POP JUMP JUMPDEST PUSH1 0x0 PUSH2 0xDD2 DUP3 PUSH2 0x5CC JUMP JUMPDEST SWAP2 POP PUSH2 0xDDD DUP4 PUSH2 0x5CC JUMP JUMPDEST SWAP3 POP DUP3 DUP3 SUB SWAP1 POP DUP2 DUP2 GT ISZERO PUSH2 0xDF5 JUMPI PUSH2 0xDF4 PUSH2 0xD50 JUMP JUMPDEST JUMPDEST SWAP3 SWAP2 POP POP JUMP INVALID LOG2 PUSH5 0x6970667358 0x22 SLT KECCAK256 EXTCODEHASH 0xD0 GAS 0xB9 SWAP7 0xAE 0xA9 PUSH6 0x17B5E4F2E4E SWAP4 0xA5 PUSH10 0x14D306F4B49209409302 CREATE2 SWAP11 0x4C PUSH23 0x8964736F6C634300081C00330000000000000000000000 "
		},
		"gasEstimates": {
			"creation": {
				"codeDepositCost": "726600",
				"executionCost": "22866",
				"totalCost": "749466"
			},
			"external": {
				"deletePetani(uint256)": "infinite",
				"getJumlahPetani()": "infinite",
				"getPetani(uint256)": "infinite",
				"tambahPetani(string,uint256,string)": "infinite",
				"updatePetani(uint256,string,uint256,string)": "infinite"
			}
		},
		"methodIdentifiers": {
			"deletePetani(uint256)": "944d6dda",
			"getJumlahPetani()": "ba5c40cd",
			"getPetani(uint256)": "f6042d93",
			"tambahPetani(string,uint256,string)": "6539bb39",
			"updatePetani(uint256,string,uint256,string)": "4175e519"
		}
	},
	"abi": [
		{
			"anonymous": false,
			"inputs": [
				{
					"indexed": false,
					"internalType": "uint256",
					"name": "id",
					"type": "uint256"
				}
			],
			"name": "PetaniDihapus",
			"type": "event"
		},
		{
			"anonymous": false,
			"inputs": [
				{
					"indexed": false,
					"internalType": "uint256",
					"name": "id",
					"type": "uint256"
				},
				{
					"indexed": false,
					"internalType": "string",
					"name": "nama",
					"type": "string"
				},
				{
					"indexed": false,
					"internalType": "uint256",
					"name": "usia",
					"type": "uint256"
				},
				{
					"indexed": false,
					"internalType": "string",
					"name": "lokasi",
					"type": "string"
				}
			],
			"name": "PetaniDiperbarui",
			"type": "event"
		},
		{
			"anonymous": false,
			"inputs": [
				{
					"indexed": false,
					"internalType": "uint256",
					"name": "id",
					"type": "uint256"
				},
				{
					"indexed": false,
					"internalType": "string",
					"name": "nama",
					"type": "string"
				},
				{
					"indexed": false,
					"internalType": "uint256",
					"name": "usia",
					"type": "uint256"
				},
				{
					"indexed": false,
					"internalType": "string",
					"name": "lokasi",
					"type": "string"
				}
			],
			"name": "PetaniDitambahkan",
			"type": "event"
		},
		{
			"inputs": [
				{
					"internalType": "uint256",
					"name": "_id",
					"type": "uint256"
				}
			],
			"name": "deletePetani",
			"outputs": [],
			"stateMutability": "nonpayable",
			"type": "function"
		},
		{
			"inputs": [],
			"name": "getJumlahPetani",
			"outputs": [
				{
					"internalType": "uint256",
					"name": "",
					"type": "uint256"
				}
			],
			"stateMutability": "view",
			"type": "function"
		},
		{
			"inputs": [
				{
					"internalType": "uint256",
					"name": "_id",
					"type": "uint256"
				}
			],
			"name": "getPetani",
			"outputs": [
				{
					"internalType": "string",
					"name": "nama",
					"type": "string"
				},
				{
					"internalType": "uint256",
					"name": "usia",
					"type": "uint256"
				},
				{
					"internalType": "string",
					"name": "lokasi",
					"type": "string"
				}
			],
			"stateMutability": "view",
			"type": "function"
		},
		{
			"inputs": [
				{
					"internalType": "string",
					"name": "_nama",
					"type": "string"
				},
				{
					"internalType": "uint256",
					"name": "_usia",
					"type": "uint256"
				},
				{
					"internalType": "string",
					"name": "_lokasi",
					"type": "string"
				}
			],
			"name": "tambahPetani",
			"outputs": [],
			"stateMutability": "nonpayable",
			"type": "function"
		},
		{
			"inputs": [
				{
					"internalType": "uint256",
					"name": "_id",
					"type": "uint256"
				},
				{
					"internalType": "string",
					"name": "_nama",
					"type": "string"
				},
				{
					"internalType": "uint256",
					"name": "_usia",
					"type": "uint256"
				},
				{
					"internalType": "string",
					"name": "_lokasi",
					"type": "string"
				}
			],
			"name": "updatePetani",
			"outputs": [],
			"stateMutability": "nonpayable",
			"type": "function"
		}
	]
}